{
  "address": "0xfB5cab41b4e92686a18a5ED63f0c3ceB6ebA2d6C",
  "abi": [
    {
      "inputs": [],
      "name": "NoController",
      "type": "error"
    },
    {
      "anonymous": false,
      "inputs": [
        {
          "indexed": true,
          "internalType": "address",
          "name": "previousOwner",
          "type": "address"
        },
        {
          "indexed": true,
          "internalType": "address",
          "name": "newOwner",
          "type": "address"
        }
      ],
      "name": "OwnershipTransferred",
      "type": "event"
    },
    {
      "anonymous": false,
      "inputs": [
        {
          "indexed": true,
          "internalType": "bytes32",
          "name": "identifier",
          "type": "bytes32"
        },
        {
          "indexed": false,
          "internalType": "address",
          "name": "logic",
          "type": "address"
        },
        {
          "indexed": false,
          "internalType": "address",
          "name": "creator",
          "type": "address"
        }
      ],
      "name": "ProxyDeployed",
      "type": "event"
    },
    {
      "inputs": [],
      "name": "FEE_DISTRIBUTOR",
      "outputs": [
        {
          "internalType": "bytes32",
          "name": "",
          "type": "bytes32"
        }
      ],
      "stateMutability": "view",
      "type": "function"
    },
    {
      "inputs": [],
      "name": "FNFT_COLLECTION_FACTORY",
      "outputs": [
        {
          "internalType": "bytes32",
          "name": "",
          "type": "bytes32"
        }
      ],
      "stateMutability": "view",
      "type": "function"
    },
    {
      "inputs": [],
      "name": "INVENTORY_STAKING",
      "outputs": [
        {
          "internalType": "bytes32",
          "name": "",
          "type": "bytes32"
        }
      ],
      "stateMutability": "view",
      "type": "function"
    },
    {
      "inputs": [],
      "name": "LP_STAKING",
      "outputs": [
        {
          "internalType": "bytes32",
          "name": "",
          "type": "bytes32"
        }
      ],
      "stateMutability": "view",
      "type": "function"
    },
    {
      "inputs": [],
      "name": "STAKING_TOKEN_PROVIDER",
      "outputs": [
        {
          "internalType": "bytes32",
          "name": "",
          "type": "bytes32"
        }
      ],
      "stateMutability": "view",
      "type": "function"
    },
    {
      "inputs": [],
      "name": "VAULT_MANAGER",
      "outputs": [
        {
          "internalType": "bytes32",
          "name": "",
          "type": "bytes32"
        }
      ],
      "stateMutability": "view",
      "type": "function"
    },
    {
      "inputs": [
        {
          "internalType": "address",
          "name": "_logic",
          "type": "address"
        },
        {
          "internalType": "address",
          "name": "_vaultManager",
          "type": "address"
        },
        {
          "internalType": "address",
          "name": "_fnftCollection",
          "type": "address"
        }
      ],
      "name": "deployFNFTCollectionFactory",
      "outputs": [
        {
          "internalType": "address",
          "name": "factory",
          "type": "address"
        }
      ],
      "stateMutability": "nonpayable",
      "type": "function"
    },
    {
      "inputs": [
        {
          "internalType": "address",
          "name": "_logic",
          "type": "address"
        },
        {
          "internalType": "address",
          "name": "fnftCollectionFactory",
          "type": "address"
        }
      ],
      "name": "deployFNFTStaking",
      "outputs": [
        {
          "internalType": "address",
          "name": "fnftStaking",
          "type": "address"
        }
      ],
      "stateMutability": "nonpayable",
      "type": "function"
    },
    {
      "inputs": [
        {
          "internalType": "address",
          "name": "_logic",
          "type": "address"
        },
        {
          "internalType": "address",
          "name": "vaultManager",
          "type": "address"
        },
        {
          "internalType": "address",
          "name": "lpStaking",
          "type": "address"
        },
        {
          "internalType": "address",
          "name": "treasury",
          "type": "address"
        }
      ],
      "name": "deployFeeDistributor",
      "outputs": [
        {
          "internalType": "address",
          "name": "feeDistributor",
          "type": "address"
        }
      ],
      "stateMutability": "nonpayable",
      "type": "function"
    },
    {
      "inputs": [
        {
          "internalType": "address",
          "name": "_logic",
          "type": "address"
        },
        {
          "internalType": "address",
          "name": "vaultManager",
          "type": "address"
        },
        {
          "internalType": "address",
          "name": "stakingTokenProvider",
          "type": "address"
        }
      ],
      "name": "deployLPStaking",
      "outputs": [
        {
          "internalType": "address",
          "name": "lpStaking",
          "type": "address"
        }
      ],
      "stateMutability": "nonpayable",
      "type": "function"
    },
    {
      "inputs": [
        {
          "internalType": "address",
          "name": "_logic",
          "type": "address"
        },
        {
          "internalType": "address",
          "name": "uniswapV2Factory",
          "type": "address"
        },
        {
          "internalType": "address",
          "name": "defaultPairedToken",
          "type": "address"
        },
        {
          "internalType": "string",
          "name": "defaultPrefix",
          "type": "string"
        }
      ],
      "name": "deployStakingTokenProvider",
      "outputs": [
        {
          "internalType": "address",
          "name": "stakingTokenProvider",
          "type": "address"
        }
      ],
      "stateMutability": "nonpayable",
      "type": "function"
    },
    {
      "inputs": [
        {
          "internalType": "address",
          "name": "_logic",
          "type": "address"
        },
        {
          "internalType": "address",
          "name": "_weth",
          "type": "address"
        }
      ],
      "name": "deployVaultManager",
      "outputs": [
        {
          "internalType": "address",
          "name": "vaultManager",
          "type": "address"
        }
      ],
      "stateMutability": "nonpayable",
      "type": "function"
    },
    {
      "inputs": [],
      "name": "owner",
      "outputs": [
        {
          "internalType": "address",
          "name": "",
          "type": "address"
        }
      ],
      "stateMutability": "view",
      "type": "function"
    },
    {
      "inputs": [],
      "name": "proxyController",
      "outputs": [
        {
          "internalType": "contract IMultiProxyController",
          "name": "",
          "type": "address"
        }
      ],
      "stateMutability": "view",
      "type": "function"
    },
    {
      "inputs": [],
      "name": "renounceOwnership",
      "outputs": [],
      "stateMutability": "nonpayable",
      "type": "function"
    },
    {
      "inputs": [
        {
          "internalType": "address",
          "name": "_proxyController",
          "type": "address"
        }
      ],
      "name": "setProxyController",
      "outputs": [],
      "stateMutability": "nonpayable",
      "type": "function"
    },
    {
      "inputs": [
        {
          "internalType": "address",
          "name": "newOwner",
          "type": "address"
        }
      ],
      "name": "transferOwnership",
      "outputs": [],
      "stateMutability": "nonpayable",
      "type": "function"
    }
  ],
  "transactionHash": "0xd6365e638c8e7623d146f797f6738917575e36fcf0998af0f308916c8dcf7c51",
  "args": [],
  "numDeployments": 1,
  "solcInputHash": "bf0ff9e6b7fc2e915dfac7a0da096a36",
  "bytecode": "0x608060405234801561001057600080fd5b5061001a3361001f565b61006f565b600080546001600160a01b038381166001600160a01b0319831681178455604051919092169283917f8be0079c531659141344cd1fd0a4f28419497f9722a3daafe3b4186f6b6457e09190a35050565b611d8e8061007e6000396000f3fe60806040523480156200001157600080fd5b5060043610620001215760003560e01c80638da5cb5b11620000af578063bc22ff4e116200007a578063bc22ff4e146200025e578063c0a697c91462000275578063ef9bf15a1462000289578063f23fa79414620002a4578063f2fde38b14620002c357600080fd5b80638da5cb5b14620001fe578063a36ab4691462000210578063b70245f21462000227578063b808755e146200024757600080fd5b806364b1f9a111620000f057806364b1f9a114620001ad5780636910dcce14620001c4578063715018a614620001dd57806377881c7b14620001e757600080fd5b8063114c20f014620001265780633da0c131146200014d5780634352aa9f146200017d5780635da43bc91462000196575b600080fd5b6200013a684c505374616b696e6760b81b81565b6040519081526020015b60405180910390f35b620001646200015e36600462001070565b620002da565b6040516001600160a01b03909116815260200162000144565b620001946200018e366004620010ba565b620004f7565b005b62000164620001a736600462001070565b62000546565b62000164620001be366004620010df565b62000732565b6200013a6d2332b2a234b9ba3934b13aba37b960911b81565b6200019462000923565b62000164620001f83660046200112d565b6200095e565b6000546001600160a01b031662000164565b620001646200022136600462001220565b62000b73565b6200013a74464e4654436f6c6c656374696f6e466163746f727960581b81565b6200016462000258366004620010df565b62000d69565b6200013a6b2b30bab63a26b0b730b3b2b960a11b81565b60015462000164906001600160a01b031681565b6200013a6f496e76656e746f72795374616b696e6760801b81565b6200013a7329ba30b5b4b733aa37b5b2b7283937bb34b232b960611b81565b62000194620002d4366004620010ba565b62000f53565b600080546001600160a01b03163314620003115760405162461bcd60e51b815260040162000308906200127d565b60405180910390fd5b6001546001600160a01b03166200033b57604051630d17f6b760e41b815260040160405180910390fd5b600063afccd7c360e01b84846040516024016200035a929190620012b2565b604051602081830303815290604052906001600160e01b0319166020820180516001600160e01b0383818316178352505050509050843382604051620003a09062001045565b620003ae939291906200131c565b604051809103906000f080158015620003cb573d6000803e3d6000fd5b5060405163f2fde38b60e01b81523360048201529092506001600160a01b0383169063f2fde38b90602401600060405180830381600087803b1580156200041157600080fd5b505af115801562000426573d6000803e3d6000fd5b50506001546040516353eba3ff60e11b815274464e4654436f6c6c656374696f6e466163746f727960581b60048201526001600160a01b038681166024830152909116925063a7d747fe9150604401600060405180830381600087803b1580156200049057600080fd5b505af1158015620004a5573d6000803e3d6000fd5b5050505074464e4654436f6c6c656374696f6e466163746f727960581b60001b60008051602062001d398339815191528333604051620004e7929190620012b2565b60405180910390a2509392505050565b6000546001600160a01b03163314620005245760405162461bcd60e51b815260040162000308906200127d565b600180546001600160a01b0319166001600160a01b0392909216919091179055565b600080546001600160a01b03163314620005745760405162461bcd60e51b815260040162000308906200127d565b6001546001600160a01b03166200059e57604051630d17f6b760e41b815260040160405180910390fd5b600063f79b61ba60e01b8484604051602401620005bd929190620012b2565b604051602081830303815290604052906001600160e01b0319166020820180516001600160e01b0383818316178352505050509050843382604051620006039062001045565b62000611939291906200131c565b604051809103906000f0801580156200062e573d6000803e3d6000fd5b5060405163f2fde38b60e01b81523360048201529092506001600160a01b0383169063f2fde38b90602401600060405180830381600087803b1580156200067457600080fd5b505af115801562000689573d6000803e3d6000fd5b50506001546040516353eba3ff60e11b8152684c505374616b696e6760b81b60048201526001600160a01b038681166024830152909116925063a7d747fe9150604401600060405180830381600087803b158015620006e757600080fd5b505af1158015620006fc573d6000803e3d6000fd5b50505050684c505374616b696e6760b81b60001b60008051602062001d398339815191528333604051620004e7929190620012b2565b600080546001600160a01b03163314620007605760405162461bcd60e51b815260040162000308906200127d565b6001546001600160a01b03166200078a57604051630d17f6b760e41b815260040160405180910390fd5b604080516001600160a01b03841660248083019190915282518083039091018152604490910182526020810180516001600160e01b031663399cb35360e11b1790529051849033908390620007df9062001045565b620007ed939291906200131c565b604051809103906000f0801580156200080a573d6000803e3d6000fd5b5060405163f2fde38b60e01b81523360048201529092506001600160a01b0383169063f2fde38b90602401600060405180830381600087803b1580156200085057600080fd5b505af115801562000865573d6000803e3d6000fd5b50506001546040516353eba3ff60e11b81526b2b30bab63a26b0b730b3b2b960a11b60048201526001600160a01b038681166024830152909116925063a7d747fe9150604401600060405180830381600087803b158015620008c657600080fd5b505af1158015620008db573d6000803e3d6000fd5b505050506b2b30bab63a26b0b730b3b2b960a11b60001b60008051602062001d39833981519152833360405162000914929190620012b2565b60405180910390a25092915050565b6000546001600160a01b03163314620009505760405162461bcd60e51b815260040162000308906200127d565b6200095c600062000ff5565b565b600080546001600160a01b031633146200098c5760405162461bcd60e51b815260040162000308906200127d565b6001546001600160a01b0316620009b657604051630d17f6b760e41b815260040160405180910390fd5b6000638a2a1e2f60e01b858585604051602401620009d7939291906200131c565b604051602081830303815290604052906001600160e01b0319166020820180516001600160e01b038381831617835250505050905085338260405162000a1d9062001045565b62000a2b939291906200131c565b604051809103906000f08015801562000a48573d6000803e3d6000fd5b5060405163f2fde38b60e01b81523360048201529092506001600160a01b0383169063f2fde38b90602401600060405180830381600087803b15801562000a8e57600080fd5b505af115801562000aa3573d6000803e3d6000fd5b50506001546040516353eba3ff60e11b81527329ba30b5b4b733aa37b5b2b7283937bb34b232b960611b60048201526001600160a01b038681166024830152909116925063a7d747fe9150604401600060405180830381600087803b15801562000b0c57600080fd5b505af115801562000b21573d6000803e3d6000fd5b505050507329ba30b5b4b733aa37b5b2b7283937bb34b232b960611b60001b60008051602062001d39833981519152833360405162000b62929190620012b2565b60405180910390a250949350505050565b600080546001600160a01b0316331462000ba15760405162461bcd60e51b815260040162000308906200127d565b6001546001600160a01b031662000bcb57604051630d17f6b760e41b815260040160405180910390fd5b604080516001600160a01b0386811660248301528581166044830152841660648083019190915282518083039091018152608490910182526020810180516001600160e01b0316637aed47c560e01b179052905186903390839062000c309062001045565b62000c3e939291906200131c565b604051809103906000f08015801562000c5b573d6000803e3d6000fd5b5060405163f2fde38b60e01b81523360048201529092506001600160a01b0383169063f2fde38b90602401600060405180830381600087803b15801562000ca157600080fd5b505af115801562000cb6573d6000803e3d6000fd5b50506001546040516353eba3ff60e11b81526d2332b2a234b9ba3934b13aba37b960911b60048201526001600160a01b038681166024830152909116925063a7d747fe9150604401600060405180830381600087803b15801562000d1957600080fd5b505af115801562000d2e573d6000803e3d6000fd5b505050506d2332b2a234b9ba3934b13aba37b960911b60001b60008051602062001d39833981519152833360405162000b62929190620012b2565b600080546001600160a01b0316331462000d975760405162461bcd60e51b815260040162000308906200127d565b6001546001600160a01b031662000dc157604051630d17f6b760e41b815260040160405180910390fd5b604080516001600160a01b03841660248083019190915282518083039091018152604490910182526020810180516001600160e01b0316636bf4b28d60e01b179052905184903390839062000e169062001045565b62000e24939291906200131c565b604051809103906000f08015801562000e41573d6000803e3d6000fd5b5060405163f2fde38b60e01b81523360048201529092506001600160a01b0383169063f2fde38b90602401600060405180830381600087803b15801562000e8757600080fd5b505af115801562000e9c573d6000803e3d6000fd5b50506001546040516353eba3ff60e11b81526f496e76656e746f72795374616b696e6760801b60048201526001600160a01b038681166024830152909116925063a7d747fe9150604401600060405180830381600087803b15801562000f0157600080fd5b505af115801562000f16573d6000803e3d6000fd5b505050506f496e76656e746f72795374616b696e6760801b60001b60008051602062001d39833981519152833360405162000914929190620012b2565b6000546001600160a01b0316331462000f805760405162461bcd60e51b815260040162000308906200127d565b6001600160a01b03811662000fe75760405162461bcd60e51b815260206004820152602660248201527f4f776e61626c653a206e6577206f776e657220697320746865207a65726f206160448201526564647265737360d01b606482015260840162000308565b62000ff28162000ff5565b50565b600080546001600160a01b038381166001600160a01b0319831681178455604051919092169283917f8be0079c531659141344cd1fd0a4f28419497f9722a3daafe3b4186f6b6457e09190a35050565b6109e5806200135483390190565b80356001600160a01b03811681146200106b57600080fd5b919050565b6000806000606084860312156200108657600080fd5b620010918462001053565b9250620010a16020850162001053565b9150620010b16040850162001053565b90509250925092565b600060208284031215620010cd57600080fd5b620010d88262001053565b9392505050565b60008060408385031215620010f357600080fd5b620010fe8362001053565b91506200110e6020840162001053565b90509250929050565b634e487b7160e01b600052604160045260246000fd5b600080600080608085870312156200114457600080fd5b6200114f8562001053565b93506200115f6020860162001053565b92506200116f6040860162001053565b9150606085013567ffffffffffffffff808211156200118d57600080fd5b818701915087601f830112620011a257600080fd5b813581811115620011b757620011b762001117565b604051601f8201601f19908116603f01168101908382118183101715620011e257620011e262001117565b816040528281528a6020848701011115620011fc57600080fd5b82602086016020830137600060208483010152809550505050505092959194509250565b600080600080608085870312156200123757600080fd5b620012428562001053565b9350620012526020860162001053565b9250620012626040860162001053565b9150620012726060860162001053565b905092959194509250565b6020808252818101527f4f776e61626c653a2063616c6c6572206973206e6f7420746865206f776e6572604082015260600190565b6001600160a01b0392831681529116602082015260400190565b6000815180845260005b81811015620012f457602081850181015186830182015201620012d6565b8181111562001307576000602083870101525b50601f01601f19169290920160200192915050565b6001600160a01b038481168252831660208201526060604082018190526000906200134a90830184620012cc565b9594505050505056fe6080604052604051620009e5380380620009e583398101604081905262000026916200027d565b82816200005560017f360894a13ba1a3210667c828492db98dca3e2076cc3735a920a3ca505d382bbd6200035d565b600080516020620009c58339815191521462000075576200007562000383565b620000808262000168565b805115620000f7576000826001600160a01b031682604051620000a4919062000399565b600060405180830381855af49150503d8060008114620000e1576040519150601f19603f3d011682016040523d82523d6000602084013e620000e6565b606091505b5050905080620000f557600080fd5b505b5062000127905060017fb53127684a568b3173ae13b9f8a6016e243e63b6e8ee1178d6a717850b5d61046200035d565b600080516020620009a58339815191521462000147576200014762000383565b6200015f82600080516020620009a583398151915255565b505050620003b7565b6200017e816200020860201b620003a31760201c565b620001f55760405162461bcd60e51b815260206004820152603b60248201527f43616e6e6f742073657420612070726f787920696d706c656d656e746174696f60448201527f6e20746f2061206e6f6e2d636f6e747261637420616464726573730000000000606482015260840160405180910390fd5b600080516020620009c583398151915255565b6001600160a01b03163b151590565b80516001600160a01b03811681146200022f57600080fd5b919050565b634e487b7160e01b600052604160045260246000fd5b60005b83811015620002675781810151838201526020016200024d565b8381111562000277576000848401525b50505050565b6000806000606084860312156200029357600080fd5b6200029e8462000217565b9250620002ae6020850162000217565b60408501519092506001600160401b0380821115620002cc57600080fd5b818601915086601f830112620002e157600080fd5b815181811115620002f657620002f662000234565b604051601f8201601f19908116603f0116810190838211818310171562000321576200032162000234565b816040528281528960208487010111156200033b57600080fd5b6200034e8360208301602088016200024a565b80955050505050509250925092565b6000828210156200037e57634e487b7160e01b600052601160045260246000fd5b500390565b634e487b7160e01b600052600160045260246000fd5b60008251620003ad8184602087016200024a565b9190910192915050565b6105de80620003c76000396000f3fe60806040526004361061004e5760003560e01c80633659cfe6146100655780634f1ef286146100855780635c60da1b146100985780638f283970146100c9578063f851a440146100e95761005d565b3661005d5761005b6100fe565b005b61005b6100fe565b34801561007157600080fd5b5061005b6100803660046104d3565b610130565b61005b6100933660046104f5565b610163565b3480156100a457600080fd5b506100ad610208565b6040516001600160a01b03909116815260200160405180910390f35b3480156100d557600080fd5b5061005b6100e43660046104d3565b610260565b3480156100f557600080fd5b506100ad610368565b61012e6101297f360894a13ba1a3210667c828492db98dca3e2076cc3735a920a3ca505d382bbc5490565b6103b2565b565b600080516020610589833981519152546001600160a01b0316330361015b57610158816103d6565b50565b6101586100fe565b600080516020610589833981519152546001600160a01b031633036101fb5761018b836103d6565b6000836001600160a01b031683836040516101a7929190610578565b600060405180830381855af49150503d80600081146101e2576040519150601f19603f3d011682016040523d82523d6000602084013e6101e7565b606091505b50509050806101f557600080fd5b50505050565b6102036100fe565b505050565b60006102206000805160206105898339815191525490565b6001600160a01b0316330361025557507f360894a13ba1a3210667c828492db98dca3e2076cc3735a920a3ca505d382bbc5490565b61025d6100fe565b90565b600080516020610589833981519152546001600160a01b0316330361015b576001600160a01b0381166102f95760405162461bcd60e51b815260206004820152603660248201527f43616e6e6f74206368616e6765207468652061646d696e206f6620612070726f604482015275787920746f20746865207a65726f206164647265737360501b60648201526084015b60405180910390fd5b7f7e644d79422f17c01e4894b5f4f588d331ebfa28653d42ae832dc59e38c9798f6103306000805160206105898339815191525490565b604080516001600160a01b03928316815291841660208301520160405180910390a16101588160008051602061058983398151915255565b60006103806000805160206105898339815191525490565b6001600160a01b0316330361025557506000805160206105898339815191525490565b6001600160a01b03163b151590565b3660008037600080366000845af43d6000803e8080156103d1573d6000f35b3d6000fd5b6103df81610416565b6040516001600160a01b038216907fbc7cd75a20ee27fd9adebab32041f755214dbc6bffa90cc0225b39da2e5c2d3b90600090a250565b6001600160a01b0381163b6104935760405162461bcd60e51b815260206004820152603b60248201527f43616e6e6f742073657420612070726f787920696d706c656d656e746174696f60448201527f6e20746f2061206e6f6e2d636f6e74726163742061646472657373000000000060648201526084016102f0565b7f360894a13ba1a3210667c828492db98dca3e2076cc3735a920a3ca505d382bbc55565b80356001600160a01b03811681146104ce57600080fd5b919050565b6000602082840312156104e557600080fd5b6104ee826104b7565b9392505050565b60008060006040848603121561050a57600080fd5b610513846104b7565b9250602084013567ffffffffffffffff8082111561053057600080fd5b818601915086601f83011261054457600080fd5b81358181111561055357600080fd5b87602082850101111561056557600080fd5b6020830194508093505050509250925092565b818382376000910190815291905056feb53127684a568b3173ae13b9f8a6016e243e63b6e8ee1178d6a717850b5d6103a26469706673582212201247ea1a2ad59100c67468b059feaa48c2c2463619292b34a646025d4a3981f964736f6c634300080d0033b53127684a568b3173ae13b9f8a6016e243e63b6e8ee1178d6a717850b5d6103360894a13ba1a3210667c828492db98dca3e2076cc3735a920a3ca505d382bbc2dd96d0459d7a19d9973c629335d112af970ad4894b70919d288614388ef8eaea26469706673582212209629de71be88e91a76b1847b6a3e6d23a5582715f0408fb91bb4fecae212188064736f6c634300080d0033",
  "devdoc": {
    "kind": "dev",
    "methods": {
      "deployFNFTCollectionFactory(address,address,address)": {
        "params": {
          "_logic": "the implementation",
          "_vaultManager": "variable needed for FNFTCollectionFactory"
        }
      },
      "deployFNFTStaking(address,address)": {
        "params": {
          "_logic": "the implementation"
        }
      },
      "deployFeeDistributor(address,address,address,address)": {
        "params": {
          "_logic": "the implementation"
        }
      },
      "deployLPStaking(address,address,address)": {
        "params": {
          "_logic": "the implementation"
        }
      },
      "deployStakingTokenProvider(address,address,address,string)": {
        "params": {
          "_logic": "the implementation"
        }
      },
      "deployVaultManager(address,address)": {
        "params": {
          "_logic": "the implementation"
        }
      },
      "owner()": {
        "details": "Returns the address of the current owner."
      },
      "renounceOwnership()": {
        "details": "Leaves the contract without owner. It will not be possible to call `onlyOwner` functions anymore. Can only be called by the current owner. NOTE: Renouncing ownership will leave the contract without an owner, thereby removing any functionality that is only available to the owner."
      },
      "transferOwnership(address)": {
        "details": "Transfers ownership of the contract to a new account (`newOwner`). Can only be called by the current owner."
      }
    },
    "version": 1
  },
  "userdoc": {
    "kind": "user",
    "methods": {
      "deployFNFTCollectionFactory(address,address,address)": {
        "notice": "the function to deploy FNFTCollectionFactory"
      },
      "deployFNFTStaking(address,address)": {
        "notice": "the function to deploy FNFTStaking"
      },
      "deployFeeDistributor(address,address,address,address)": {
        "notice": "the function to deploy FeeDistributor"
      },
      "deployLPStaking(address,address,address)": {
        "notice": "the function to deploy LPStaking"
      },
      "deployStakingTokenProvider(address,address,address,string)": {
        "notice": "the function to deploy StakingTokenProvider"
      },
      "deployVaultManager(address,address)": {
        "notice": "the function to deploy FNFTCollectionFactory"
      }
    },
    "version": 1
  },
  "storageLayout": {
    "storage": [
      {
        "astId": 2934,
        "contract": "src/contracts/proxy/Deployer.sol:Deployer",
        "label": "_owner",
        "offset": 0,
        "slot": "0",
        "type": "t_address"
      },
      {
        "astId": 18681,
        "contract": "src/contracts/proxy/Deployer.sol:Deployer",
        "label": "proxyController",
        "offset": 0,
        "slot": "1",
        "type": "t_contract(IMultiProxyController)19207"
      }
    ],
    "types": {
      "t_address": {
        "encoding": "inplace",
        "label": "address",
        "numberOfBytes": "20"
      },
      "t_contract(IMultiProxyController)19207": {
        "encoding": "inplace",
        "label": "contract IMultiProxyController",
        "numberOfBytes": "20"
      }
    }
  }
}