{
  "address": "0xCBa54c632600FE46b79Db1DBfDDc6B1c00D1618d",
  "abi": [
    {
      "inputs": [],
      "name": "NotVaultManager",
      "type": "error"
    },
    {
      "inputs": [],
      "name": "OutOfBounds",
      "type": "error"
    },
    {
      "inputs": [],
      "name": "Paused",
      "type": "error"
    },
    {
      "inputs": [],
      "name": "Unauthorized",
      "type": "error"
    },
    {
      "inputs": [],
      "name": "ZeroAddress",
      "type": "error"
    },
    {
      "anonymous": false,
      "inputs": [
        {
          "indexed": false,
          "internalType": "bool",
          "name": "paused",
          "type": "bool"
        }
      ],
      "name": "DistributionPaused",
      "type": "event"
    },
    {
      "anonymous": false,
      "inputs": [
        {
          "indexed": false,
          "internalType": "address",
          "name": "newFNFTStaking",
          "type": "address"
        }
      ],
      "name": "FNFTStakingAddressUpdated",
      "type": "event"
    },
    {
      "anonymous": false,
      "inputs": [
        {
          "indexed": false,
          "internalType": "address",
          "name": "receiver",
          "type": "address"
        },
        {
          "indexed": false,
          "internalType": "uint256",
          "name": "allocPoint",
          "type": "uint256"
        }
      ],
      "name": "FeeReceiverAdded",
      "type": "event"
    },
    {
      "anonymous": false,
      "inputs": [
        {
          "indexed": false,
          "internalType": "address",
          "name": "oldReceiver",
          "type": "address"
        },
        {
          "indexed": false,
          "internalType": "address",
          "name": "newReceiver",
          "type": "address"
        }
      ],
      "name": "FeeReceiverAddressUpdated",
      "type": "event"
    },
    {
      "anonymous": false,
      "inputs": [
        {
          "indexed": false,
          "internalType": "address",
          "name": "receiver",
          "type": "address"
        },
        {
          "indexed": false,
          "internalType": "uint256",
          "name": "allocPoint",
          "type": "uint256"
        }
      ],
      "name": "FeeReceiverAllocUpdated",
      "type": "event"
    },
    {
      "anonymous": false,
      "inputs": [
        {
          "indexed": false,
          "internalType": "address",
          "name": "receiver",
          "type": "address"
        }
      ],
      "name": "FeeReceiverRemoved",
      "type": "event"
    },
    {
      "anonymous": false,
      "inputs": [
        {
          "indexed": false,
          "internalType": "uint8",
          "name": "version",
          "type": "uint8"
        }
      ],
      "name": "Initialized",
      "type": "event"
    },
    {
      "anonymous": false,
      "inputs": [
        {
          "indexed": false,
          "internalType": "address",
          "name": "newLPStaking",
          "type": "address"
        }
      ],
      "name": "LPStakingAddressUpdated",
      "type": "event"
    },
    {
      "anonymous": false,
      "inputs": [
        {
          "indexed": true,
          "internalType": "address",
          "name": "previousOwner",
          "type": "address"
        },
        {
          "indexed": true,
          "internalType": "address",
          "name": "newOwner",
          "type": "address"
        }
      ],
      "name": "OwnershipTransferred",
      "type": "event"
    },
    {
      "anonymous": false,
      "inputs": [
        {
          "indexed": false,
          "internalType": "address",
          "name": "addr",
          "type": "address"
        },
        {
          "indexed": false,
          "internalType": "bool",
          "name": "isGuardian",
          "type": "bool"
        }
      ],
      "name": "SetIsGuardian",
      "type": "event"
    },
    {
      "anonymous": false,
      "inputs": [
        {
          "indexed": false,
          "internalType": "uint256",
          "name": "lockId",
          "type": "uint256"
        },
        {
          "indexed": false,
          "internalType": "bool",
          "name": "paused",
          "type": "bool"
        }
      ],
      "name": "SetPaused",
      "type": "event"
    },
    {
      "anonymous": false,
      "inputs": [
        {
          "indexed": false,
          "internalType": "address",
          "name": "newTreasury",
          "type": "address"
        }
      ],
      "name": "TreasuryAddressUpdated",
      "type": "event"
    },
    {
      "inputs": [
        {
          "internalType": "address",
          "name": "_vaultManager",
          "type": "address"
        },
        {
          "internalType": "address",
          "name": "_lpStaking",
          "type": "address"
        },
        {
          "internalType": "address",
          "name": "_treasury",
          "type": "address"
        }
      ],
      "name": "__FeeDistributor_init",
      "outputs": [],
      "stateMutability": "nonpayable",
      "type": "function"
    },
    {
      "inputs": [
        {
          "internalType": "uint256",
          "name": "_allocPoint",
          "type": "uint256"
        },
        {
          "internalType": "address",
          "name": "_receiver",
          "type": "address"
        },
        {
          "internalType": "bool",
          "name": "_isContract",
          "type": "bool"
        }
      ],
      "name": "addReceiver",
      "outputs": [],
      "stateMutability": "nonpayable",
      "type": "function"
    },
    {
      "inputs": [],
      "name": "allocTotal",
      "outputs": [
        {
          "internalType": "uint256",
          "name": "",
          "type": "uint256"
        }
      ],
      "stateMutability": "view",
      "type": "function"
    },
    {
      "inputs": [
        {
          "internalType": "uint256",
          "name": "_receiverIdx",
          "type": "uint256"
        },
        {
          "internalType": "address",
          "name": "_address",
          "type": "address"
        },
        {
          "internalType": "bool",
          "name": "_isContract",
          "type": "bool"
        }
      ],
      "name": "changeReceiverAddress",
      "outputs": [],
      "stateMutability": "nonpayable",
      "type": "function"
    },
    {
      "inputs": [
        {
          "internalType": "uint256",
          "name": "_receiverIdx",
          "type": "uint256"
        },
        {
          "internalType": "uint256",
          "name": "_allocPoint",
          "type": "uint256"
        }
      ],
      "name": "changeReceiverAlloc",
      "outputs": [],
      "stateMutability": "nonpayable",
      "type": "function"
    },
    {
      "inputs": [
        {
          "internalType": "uint256",
          "name": "vaultId",
          "type": "uint256"
        }
      ],
      "name": "distribute",
      "outputs": [],
      "stateMutability": "nonpayable",
      "type": "function"
    },
    {
      "inputs": [],
      "name": "distributionPaused",
      "outputs": [
        {
          "internalType": "bool",
          "name": "",
          "type": "bool"
        }
      ],
      "stateMutability": "view",
      "type": "function"
    },
    {
      "inputs": [
        {
          "internalType": "uint256",
          "name": "",
          "type": "uint256"
        }
      ],
      "name": "feeReceivers",
      "outputs": [
        {
          "internalType": "uint256",
          "name": "allocPoint",
          "type": "uint256"
        },
        {
          "internalType": "address",
          "name": "receiver",
          "type": "address"
        },
        {
          "internalType": "bool",
          "name": "isContract",
          "type": "bool"
        }
      ],
      "stateMutability": "view",
      "type": "function"
    },
    {
      "inputs": [],
      "name": "fnftStaking",
      "outputs": [
        {
          "internalType": "contract IFNFTStaking",
          "name": "",
          "type": "address"
        }
      ],
      "stateMutability": "view",
      "type": "function"
    },
    {
      "inputs": [
        {
          "internalType": "uint256",
          "name": "_vaultId",
          "type": "uint256"
        }
      ],
      "name": "initializeVaultReceivers",
      "outputs": [],
      "stateMutability": "nonpayable",
      "type": "function"
    },
    {
      "inputs": [
        {
          "internalType": "address",
          "name": "",
          "type": "address"
        }
      ],
      "name": "isGuardian",
      "outputs": [
        {
          "internalType": "bool",
          "name": "",
          "type": "bool"
        }
      ],
      "stateMutability": "view",
      "type": "function"
    },
    {
      "inputs": [
        {
          "internalType": "uint256",
          "name": "",
          "type": "uint256"
        }
      ],
      "name": "isPaused",
      "outputs": [
        {
          "internalType": "bool",
          "name": "",
          "type": "bool"
        }
      ],
      "stateMutability": "view",
      "type": "function"
    },
    {
      "inputs": [],
      "name": "lpStaking",
      "outputs": [
        {
          "internalType": "contract ILPStaking",
          "name": "",
          "type": "address"
        }
      ],
      "stateMutability": "view",
      "type": "function"
    },
    {
      "inputs": [
        {
          "internalType": "uint256",
          "name": "lockId",
          "type": "uint256"
        }
      ],
      "name": "onlyOwnerIfPaused",
      "outputs": [],
      "stateMutability": "view",
      "type": "function"
    },
    {
      "inputs": [],
      "name": "owner",
      "outputs": [
        {
          "internalType": "address",
          "name": "",
          "type": "address"
        }
      ],
      "stateMutability": "view",
      "type": "function"
    },
    {
      "inputs": [
        {
          "internalType": "uint256",
          "name": "lockId",
          "type": "uint256"
        }
      ],
      "name": "pause",
      "outputs": [],
      "stateMutability": "nonpayable",
      "type": "function"
    },
    {
      "inputs": [
        {
          "internalType": "bool",
          "name": "_pause",
          "type": "bool"
        }
      ],
      "name": "pauseFeeDistribution",
      "outputs": [],
      "stateMutability": "nonpayable",
      "type": "function"
    },
    {
      "inputs": [
        {
          "internalType": "uint256",
          "name": "_receiverIdx",
          "type": "uint256"
        }
      ],
      "name": "removeReceiver",
      "outputs": [],
      "stateMutability": "nonpayable",
      "type": "function"
    },
    {
      "inputs": [],
      "name": "renounceOwnership",
      "outputs": [],
      "stateMutability": "nonpayable",
      "type": "function"
    },
    {
      "inputs": [
        {
          "internalType": "address",
          "name": "_address",
          "type": "address"
        }
      ],
      "name": "rescueTokens",
      "outputs": [],
      "stateMutability": "nonpayable",
      "type": "function"
    },
    {
      "inputs": [
        {
          "internalType": "address",
          "name": "_inventoryStaking",
          "type": "address"
        }
      ],
      "name": "setFNFTStakingAddress",
      "outputs": [],
      "stateMutability": "nonpayable",
      "type": "function"
    },
    {
      "inputs": [
        {
          "internalType": "address",
          "name": "_address",
          "type": "address"
        },
        {
          "internalType": "bool",
          "name": "_isGuardian",
          "type": "bool"
        }
      ],
      "name": "setIsGuardian",
      "outputs": [],
      "stateMutability": "nonpayable",
      "type": "function"
    },
    {
      "inputs": [
        {
          "internalType": "address",
          "name": "_lpStaking",
          "type": "address"
        }
      ],
      "name": "setLPStakingAddress",
      "outputs": [],
      "stateMutability": "nonpayable",
      "type": "function"
    },
    {
      "inputs": [
        {
          "internalType": "address",
          "name": "_treasury",
          "type": "address"
        }
      ],
      "name": "setTreasuryAddress",
      "outputs": [],
      "stateMutability": "nonpayable",
      "type": "function"
    },
    {
      "inputs": [
        {
          "internalType": "address",
          "name": "newOwner",
          "type": "address"
        }
      ],
      "name": "transferOwnership",
      "outputs": [],
      "stateMutability": "nonpayable",
      "type": "function"
    },
    {
      "inputs": [],
      "name": "treasury",
      "outputs": [
        {
          "internalType": "address",
          "name": "",
          "type": "address"
        }
      ],
      "stateMutability": "view",
      "type": "function"
    },
    {
      "inputs": [
        {
          "internalType": "uint256",
          "name": "lockId",
          "type": "uint256"
        }
      ],
      "name": "unpause",
      "outputs": [],
      "stateMutability": "nonpayable",
      "type": "function"
    },
    {
      "inputs": [],
      "name": "vaultManager",
      "outputs": [
        {
          "internalType": "contract IVaultManager",
          "name": "",
          "type": "address"
        }
      ],
      "stateMutability": "view",
      "type": "function"
    }
  ],
  "transactionHash": "0x82e79bab4df0e69669ca1d3574870b67cf734add118ed635da58792a5262e649",
  "args": [],
  "numDeployments": 1,
  "solcInputHash": "bf0ff9e6b7fc2e915dfac7a0da096a36",
  "bytecode": "0x608060405234801561001057600080fd5b50611ffa806100206000396000f3fe608060405234801561001057600080fd5b50600436106101c35760003560e01c8063715018a6116100f95780639bf1401c11610097578063bdf2a43c11610071578063bdf2a43c146103e5578063d46307dc14610408578063f2fde38b1461041b578063fabc1cbc1461042e57600080fd5b80639bf1401c146103ac578063aa463065146103bf578063af056847146103d257600080fd5b80638a4adf24116100d35780638a4adf24146103625780638c0fd23d146103755780638da5cb5b1461038857806391c05b0b1461039957600080fd5b8063715018a6146103345780637aed47c51461033c5780637c77b6161461034f57600080fd5b806336268aba116101665780634b0e250a116101405780634b0e250a146102c35780635b381760146102d657806361d027b31461030e5780636605bfda1461032157600080fd5b806336268aba1461027857806336d4d031146102a35780634912300d146102b657600080fd5b80630c68ba21116101a25780630c68ba211461020c578063136439dd1461023f57806319d3d2a41461025257806323845fb51461026557600080fd5b8062ae3bf8146101c857806303220d02146101dd57806308131951146101f0575b600080fd5b6101db6101d6366004611c38565b610441565b005b6101db6101eb366004611c63565b6104f9565b6101f9609e5481565b6040519081526020015b60405180910390f35b61022f61021a366004611c38565b60976020526000908152604090205460ff1681565b6040519015158152602001610203565b6101db61024d366004611ca5565b6105bb565b6101db610260366004611ca5565b610642565b6101db610273366004611cbe565b61073c565b609a5461028b906001600160a01b031681565b6040516001600160a01b039091168152602001610203565b6101db6102b1366004611c38565b6107c9565b609f5461022f9060ff1681565b6101db6102d1366004611c38565b610868565b6102e96102e4366004611ca5565b6108e0565b604080519384526001600160a01b039092166020840152151590820152606001610203565b609d5461028b906001600160a01b031681565b6101db61032f366004611c38565b610923565b6101db6109c2565b6101db61034a366004611cf7565b6109f8565b6101db61035d366004611ca5565b610ab2565b609c5461028b906001600160a01b031681565b6101db610383366004611d37565b610afc565b6065546001600160a01b031661028b565b6101db6103a7366004611ca5565b610b67565b609b5461028b906001600160a01b031681565b6101db6103cd366004611d54565b610f74565b6101db6103e0366004611ca5565b61106a565b61022f6103f3366004611ca5565b60986020526000908152604090205460ff1681565b6101db610416366004611c63565b611232565b6101db610429366004611c38565b61126c565b6101db61043c366004611ca5565b611304565b6065546001600160a01b031633146104745760405162461bcd60e51b815260040161046b90611d76565b60405180910390fd5b6040516370a0823160e01b81523060048201526000906001600160a01b038316906370a0823190602401602060405180830381865afa1580156104bb573d6000803e3d6000fd5b505050506040513d601f19601f820116820180604052508101906104df9190611dab565b90506104f56001600160a01b038316338361137b565b5050565b6065546001600160a01b031633146105235760405162461bcd60e51b815260040161046b90611d76565b60006099848154811061053857610538611dc4565b60009182526020918290206002909102016001810180546001600160a01b038781166001600160a81b031983168117600160a01b89151502179093556040805191909216808252948101929092529193507fa777df456b931c361201099ca2001cf4ce499f752929ca8c15a2a249404a31a2910160405180910390a15050505050565b3360009081526097602052604090205460ff166105ea576040516282b42960e81b815260040160405180910390fd5b600081815260986020908152604091829020805460ff191660019081179091558251848152918201527f77f1fcfcce67dc392d64f842056d2ec06c80986c47c910f7e79c5b23a2738d7491015b60405180910390a150565b609c546001600160a01b0316331461066d5760405163027f480760e01b815260040160405180910390fd5b609b546040516387a6753f60e01b8152600481018390526001600160a01b03909116906387a6753f90602401600060405180830381600087803b1580156106b357600080fd5b505af11580156106c7573d6000803e3d6000fd5b5050609a546001600160a01b031691505080156104f55760405163f0f2a4d760e01b8152600481018390526001600160a01b0382169063f0f2a4d790602401600060405180830381600087803b15801561072057600080fd5b505af1158015610734573d6000803e3d6000fd5b505050505050565b6065546001600160a01b031633146107665760405162461bcd60e51b815260040161046b90611d76565b6001600160a01b038216600081815260976020908152604091829020805460ff19168515159081179091558251938452908301527fd0b6b573d5442f7c29fd50d9735ae341581c25c6ed07748d50eda519f1ffa88a910160405180910390a15050565b6065546001600160a01b031633146107f35760405162461bcd60e51b815260040161046b90611d76565b6001600160a01b03811661081a5760405163d92e233d60e01b815260040160405180910390fd5b609b80546001600160a01b0319166001600160a01b0383169081179091556040519081527f81a6180e8a601bd225748dee178467d71366ce9ce97f81a32d5d7fe398c52f8690602001610637565b6065546001600160a01b031633146108925760405162461bcd60e51b815260040161046b90611d76565b609a80546001600160a01b0319166001600160a01b0383169081179091556040519081527fe77ded5dbd83f061fad127b25ce96405795eee3e9781550ee6a7e27adb5bdeac90602001610637565b609981815481106108f057600080fd5b6000918252602090912060029091020180546001909101549091506001600160a01b03811690600160a01b900460ff1683565b6065546001600160a01b0316331461094d5760405162461bcd60e51b815260040161046b90611d76565b6001600160a01b0381166109745760405163d92e233d60e01b815260040160405180910390fd5b609d80546001600160a01b0319166001600160a01b0383169081179091556040519081527fb6a5e89655cf506139085f051af608195ed056f8dc550b180a1c38d401e2b6c490602001610637565b6065546001600160a01b031633146109ec5760405162461bcd60e51b815260040161046b90611d76565b6109f660006113de565b565b6000610a046001611430565b90508015610a1c576000805461ff0019166101001790555b610a246114b8565b609c80546001600160a01b0319166001600160a01b038616179055610a4882610923565b610a51836107c9565b610a65670b1a2bc2ec500000846001611526565b8015610aac576000805461ff0019169055604051600181527f7f26b83ff96e1f2b6a682f133852f6798a09c465da95921460cefb3847402498906020015b60405180910390a15b50505050565b60008181526098602052604090205460ff168015610adb57506065546001600160a01b03163314155b15610af9576040516313d0ff5960e31b815260040160405180910390fd5b50565b6065546001600160a01b03163314610b265760405162461bcd60e51b815260040161046b90611d76565b609f805460ff19168215159081179091556040519081527f41cbf6951a9357698e34cd1b958ca104f937fcd0e1bee7b3c98552ad3b67394e90602001610637565b600260015403610bb95760405162461bcd60e51b815260206004820152601f60248201527f5265656e7472616e637947756172643a207265656e7472616e742063616c6c00604482015260640161046b565b6002600155609c546001600160a01b031680610be85760405163d92e233d60e01b815260040160405180910390fd5b6040516340d1b7db60e11b8152600481018390526000906001600160a01b038316906381a36fb690602401602060405180830381865afa158015610c30573d6000803e3d6000fd5b505050506040513d601f19601f82011682018060405250810190610c549190611dda565b6040516370a0823160e01b81523060048201529091506000906001600160a01b038316906370a0823190602401602060405180830381865afa158015610c9e573d6000803e3d6000fd5b505050506040513d601f19601f82011682018060405250810190610cc29190611dab565b609f5490915060ff1680610cd65750609e54155b15610cfd57609d54610cf5906001600160a01b0384811691168361137b565b505050610f6d565b6099546000805b82811015610ed657600060998281548110610d2157610d21611dc4565b600091825260208083206040805160608101825260029490940290910180548085526001909101546001600160a01b03811693850193909352600160a01b90920460ff16151590830152609e54919350610d7b9088611e0d565b610d859190611e2c565b610d8f9085611e4e565b6040516370a0823160e01b81523060048201529091506000906001600160a01b038916906370a0823190602401602060405180830381865afa158015610dd9573d6000803e3d6000fd5b505050506040513d601f19601f82011682018060405250810190610dfd9190611dab565b9050808211610e0c5781610e0e565b805b91506000610e1e848c8b8661162d565b905080610ec2576020840151604051636eb1769f60e11b81523060048201526001600160a01b0391821660248201526000918b169063dd62ed3e90604401602060405180830381865afa158015610e79573d6000803e3d6000fd5b505050506040513d601f19601f82011682018060405250810190610e9d9190611dab565b6020860151909150610ebb906001600160a01b038c169060006117a8565b9550610ec7565b600095505b84600101945050505050610d04565b508015610f67576040516370a0823160e01b81523060048201526000906001600160a01b038616906370a0823190602401602060405180830381865afa158015610f24573d6000803e3d6000fd5b505050506040513d601f19601f82011682018060405250810190610f489190611dab565b609d54909150610f65906001600160a01b0387811691168361137b565b505b50505050505b5060018055565b6065546001600160a01b03163314610f9e5760405162461bcd60e51b815260040161046b90611d76565b6099548210610fc057604051632d0483c560e21b815260040160405180910390fd5b600060998381548110610fd557610fd5611dc4565b906000526020600020906002020190508060000154609e6000828254610ffb9190611e66565b9091555050818155609e8054839190600090611018908490611e4e565b90915550506001810154604080516001600160a01b039092168252602082018490527feae8d9c3322ef0a2a8e8e24b0b6d30e833469d9a0e49ea300d046053722b4d8e910160405180910390a1505050565b6065546001600160a01b031633146110945760405162461bcd60e51b815260040161046b90611d76565b6099548082106110b757604051632d0483c560e21b815260040160405180910390fd5b7e94fd595ea1ef0058d99689855731820b3e34da9f1c0e06309c0fd580a78cdf609983815481106110ea576110ea611dc4565b6000918252602091829020600290910201600101546040516001600160a01b0390911681520160405180910390a16099828154811061112b5761112b611dc4565b906000526020600020906002020160000154609e600082825461114e9190611e66565b9091555060999050611161600183611e66565b8154811061117157611171611dc4565b90600052602060002090600202016099838154811061119257611192611dc4565b600091825260209091208254600290920201908155600191820180549290910180546001600160a01b031981166001600160a01b039094169384178255915460ff600160a01b91829004161515026001600160a81b0319909216909217179055609980548061120357611203611e7d565b60008281526020812060026000199093019283020190815560010180546001600160a81b031916905590555050565b6065546001600160a01b0316331461125c5760405162461bcd60e51b815260040161046b90611d76565b611267838383611526565b505050565b6065546001600160a01b031633146112965760405162461bcd60e51b815260040161046b90611d76565b6001600160a01b0381166112fb5760405162461bcd60e51b815260206004820152602660248201527f4f776e61626c653a206e6577206f776e657220697320746865207a65726f206160448201526564647265737360d01b606482015260840161046b565b610af9816113de565b6065546001600160a01b0316331461132e5760405162461bcd60e51b815260040161046b90611d76565b6000818152609860209081526040808320805460ff191690558051848152918201929092527f77f1fcfcce67dc392d64f842056d2ec06c80986c47c910f7e79c5b23a2738d749101610637565b6040516001600160a01b03831660248201526044810182905261126790849063a9059cbb60e01b906064015b60408051601f198184030181529190526020810180516001600160e01b03166001600160e01b0319909316929092179091526118bd565b606580546001600160a01b038381166001600160a01b0319831681179093556040519116919082907f8be0079c531659141344cd1fd0a4f28419497f9722a3daafe3b4186f6b6457e090600090a35050565b60008054610100900460ff1615611477578160ff1660011480156114535750303b155b61146f5760405162461bcd60e51b815260040161046b90611e93565b506000919050565b60005460ff80841691161061149e5760405162461bcd60e51b815260040161046b90611e93565b506000805460ff191660ff92909216919091179055600190565b60006114c46001611430565b905080156114dc576000805461ff0019166101001790555b6114e461198f565b8015610af9576000805461ff0019169055604051600181527f7f26b83ff96e1f2b6a682f133852f6798a09c465da95921460cefb384740249890602001610637565b604080516060810182528481526001600160a01b038481166020830190815284151593830193845260998054600181018255600091825284517f72a152ddfb8e864297c917af52ea6c1c68aead0fee1a62673fcc7e0c94979d0060029092029182015591517f72a152ddfb8e864297c917af52ea6c1c68aead0fee1a62673fcc7e0c94979d0190920180549551929093166001600160a81b031990951694909417600160a01b91151591909102179055609e8054919286926115e9908490611e4e565b9091555050604080516001600160a01b0385168152602081018690527f89e432f5d9ae20dfadcd83bf53ebf326ff4da87fc41ea941328c513f254cffdc9101610aa3565b6000846040015115611782576020850151611653906001600160a01b03851690846119be565b604080516024810186905260448082018590528251808303909101815260649091018252602080820180516001600160e01b03166379b6a96d60e11b179052870151915190916000916001600160a01b03909116906116b3908490611f0d565b6000604051808303816000865af19150503d80600081146116f0576040519150601f19603f3d011682016040523d82523d6000602084013e6116f5565b606091505b5050905080801561177957506020870151604051636eb1769f60e11b81523060048201526001600160a01b0391821660248201529086169063dd62ed3e90604401602060405180830381865afa158015611753573d6000803e3d6000fd5b505050506040513d601f19601f820116820180604052508101906117779190611dab565b155b925050506117a0565b602085015161179c906001600160a01b038516908461137b565b5060015b949350505050565b8015806118225750604051636eb1769f60e11b81523060048201526001600160a01b03838116602483015284169063dd62ed3e90604401602060405180830381865afa1580156117fc573d6000803e3d6000fd5b505050506040513d601f19601f820116820180604052508101906118209190611dab565b155b61188d5760405162461bcd60e51b815260206004820152603660248201527f5361666545524332303a20617070726f76652066726f6d206e6f6e2d7a65726f60448201527520746f206e6f6e2d7a65726f20616c6c6f77616e636560501b606482015260840161046b565b6040516001600160a01b03831660248201526044810182905261126790849063095ea7b360e01b906064016113a7565b6000611912826040518060400160405280602081526020017f5361666545524332303a206c6f772d6c6576656c2063616c6c206661696c6564815250856001600160a01b0316611a709092919063ffffffff16565b80519091501561126757808060200190518101906119309190611f29565b6112675760405162461bcd60e51b815260206004820152602a60248201527f5361666545524332303a204552433230206f7065726174696f6e20646964206e6044820152691bdd081cdd58d8d9595960b21b606482015260840161046b565b600054610100900460ff166119b65760405162461bcd60e51b815260040161046b90611f46565b6109f6611a89565b604051636eb1769f60e11b81523060048201526001600160a01b038381166024830152600091839186169063dd62ed3e90604401602060405180830381865afa158015611a0f573d6000803e3d6000fd5b505050506040513d601f19601f82011682018060405250810190611a339190611dab565b611a3d9190611e4e565b6040516001600160a01b038516602482015260448101829052909150610aac90859063095ea7b360e01b906064016113a7565b6060611a7f8484600085611ab9565b90505b9392505050565b600054610100900460ff16611ab05760405162461bcd60e51b815260040161046b90611f46565b6109f6336113de565b606082471015611b1a5760405162461bcd60e51b815260206004820152602660248201527f416464726573733a20696e73756666696369656e742062616c616e636520666f6044820152651c8818d85b1b60d21b606482015260840161046b565b6001600160a01b0385163b611b715760405162461bcd60e51b815260206004820152601d60248201527f416464726573733a2063616c6c20746f206e6f6e2d636f6e7472616374000000604482015260640161046b565b600080866001600160a01b03168587604051611b8d9190611f0d565b60006040518083038185875af1925050503d8060008114611bca576040519150601f19603f3d011682016040523d82523d6000602084013e611bcf565b606091505b5091509150611bdf828286611bea565b979650505050505050565b60608315611bf9575081611a82565b825115611c095782518084602001fd5b8160405162461bcd60e51b815260040161046b9190611f91565b6001600160a01b0381168114610af957600080fd5b600060208284031215611c4a57600080fd5b8135611a8281611c23565b8015158114610af957600080fd5b600080600060608486031215611c7857600080fd5b833592506020840135611c8a81611c23565b91506040840135611c9a81611c55565b809150509250925092565b600060208284031215611cb757600080fd5b5035919050565b60008060408385031215611cd157600080fd5b8235611cdc81611c23565b91506020830135611cec81611c55565b809150509250929050565b600080600060608486031215611d0c57600080fd5b8335611d1781611c23565b92506020840135611d2781611c23565b91506040840135611c9a81611c23565b600060208284031215611d4957600080fd5b8135611a8281611c55565b60008060408385031215611d6757600080fd5b50508035926020909101359150565b6020808252818101527f4f776e61626c653a2063616c6c6572206973206e6f7420746865206f776e6572604082015260600190565b600060208284031215611dbd57600080fd5b5051919050565b634e487b7160e01b600052603260045260246000fd5b600060208284031215611dec57600080fd5b8151611a8281611c23565b634e487b7160e01b600052601160045260246000fd5b6000816000190483118215151615611e2757611e27611df7565b500290565b600082611e4957634e487b7160e01b600052601260045260246000fd5b500490565b60008219821115611e6157611e61611df7565b500190565b600082821015611e7857611e78611df7565b500390565b634e487b7160e01b600052603160045260246000fd5b6020808252602e908201527f496e697469616c697a61626c653a20636f6e747261637420697320616c72656160408201526d191e481a5b9a5d1a585b1a5e995960921b606082015260800190565b60005b83811015611efc578181015183820152602001611ee4565b83811115610aac5750506000910152565b60008251611f1f818460208701611ee1565b9190910192915050565b600060208284031215611f3b57600080fd5b8151611a8281611c55565b6020808252602b908201527f496e697469616c697a61626c653a20636f6e7472616374206973206e6f74206960408201526a6e697469616c697a696e6760a81b606082015260800190565b6020815260008251806020840152611fb0816040850160208701611ee1565b601f01601f1916919091016040019291505056fea2646970667358221220891367ba8221429a5a6fe314d063f0e2c765444c3d0926f5511db4c046b2bc0c64736f6c634300080d0033",
  "devdoc": {
    "kind": "dev",
    "methods": {
      "owner()": {
        "details": "Returns the address of the current owner."
      },
      "renounceOwnership()": {
        "details": "Leaves the contract without owner. It will not be possible to call `onlyOwner` functions anymore. Can only be called by the current owner. NOTE: Renouncing ownership will leave the contract without an owner, thereby removing any functionality that is only available to the owner."
      },
      "transferOwnership(address)": {
        "details": "Transfers ownership of the contract to a new account (`newOwner`). Can only be called by the current owner."
      }
    },
    "version": 1
  },
  "userdoc": {
    "kind": "user",
    "methods": {},
    "version": 1
  },
  "storageLayout": {
    "storage": [
      {
        "astId": 274,
        "contract": "src/contracts/FeeDistributor.sol:FeeDistributor",
        "label": "_initialized",
        "offset": 0,
        "slot": "0",
        "type": "t_uint8"
      },
      {
        "astId": 277,
        "contract": "src/contracts/FeeDistributor.sol:FeeDistributor",
        "label": "_initializing",
        "offset": 1,
        "slot": "0",
        "type": "t_bool"
      },
      {
        "astId": 534,
        "contract": "src/contracts/FeeDistributor.sol:FeeDistributor",
        "label": "_status",
        "offset": 0,
        "slot": "1",
        "type": "t_uint256"
      },
      {
        "astId": 578,
        "contract": "src/contracts/FeeDistributor.sol:FeeDistributor",
        "label": "__gap",
        "offset": 0,
        "slot": "2",
        "type": "t_array(t_uint256)49_storage"
      },
      {
        "astId": 2270,
        "contract": "src/contracts/FeeDistributor.sol:FeeDistributor",
        "label": "__gap",
        "offset": 0,
        "slot": "51",
        "type": "t_array(t_uint256)50_storage"
      },
      {
        "astId": 10,
        "contract": "src/contracts/FeeDistributor.sol:FeeDistributor",
        "label": "_owner",
        "offset": 0,
        "slot": "101",
        "type": "t_address"
      },
      {
        "astId": 122,
        "contract": "src/contracts/FeeDistributor.sol:FeeDistributor",
        "label": "__gap",
        "offset": 0,
        "slot": "102",
        "type": "t_array(t_uint256)49_storage"
      },
      {
        "astId": 21677,
        "contract": "src/contracts/FeeDistributor.sol:FeeDistributor",
        "label": "isGuardian",
        "offset": 0,
        "slot": "151",
        "type": "t_mapping(t_address,t_bool)"
      },
      {
        "astId": 21681,
        "contract": "src/contracts/FeeDistributor.sol:FeeDistributor",
        "label": "isPaused",
        "offset": 0,
        "slot": "152",
        "type": "t_mapping(t_uint256,t_bool)"
      },
      {
        "astId": 11461,
        "contract": "src/contracts/FeeDistributor.sol:FeeDistributor",
        "label": "feeReceivers",
        "offset": 0,
        "slot": "153",
        "type": "t_array(t_struct(FeeReceiver)16099_storage)dyn_storage"
      },
      {
        "astId": 11465,
        "contract": "src/contracts/FeeDistributor.sol:FeeDistributor",
        "label": "fnftStaking",
        "offset": 0,
        "slot": "154",
        "type": "t_contract(IFNFTStaking)16087"
      },
      {
        "astId": 11469,
        "contract": "src/contracts/FeeDistributor.sol:FeeDistributor",
        "label": "lpStaking",
        "offset": 0,
        "slot": "155",
        "type": "t_contract(ILPStaking)16530"
      },
      {
        "astId": 11473,
        "contract": "src/contracts/FeeDistributor.sol:FeeDistributor",
        "label": "vaultManager",
        "offset": 0,
        "slot": "156",
        "type": "t_contract(IVaultManager)17110"
      },
      {
        "astId": 11476,
        "contract": "src/contracts/FeeDistributor.sol:FeeDistributor",
        "label": "treasury",
        "offset": 0,
        "slot": "157",
        "type": "t_address"
      },
      {
        "astId": 11479,
        "contract": "src/contracts/FeeDistributor.sol:FeeDistributor",
        "label": "allocTotal",
        "offset": 0,
        "slot": "158",
        "type": "t_uint256"
      },
      {
        "astId": 11482,
        "contract": "src/contracts/FeeDistributor.sol:FeeDistributor",
        "label": "distributionPaused",
        "offset": 0,
        "slot": "159",
        "type": "t_bool"
      }
    ],
    "types": {
      "t_address": {
        "encoding": "inplace",
        "label": "address",
        "numberOfBytes": "20"
      },
      "t_array(t_struct(FeeReceiver)16099_storage)dyn_storage": {
        "base": "t_struct(FeeReceiver)16099_storage",
        "encoding": "dynamic_array",
        "label": "struct IFeeDistributor.FeeReceiver[]",
        "numberOfBytes": "32"
      },
      "t_array(t_uint256)49_storage": {
        "base": "t_uint256",
        "encoding": "inplace",
        "label": "uint256[49]",
        "numberOfBytes": "1568"
      },
      "t_array(t_uint256)50_storage": {
        "base": "t_uint256",
        "encoding": "inplace",
        "label": "uint256[50]",
        "numberOfBytes": "1600"
      },
      "t_bool": {
        "encoding": "inplace",
        "label": "bool",
        "numberOfBytes": "1"
      },
      "t_contract(IFNFTStaking)16087": {
        "encoding": "inplace",
        "label": "contract IFNFTStaking",
        "numberOfBytes": "20"
      },
      "t_contract(ILPStaking)16530": {
        "encoding": "inplace",
        "label": "contract ILPStaking",
        "numberOfBytes": "20"
      },
      "t_contract(IVaultManager)17110": {
        "encoding": "inplace",
        "label": "contract IVaultManager",
        "numberOfBytes": "20"
      },
      "t_mapping(t_address,t_bool)": {
        "encoding": "mapping",
        "key": "t_address",
        "label": "mapping(address => bool)",
        "numberOfBytes": "32",
        "value": "t_bool"
      },
      "t_mapping(t_uint256,t_bool)": {
        "encoding": "mapping",
        "key": "t_uint256",
        "label": "mapping(uint256 => bool)",
        "numberOfBytes": "32",
        "value": "t_bool"
      },
      "t_struct(FeeReceiver)16099_storage": {
        "encoding": "inplace",
        "label": "struct IFeeDistributor.FeeReceiver",
        "members": [
          {
            "astId": 16094,
            "contract": "src/contracts/FeeDistributor.sol:FeeDistributor",
            "label": "allocPoint",
            "offset": 0,
            "slot": "0",
            "type": "t_uint256"
          },
          {
            "astId": 16096,
            "contract": "src/contracts/FeeDistributor.sol:FeeDistributor",
            "label": "receiver",
            "offset": 0,
            "slot": "1",
            "type": "t_address"
          },
          {
            "astId": 16098,
            "contract": "src/contracts/FeeDistributor.sol:FeeDistributor",
            "label": "isContract",
            "offset": 20,
            "slot": "1",
            "type": "t_bool"
          }
        ],
        "numberOfBytes": "64"
      },
      "t_uint256": {
        "encoding": "inplace",
        "label": "uint256",
        "numberOfBytes": "32"
      },
      "t_uint8": {
        "encoding": "inplace",
        "label": "uint8",
        "numberOfBytes": "1"
      }
    }
  }
}