{
  "address": "0xcC78E0c77A8041Dd224dfb0A867ED2B00b9C5441",
  "abi": [
    {
      "inputs": [],
      "name": "AuctionEnded",
      "type": "error"
    },
    {
      "inputs": [],
      "name": "AuctionLive",
      "type": "error"
    },
    {
      "inputs": [],
      "name": "AuctionNotEnded",
      "type": "error"
    },
    {
      "inputs": [],
      "name": "AuctionNotLive",
      "type": "error"
    },
    {
      "inputs": [],
      "name": "BidDisabled",
      "type": "error"
    },
    {
      "inputs": [],
      "name": "BidEnabled",
      "type": "error"
    },
    {
      "inputs": [],
      "name": "BidTooLow",
      "type": "error"
    },
    {
      "inputs": [],
      "name": "EligibilityAlreadySet",
      "type": "error"
    },
    {
      "inputs": [],
      "name": "ExceedsMaxFlashLoan",
      "type": "error"
    },
    {
      "inputs": [],
      "name": "FeeTooHigh",
      "type": "error"
    },
    {
      "inputs": [],
      "name": "FlashLoanNotRepaid",
      "type": "error"
    },
    {
      "inputs": [],
      "name": "IneligibleNFTs",
      "type": "error"
    },
    {
      "inputs": [],
      "name": "InvalidAuctionLength",
      "type": "error"
    },
    {
      "inputs": [],
      "name": "InvalidFlashLoanReturnValue",
      "type": "error"
    },
    {
      "inputs": [],
      "name": "InvalidToken",
      "type": "error"
    },
    {
      "inputs": [],
      "name": "MintDisabled",
      "type": "error"
    },
    {
      "inputs": [],
      "name": "NFTAlreadyInCollection",
      "type": "error"
    },
    {
      "inputs": [],
      "name": "NotCurator",
      "type": "error"
    },
    {
      "inputs": [],
      "name": "NotInVault",
      "type": "error"
    },
    {
      "inputs": [],
      "name": "NotNFTOwner",
      "type": "error"
    },
    {
      "inputs": [],
      "name": "NotOwner",
      "type": "error"
    },
    {
      "inputs": [],
      "name": "Paused",
      "type": "error"
    },
    {
      "inputs": [],
      "name": "RandomRedeemDisabled",
      "type": "error"
    },
    {
      "inputs": [],
      "name": "RandomSwapDisabled",
      "type": "error"
    },
    {
      "inputs": [],
      "name": "SameCurator",
      "type": "error"
    },
    {
      "inputs": [],
      "name": "TargetRedeemDisabled",
      "type": "error"
    },
    {
      "inputs": [],
      "name": "TargetSwapDisabled",
      "type": "error"
    },
    {
      "inputs": [],
      "name": "TooManyNFTs",
      "type": "error"
    },
    {
      "inputs": [],
      "name": "ZeroAddress",
      "type": "error"
    },
    {
      "inputs": [],
      "name": "ZeroTransferAmount",
      "type": "error"
    },
    {
      "anonymous": false,
      "inputs": [
        {
          "indexed": true,
          "internalType": "address",
          "name": "owner",
          "type": "address"
        },
        {
          "indexed": true,
          "internalType": "address",
          "name": "spender",
          "type": "address"
        },
        {
          "indexed": false,
          "internalType": "uint256",
          "name": "value",
          "type": "uint256"
        }
      ],
      "name": "Approval",
      "type": "event"
    },
    {
      "anonymous": false,
      "inputs": [
        {
          "indexed": false,
          "internalType": "uint256",
          "name": "length",
          "type": "uint256"
        }
      ],
      "name": "AuctionLengthUpdated",
      "type": "event"
    },
    {
      "anonymous": false,
      "inputs": [
        {
          "indexed": true,
          "internalType": "address",
          "name": "buyer",
          "type": "address"
        },
        {
          "indexed": false,
          "internalType": "uint256",
          "name": "tokenId",
          "type": "uint256"
        },
        {
          "indexed": false,
          "internalType": "uint256",
          "name": "price",
          "type": "uint256"
        }
      ],
      "name": "AuctionStarted",
      "type": "event"
    },
    {
      "anonymous": false,
      "inputs": [
        {
          "indexed": true,
          "internalType": "address",
          "name": "buyer",
          "type": "address"
        },
        {
          "indexed": false,
          "internalType": "uint256",
          "name": "tokenId",
          "type": "uint256"
        },
        {
          "indexed": false,
          "internalType": "uint256",
          "name": "price",
          "type": "uint256"
        }
      ],
      "name": "AuctionWon",
      "type": "event"
    },
    {
      "anonymous": false,
      "inputs": [
        {
          "indexed": true,
          "internalType": "address",
          "name": "buyer",
          "type": "address"
        },
        {
          "indexed": false,
          "internalType": "uint256",
          "name": "tokenId",
          "type": "uint256"
        },
        {
          "indexed": false,
          "internalType": "uint256",
          "name": "price",
          "type": "uint256"
        }
      ],
      "name": "BidMade",
      "type": "event"
    },
    {
      "anonymous": false,
      "inputs": [
        {
          "indexed": false,
          "internalType": "address",
          "name": "oldCurator",
          "type": "address"
        },
        {
          "indexed": false,
          "internalType": "address",
          "name": "newCurator",
          "type": "address"
        }
      ],
      "name": "CuratorUpdated",
      "type": "event"
    },
    {
      "anonymous": false,
      "inputs": [
        {
          "indexed": false,
          "internalType": "uint256",
          "name": "moduleIndex",
          "type": "uint256"
        },
        {
          "indexed": false,
          "internalType": "address",
          "name": "eligibilityAddr",
          "type": "address"
        }
      ],
      "name": "EligibilityDeployed",
      "type": "event"
    },
    {
      "anonymous": false,
      "inputs": [
        {
          "indexed": false,
          "internalType": "uint8",
          "name": "version",
          "type": "uint8"
        }
      ],
      "name": "Initialized",
      "type": "event"
    },
    {
      "anonymous": false,
      "inputs": [
        {
          "indexed": false,
          "internalType": "uint256[]",
          "name": "nftIds",
          "type": "uint256[]"
        },
        {
          "indexed": false,
          "internalType": "uint256[]",
          "name": "amounts",
          "type": "uint256[]"
        },
        {
          "indexed": false,
          "internalType": "address",
          "name": "to",
          "type": "address"
        }
      ],
      "name": "Minted",
      "type": "event"
    },
    {
      "anonymous": false,
      "inputs": [
        {
          "indexed": true,
          "internalType": "address",
          "name": "previousOwner",
          "type": "address"
        },
        {
          "indexed": true,
          "internalType": "address",
          "name": "newOwner",
          "type": "address"
        }
      ],
      "name": "OwnershipTransferred",
      "type": "event"
    },
    {
      "anonymous": false,
      "inputs": [
        {
          "indexed": false,
          "internalType": "uint256[]",
          "name": "nftIds",
          "type": "uint256[]"
        },
        {
          "indexed": false,
          "internalType": "uint256[]",
          "name": "specificIds",
          "type": "uint256[]"
        },
        {
          "indexed": false,
          "internalType": "address",
          "name": "to",
          "type": "address"
        }
      ],
      "name": "Redeemed",
      "type": "event"
    },
    {
      "anonymous": false,
      "inputs": [
        {
          "indexed": false,
          "internalType": "uint256[]",
          "name": "nftIds",
          "type": "uint256[]"
        },
        {
          "indexed": false,
          "internalType": "uint256[]",
          "name": "amounts",
          "type": "uint256[]"
        },
        {
          "indexed": false,
          "internalType": "uint256[]",
          "name": "specificIds",
          "type": "uint256[]"
        },
        {
          "indexed": false,
          "internalType": "uint256[]",
          "name": "redeemedIds",
          "type": "uint256[]"
        },
        {
          "indexed": false,
          "internalType": "address",
          "name": "to",
          "type": "address"
        }
      ],
      "name": "Swapped",
      "type": "event"
    },
    {
      "anonymous": false,
      "inputs": [
        {
          "indexed": true,
          "internalType": "address",
          "name": "from",
          "type": "address"
        },
        {
          "indexed": true,
          "internalType": "address",
          "name": "to",
          "type": "address"
        },
        {
          "indexed": false,
          "internalType": "uint256",
          "name": "value",
          "type": "uint256"
        }
      ],
      "name": "Transfer",
      "type": "event"
    },
    {
      "anonymous": false,
      "inputs": [
        {
          "indexed": false,
          "internalType": "bool",
          "name": "enableMint",
          "type": "bool"
        },
        {
          "indexed": false,
          "internalType": "bool",
          "name": "enableRandomRedeem",
          "type": "bool"
        },
        {
          "indexed": false,
          "internalType": "bool",
          "name": "enableTargetRedeem",
          "type": "bool"
        },
        {
          "indexed": false,
          "internalType": "bool",
          "name": "enableRandomSwap",
          "type": "bool"
        },
        {
          "indexed": false,
          "internalType": "bool",
          "name": "enableTargetSwap",
          "type": "bool"
        },
        {
          "indexed": false,
          "internalType": "bool",
          "name": "enableBid",
          "type": "bool"
        }
      ],
      "name": "VaultFeaturesUpdated",
      "type": "event"
    },
    {
      "anonymous": false,
      "inputs": [
        {
          "indexed": true,
          "internalType": "uint256",
          "name": "vaultId",
          "type": "uint256"
        },
        {
          "indexed": false,
          "internalType": "address",
          "name": "assetAddress",
          "type": "address"
        },
        {
          "indexed": false,
          "internalType": "bool",
          "name": "is1155",
          "type": "bool"
        },
        {
          "indexed": false,
          "internalType": "bool",
          "name": "allowAllItems",
          "type": "bool"
        }
      ],
      "name": "VaultInit",
      "type": "event"
    },
    {
      "anonymous": false,
      "inputs": [
        {
          "indexed": false,
          "internalType": "address",
          "name": "assetAddress",
          "type": "address"
        },
        {
          "indexed": false,
          "internalType": "uint256",
          "name": "numItems",
          "type": "uint256"
        },
        {
          "indexed": false,
          "internalType": "address",
          "name": "recipient",
          "type": "address"
        }
      ],
      "name": "VaultShutdown",
      "type": "event"
    },
    {
      "inputs": [],
      "name": "BASE",
      "outputs": [
        {
          "internalType": "uint256",
          "name": "",
          "type": "uint256"
        }
      ],
      "stateMutability": "view",
      "type": "function"
    },
    {
      "inputs": [
        {
          "internalType": "string",
          "name": "_name",
          "type": "string"
        },
        {
          "internalType": "string",
          "name": "_symbol",
          "type": "string"
        },
        {
          "internalType": "address",
          "name": "_curator",
          "type": "address"
        },
        {
          "internalType": "address",
          "name": "_assetAddress",
          "type": "address"
        },
        {
          "internalType": "bool",
          "name": "_is1155",
          "type": "bool"
        },
        {
          "internalType": "bool",
          "name": "_allowAllItems",
          "type": "bool"
        }
      ],
      "name": "__FNFTCollection_init",
      "outputs": [],
      "stateMutability": "nonpayable",
      "type": "function"
    },
    {
      "inputs": [],
      "name": "allHoldings",
      "outputs": [
        {
          "internalType": "uint256[]",
          "name": "",
          "type": "uint256[]"
        }
      ],
      "stateMutability": "view",
      "type": "function"
    },
    {
      "inputs": [
        {
          "internalType": "uint256[]",
          "name": "tokenIds",
          "type": "uint256[]"
        }
      ],
      "name": "allValidNFTs",
      "outputs": [
        {
          "internalType": "bool",
          "name": "",
          "type": "bool"
        }
      ],
      "stateMutability": "view",
      "type": "function"
    },
    {
      "inputs": [],
      "name": "allowAllItems",
      "outputs": [
        {
          "internalType": "bool",
          "name": "",
          "type": "bool"
        }
      ],
      "stateMutability": "view",
      "type": "function"
    },
    {
      "inputs": [
        {
          "internalType": "address",
          "name": "owner",
          "type": "address"
        },
        {
          "internalType": "address",
          "name": "spender",
          "type": "address"
        }
      ],
      "name": "allowance",
      "outputs": [
        {
          "internalType": "uint256",
          "name": "",
          "type": "uint256"
        }
      ],
      "stateMutability": "view",
      "type": "function"
    },
    {
      "inputs": [
        {
          "internalType": "address",
          "name": "spender",
          "type": "address"
        },
        {
          "internalType": "uint256",
          "name": "amount",
          "type": "uint256"
        }
      ],
      "name": "approve",
      "outputs": [
        {
          "internalType": "bool",
          "name": "",
          "type": "bool"
        }
      ],
      "stateMutability": "nonpayable",
      "type": "function"
    },
    {
      "inputs": [],
      "name": "assetAddress",
      "outputs": [
        {
          "internalType": "address",
          "name": "",
          "type": "address"
        }
      ],
      "stateMutability": "view",
      "type": "function"
    },
    {
      "inputs": [],
      "name": "auctionLength",
      "outputs": [
        {
          "internalType": "uint256",
          "name": "",
          "type": "uint256"
        }
      ],
      "stateMutability": "view",
      "type": "function"
    },
    {
      "inputs": [
        {
          "internalType": "uint256",
          "name": "",
          "type": "uint256"
        }
      ],
      "name": "auctions",
      "outputs": [
        {
          "internalType": "uint256",
          "name": "livePrice",
          "type": "uint256"
        },
        {
          "internalType": "uint256",
          "name": "end",
          "type": "uint256"
        },
        {
          "internalType": "enum IFNFTCollection.AuctionState",
          "name": "state",
          "type": "uint8"
        },
        {
          "internalType": "address",
          "name": "winning",
          "type": "address"
        }
      ],
      "stateMutability": "view",
      "type": "function"
    },
    {
      "inputs": [
        {
          "internalType": "address",
          "name": "account",
          "type": "address"
        }
      ],
      "name": "balanceOf",
      "outputs": [
        {
          "internalType": "uint256",
          "name": "",
          "type": "uint256"
        }
      ],
      "stateMutability": "view",
      "type": "function"
    },
    {
      "inputs": [
        {
          "internalType": "uint256",
          "name": "tokenId",
          "type": "uint256"
        },
        {
          "internalType": "uint256",
          "name": "price",
          "type": "uint256"
        }
      ],
      "name": "bid",
      "outputs": [],
      "stateMutability": "nonpayable",
      "type": "function"
    },
    {
      "inputs": [],
      "name": "curator",
      "outputs": [
        {
          "internalType": "address",
          "name": "",
          "type": "address"
        }
      ],
      "stateMutability": "view",
      "type": "function"
    },
    {
      "inputs": [],
      "name": "decimals",
      "outputs": [
        {
          "internalType": "uint8",
          "name": "",
          "type": "uint8"
        }
      ],
      "stateMutability": "view",
      "type": "function"
    },
    {
      "inputs": [
        {
          "internalType": "address",
          "name": "spender",
          "type": "address"
        },
        {
          "internalType": "uint256",
          "name": "subtractedValue",
          "type": "uint256"
        }
      ],
      "name": "decreaseAllowance",
      "outputs": [
        {
          "internalType": "bool",
          "name": "",
          "type": "bool"
        }
      ],
      "stateMutability": "nonpayable",
      "type": "function"
    },
    {
      "inputs": [
        {
          "internalType": "uint256",
          "name": "moduleIndex",
          "type": "uint256"
        },
        {
          "internalType": "bytes",
          "name": "initData",
          "type": "bytes"
        }
      ],
      "name": "deployEligibilityStorage",
      "outputs": [
        {
          "internalType": "address",
          "name": "",
          "type": "address"
        }
      ],
      "stateMutability": "nonpayable",
      "type": "function"
    },
    {
      "inputs": [
        {
          "internalType": "uint256",
          "name": "",
          "type": "uint256"
        }
      ],
      "name": "depositors",
      "outputs": [
        {
          "internalType": "address",
          "name": "",
          "type": "address"
        }
      ],
      "stateMutability": "view",
      "type": "function"
    },
    {
      "inputs": [],
      "name": "disableVaultFees",
      "outputs": [],
      "stateMutability": "nonpayable",
      "type": "function"
    },
    {
      "inputs": [],
      "name": "eligibilityStorage",
      "outputs": [
        {
          "internalType": "contract IEligibility",
          "name": "",
          "type": "address"
        }
      ],
      "stateMutability": "view",
      "type": "function"
    },
    {
      "inputs": [],
      "name": "enableBid",
      "outputs": [
        {
          "internalType": "bool",
          "name": "",
          "type": "bool"
        }
      ],
      "stateMutability": "view",
      "type": "function"
    },
    {
      "inputs": [],
      "name": "enableMint",
      "outputs": [
        {
          "internalType": "bool",
          "name": "",
          "type": "bool"
        }
      ],
      "stateMutability": "view",
      "type": "function"
    },
    {
      "inputs": [],
      "name": "enableRandomRedeem",
      "outputs": [
        {
          "internalType": "bool",
          "name": "",
          "type": "bool"
        }
      ],
      "stateMutability": "view",
      "type": "function"
    },
    {
      "inputs": [],
      "name": "enableRandomSwap",
      "outputs": [
        {
          "internalType": "bool",
          "name": "",
          "type": "bool"
        }
      ],
      "stateMutability": "view",
      "type": "function"
    },
    {
      "inputs": [],
      "name": "enableTargetRedeem",
      "outputs": [
        {
          "internalType": "bool",
          "name": "",
          "type": "bool"
        }
      ],
      "stateMutability": "view",
      "type": "function"
    },
    {
      "inputs": [],
      "name": "enableTargetSwap",
      "outputs": [
        {
          "internalType": "bool",
          "name": "",
          "type": "bool"
        }
      ],
      "stateMutability": "view",
      "type": "function"
    },
    {
      "inputs": [
        {
          "internalType": "uint256",
          "name": "tokenId",
          "type": "uint256"
        }
      ],
      "name": "endAuction",
      "outputs": [],
      "stateMutability": "nonpayable",
      "type": "function"
    },
    {
      "inputs": [],
      "name": "factory",
      "outputs": [
        {
          "internalType": "contract IFNFTCollectionFactory",
          "name": "",
          "type": "address"
        }
      ],
      "stateMutability": "view",
      "type": "function"
    },
    {
      "inputs": [],
      "name": "finalizeVault",
      "outputs": [],
      "stateMutability": "nonpayable",
      "type": "function"
    },
    {
      "inputs": [
        {
          "internalType": "address",
          "name": "borrowedToken",
          "type": "address"
        },
        {
          "internalType": "uint256",
          "name": "amount",
          "type": "uint256"
        }
      ],
      "name": "flashFee",
      "outputs": [
        {
          "internalType": "uint256",
          "name": "",
          "type": "uint256"
        }
      ],
      "stateMutability": "view",
      "type": "function"
    },
    {
      "inputs": [
        {
          "internalType": "contract IERC3156FlashBorrowerUpgradeable",
          "name": "receiver",
          "type": "address"
        },
        {
          "internalType": "address",
          "name": "borrowedToken",
          "type": "address"
        },
        {
          "internalType": "uint256",
          "name": "amount",
          "type": "uint256"
        },
        {
          "internalType": "bytes",
          "name": "data",
          "type": "bytes"
        }
      ],
      "name": "flashLoan",
      "outputs": [
        {
          "internalType": "bool",
          "name": "",
          "type": "bool"
        }
      ],
      "stateMutability": "nonpayable",
      "type": "function"
    },
    {
      "inputs": [
        {
          "internalType": "uint256",
          "name": "tokenId",
          "type": "uint256"
        }
      ],
      "name": "getAuction",
      "outputs": [
        {
          "internalType": "uint256",
          "name": "",
          "type": "uint256"
        },
        {
          "internalType": "uint256",
          "name": "",
          "type": "uint256"
        },
        {
          "internalType": "enum IFNFTCollection.AuctionState",
          "name": "",
          "type": "uint8"
        },
        {
          "internalType": "address",
          "name": "",
          "type": "address"
        }
      ],
      "stateMutability": "view",
      "type": "function"
    },
    {
      "inputs": [
        {
          "internalType": "uint256",
          "name": "tokenId",
          "type": "uint256"
        }
      ],
      "name": "getDepositor",
      "outputs": [
        {
          "internalType": "address",
          "name": "depositor",
          "type": "address"
        }
      ],
      "stateMutability": "view",
      "type": "function"
    },
    {
      "inputs": [
        {
          "internalType": "address",
          "name": "spender",
          "type": "address"
        },
        {
          "internalType": "uint256",
          "name": "addedValue",
          "type": "uint256"
        }
      ],
      "name": "increaseAllowance",
      "outputs": [
        {
          "internalType": "bool",
          "name": "",
          "type": "bool"
        }
      ],
      "stateMutability": "nonpayable",
      "type": "function"
    },
    {
      "inputs": [],
      "name": "is1155",
      "outputs": [
        {
          "internalType": "bool",
          "name": "",
          "type": "bool"
        }
      ],
      "stateMutability": "view",
      "type": "function"
    },
    {
      "inputs": [
        {
          "internalType": "address",
          "name": "token",
          "type": "address"
        }
      ],
      "name": "maxFlashLoan",
      "outputs": [
        {
          "internalType": "uint256",
          "name": "",
          "type": "uint256"
        }
      ],
      "stateMutability": "view",
      "type": "function"
    },
    {
      "inputs": [
        {
          "internalType": "uint256[]",
          "name": "tokenIds",
          "type": "uint256[]"
        },
        {
          "internalType": "uint256[]",
          "name": "amounts",
          "type": "uint256[]"
        }
      ],
      "name": "mint",
      "outputs": [
        {
          "internalType": "uint256",
          "name": "",
          "type": "uint256"
        }
      ],
      "stateMutability": "nonpayable",
      "type": "function"
    },
    {
      "inputs": [],
      "name": "mintFee",
      "outputs": [
        {
          "internalType": "uint256",
          "name": "",
          "type": "uint256"
        }
      ],
      "stateMutability": "view",
      "type": "function"
    },
    {
      "inputs": [
        {
          "internalType": "uint256[]",
          "name": "tokenIds",
          "type": "uint256[]"
        },
        {
          "internalType": "uint256[]",
          "name": "amounts",
          "type": "uint256[]"
        },
        {
          "internalType": "address",
          "name": "to",
          "type": "address"
        }
      ],
      "name": "mintTo",
      "outputs": [
        {
          "internalType": "uint256",
          "name": "",
          "type": "uint256"
        }
      ],
      "stateMutability": "nonpayable",
      "type": "function"
    },
    {
      "inputs": [],
      "name": "name",
      "outputs": [
        {
          "internalType": "string",
          "name": "",
          "type": "string"
        }
      ],
      "stateMutability": "view",
      "type": "function"
    },
    {
      "inputs": [
        {
          "internalType": "uint256",
          "name": "holdingsIndex",
          "type": "uint256"
        }
      ],
      "name": "nftIdAt",
      "outputs": [
        {
          "internalType": "uint256",
          "name": "",
          "type": "uint256"
        }
      ],
      "stateMutability": "view",
      "type": "function"
    },
    {
      "inputs": [
        {
          "internalType": "address",
          "name": "",
          "type": "address"
        },
        {
          "internalType": "address",
          "name": "",
          "type": "address"
        },
        {
          "internalType": "uint256[]",
          "name": "",
          "type": "uint256[]"
        },
        {
          "internalType": "uint256[]",
          "name": "",
          "type": "uint256[]"
        },
        {
          "internalType": "bytes",
          "name": "",
          "type": "bytes"
        }
      ],
      "name": "onERC1155BatchReceived",
      "outputs": [
        {
          "internalType": "bytes4",
          "name": "",
          "type": "bytes4"
        }
      ],
      "stateMutability": "nonpayable",
      "type": "function"
    },
    {
      "inputs": [
        {
          "internalType": "address",
          "name": "",
          "type": "address"
        },
        {
          "internalType": "address",
          "name": "",
          "type": "address"
        },
        {
          "internalType": "uint256",
          "name": "",
          "type": "uint256"
        },
        {
          "internalType": "uint256",
          "name": "",
          "type": "uint256"
        },
        {
          "internalType": "bytes",
          "name": "",
          "type": "bytes"
        }
      ],
      "name": "onERC1155Received",
      "outputs": [
        {
          "internalType": "bytes4",
          "name": "",
          "type": "bytes4"
        }
      ],
      "stateMutability": "nonpayable",
      "type": "function"
    },
    {
      "inputs": [
        {
          "internalType": "address",
          "name": "",
          "type": "address"
        },
        {
          "internalType": "address",
          "name": "",
          "type": "address"
        },
        {
          "internalType": "uint256",
          "name": "",
          "type": "uint256"
        },
        {
          "internalType": "bytes",
          "name": "",
          "type": "bytes"
        }
      ],
      "name": "onERC721Received",
      "outputs": [
        {
          "internalType": "bytes4",
          "name": "",
          "type": "bytes4"
        }
      ],
      "stateMutability": "nonpayable",
      "type": "function"
    },
    {
      "inputs": [],
      "name": "owner",
      "outputs": [
        {
          "internalType": "address",
          "name": "",
          "type": "address"
        }
      ],
      "stateMutability": "view",
      "type": "function"
    },
    {
      "inputs": [
        {
          "internalType": "uint256",
          "name": "",
          "type": "uint256"
        }
      ],
      "name": "quantity1155",
      "outputs": [
        {
          "internalType": "uint256",
          "name": "",
          "type": "uint256"
        }
      ],
      "stateMutability": "view",
      "type": "function"
    },
    {
      "inputs": [],
      "name": "randomRedeemFee",
      "outputs": [
        {
          "internalType": "uint256",
          "name": "",
          "type": "uint256"
        }
      ],
      "stateMutability": "view",
      "type": "function"
    },
    {
      "inputs": [],
      "name": "randomSwapFee",
      "outputs": [
        {
          "internalType": "uint256",
          "name": "",
          "type": "uint256"
        }
      ],
      "stateMutability": "view",
      "type": "function"
    },
    {
      "inputs": [
        {
          "internalType": "uint256",
          "name": "amount",
          "type": "uint256"
        },
        {
          "internalType": "uint256[]",
          "name": "specificIds",
          "type": "uint256[]"
        }
      ],
      "name": "redeem",
      "outputs": [
        {
          "internalType": "uint256[]",
          "name": "",
          "type": "uint256[]"
        }
      ],
      "stateMutability": "nonpayable",
      "type": "function"
    },
    {
      "inputs": [
        {
          "internalType": "uint256",
          "name": "amount",
          "type": "uint256"
        },
        {
          "internalType": "uint256[]",
          "name": "specificIds",
          "type": "uint256[]"
        },
        {
          "internalType": "address",
          "name": "to",
          "type": "address"
        }
      ],
      "name": "redeemTo",
      "outputs": [
        {
          "internalType": "uint256[]",
          "name": "",
          "type": "uint256[]"
        }
      ],
      "stateMutability": "nonpayable",
      "type": "function"
    },
    {
      "inputs": [],
      "name": "renounceOwnership",
      "outputs": [],
      "stateMutability": "nonpayable",
      "type": "function"
    },
    {
      "inputs": [
        {
          "internalType": "uint256",
          "name": "amount",
          "type": "uint256"
        },
        {
          "internalType": "address",
          "name": "from",
          "type": "address"
        },
        {
          "internalType": "address",
          "name": "to",
          "type": "address"
        }
      ],
      "name": "retrieveTokens",
      "outputs": [],
      "stateMutability": "nonpayable",
      "type": "function"
    },
    {
      "inputs": [
        {
          "internalType": "uint256",
          "name": "_auctionLength",
          "type": "uint256"
        }
      ],
      "name": "setAuctionLength",
      "outputs": [],
      "stateMutability": "nonpayable",
      "type": "function"
    },
    {
      "inputs": [
        {
          "internalType": "address",
          "name": "_curator",
          "type": "address"
        }
      ],
      "name": "setCurator",
      "outputs": [],
      "stateMutability": "nonpayable",
      "type": "function"
    },
    {
      "inputs": [
        {
          "internalType": "uint256",
          "name": "_mintFee",
          "type": "uint256"
        },
        {
          "internalType": "uint256",
          "name": "_randomRedeemFee",
          "type": "uint256"
        },
        {
          "internalType": "uint256",
          "name": "_targetRedeemFee",
          "type": "uint256"
        },
        {
          "internalType": "uint256",
          "name": "_randomSwapFee",
          "type": "uint256"
        },
        {
          "internalType": "uint256",
          "name": "_targetSwapFee",
          "type": "uint256"
        }
      ],
      "name": "setFees",
      "outputs": [],
      "stateMutability": "nonpayable",
      "type": "function"
    },
    {
      "inputs": [
        {
          "internalType": "bool",
          "name": "_enableMint",
          "type": "bool"
        },
        {
          "internalType": "bool",
          "name": "_enableRandomRedeem",
          "type": "bool"
        },
        {
          "internalType": "bool",
          "name": "_enableTargetRedeem",
          "type": "bool"
        },
        {
          "internalType": "bool",
          "name": "_enableRandomSwap",
          "type": "bool"
        },
        {
          "internalType": "bool",
          "name": "_enableTargetSwap",
          "type": "bool"
        },
        {
          "internalType": "bool",
          "name": "_enableBid",
          "type": "bool"
        }
      ],
      "name": "setVaultFeatures",
      "outputs": [],
      "stateMutability": "nonpayable",
      "type": "function"
    },
    {
      "inputs": [
        {
          "internalType": "string",
          "name": "name_",
          "type": "string"
        },
        {
          "internalType": "string",
          "name": "symbol_",
          "type": "string"
        }
      ],
      "name": "setVaultMetadata",
      "outputs": [],
      "stateMutability": "nonpayable",
      "type": "function"
    },
    {
      "inputs": [
        {
          "internalType": "address",
          "name": "recipient",
          "type": "address"
        }
      ],
      "name": "shutdown",
      "outputs": [],
      "stateMutability": "nonpayable",
      "type": "function"
    },
    {
      "inputs": [
        {
          "internalType": "uint256",
          "name": "tokenId",
          "type": "uint256"
        },
        {
          "internalType": "uint256",
          "name": "price",
          "type": "uint256"
        }
      ],
      "name": "startAuction",
      "outputs": [],
      "stateMutability": "nonpayable",
      "type": "function"
    },
    {
      "inputs": [
        {
          "internalType": "bytes4",
          "name": "interfaceId",
          "type": "bytes4"
        }
      ],
      "name": "supportsInterface",
      "outputs": [
        {
          "internalType": "bool",
          "name": "",
          "type": "bool"
        }
      ],
      "stateMutability": "view",
      "type": "function"
    },
    {
      "inputs": [
        {
          "internalType": "uint256[]",
          "name": "tokenIds",
          "type": "uint256[]"
        },
        {
          "internalType": "uint256[]",
          "name": "amounts",
          "type": "uint256[]"
        },
        {
          "internalType": "uint256[]",
          "name": "specificIds",
          "type": "uint256[]"
        }
      ],
      "name": "swap",
      "outputs": [
        {
          "internalType": "uint256[]",
          "name": "",
          "type": "uint256[]"
        }
      ],
      "stateMutability": "nonpayable",
      "type": "function"
    },
    {
      "inputs": [
        {
          "internalType": "uint256[]",
          "name": "tokenIds",
          "type": "uint256[]"
        },
        {
          "internalType": "uint256[]",
          "name": "amounts",
          "type": "uint256[]"
        },
        {
          "internalType": "uint256[]",
          "name": "specificIds",
          "type": "uint256[]"
        },
        {
          "internalType": "address",
          "name": "to",
          "type": "address"
        }
      ],
      "name": "swapTo",
      "outputs": [
        {
          "internalType": "uint256[]",
          "name": "",
          "type": "uint256[]"
        }
      ],
      "stateMutability": "nonpayable",
      "type": "function"
    },
    {
      "inputs": [],
      "name": "symbol",
      "outputs": [
        {
          "internalType": "string",
          "name": "",
          "type": "string"
        }
      ],
      "stateMutability": "view",
      "type": "function"
    },
    {
      "inputs": [],
      "name": "targetRedeemFee",
      "outputs": [
        {
          "internalType": "uint256",
          "name": "",
          "type": "uint256"
        }
      ],
      "stateMutability": "view",
      "type": "function"
    },
    {
      "inputs": [],
      "name": "targetSwapFee",
      "outputs": [
        {
          "internalType": "uint256",
          "name": "",
          "type": "uint256"
        }
      ],
      "stateMutability": "view",
      "type": "function"
    },
    {
      "inputs": [],
      "name": "totalHoldings",
      "outputs": [
        {
          "internalType": "uint256",
          "name": "",
          "type": "uint256"
        }
      ],
      "stateMutability": "view",
      "type": "function"
    },
    {
      "inputs": [],
      "name": "totalSupply",
      "outputs": [
        {
          "internalType": "uint256",
          "name": "",
          "type": "uint256"
        }
      ],
      "stateMutability": "view",
      "type": "function"
    },
    {
      "inputs": [
        {
          "internalType": "address",
          "name": "to",
          "type": "address"
        },
        {
          "internalType": "uint256",
          "name": "amount",
          "type": "uint256"
        }
      ],
      "name": "transfer",
      "outputs": [
        {
          "internalType": "bool",
          "name": "",
          "type": "bool"
        }
      ],
      "stateMutability": "nonpayable",
      "type": "function"
    },
    {
      "inputs": [
        {
          "internalType": "address",
          "name": "from",
          "type": "address"
        },
        {
          "internalType": "address",
          "name": "to",
          "type": "address"
        },
        {
          "internalType": "uint256",
          "name": "amount",
          "type": "uint256"
        }
      ],
      "name": "transferFrom",
      "outputs": [
        {
          "internalType": "bool",
          "name": "",
          "type": "bool"
        }
      ],
      "stateMutability": "nonpayable",
      "type": "function"
    },
    {
      "inputs": [
        {
          "internalType": "address",
          "name": "newOwner",
          "type": "address"
        }
      ],
      "name": "transferOwnership",
      "outputs": [],
      "stateMutability": "nonpayable",
      "type": "function"
    },
    {
      "inputs": [],
      "name": "vaultFees",
      "outputs": [
        {
          "internalType": "uint256",
          "name": "",
          "type": "uint256"
        },
        {
          "internalType": "uint256",
          "name": "",
          "type": "uint256"
        },
        {
          "internalType": "uint256",
          "name": "",
          "type": "uint256"
        },
        {
          "internalType": "uint256",
          "name": "",
          "type": "uint256"
        },
        {
          "internalType": "uint256",
          "name": "",
          "type": "uint256"
        }
      ],
      "stateMutability": "view",
      "type": "function"
    },
    {
      "inputs": [],
      "name": "vaultId",
      "outputs": [
        {
          "internalType": "uint256",
          "name": "",
          "type": "uint256"
        }
      ],
      "stateMutability": "view",
      "type": "function"
    },
    {
      "inputs": [],
      "name": "vaultManager",
      "outputs": [
        {
          "internalType": "contract IVaultManager",
          "name": "",
          "type": "address"
        }
      ],
      "stateMutability": "view",
      "type": "function"
    },
    {
      "inputs": [],
      "name": "version",
      "outputs": [
        {
          "internalType": "string",
          "name": "",
          "type": "string"
        }
      ],
      "stateMutability": "pure",
      "type": "function"
    },
    {
      "inputs": [
        {
          "internalType": "uint256[]",
          "name": "tokenIds",
          "type": "uint256[]"
        }
      ],
      "name": "withdraw",
      "outputs": [
        {
          "internalType": "uint256[]",
          "name": "",
          "type": "uint256[]"
        }
      ],
      "stateMutability": "nonpayable",
      "type": "function"
    }
  ],
  "transactionHash": "0x4d1cbe9adf443aaaab554d475d3afc102bc46a2f20788d1d223b1a0e907f9a29",
  "args": [],
  "numDeployments": 1,
  "solcInputHash": "bf0ff9e6b7fc2e915dfac7a0da096a36",
  "bytecode": "0x608060405234801561001057600080fd5b50615314806100206000396000f3fe608060405234801561001057600080fd5b506004361061043d5760003560e01c80638b3aba5711610236578063cce2f3fb1161013b578063e66f53b7116100c3578063f23a6e6111610087578063f23a6e6114610a0d578063f2fde38b14610a2c578063f7fce33414610a3f578063fcc0e38114610a47578063feb8eba514610a5c57600080fd5b8063e66f53b7146109bc578063e90956cf146109d0578063e9ec2e99146109e3578063ec342ad0146109eb578063f1d20dd4146109fa57600080fd5b8063d9d98ce41161010a578063d9d98ce414610946578063dd62ed3e14610959578063e0a8b97a1461096c578063e0b4a79a1461097f578063e4b2fb791461099257600080fd5b8063cce2f3fb14610905578063d29e27bf14610918578063d53f62171461092b578063d6ee4a931461093357600080fd5b8063aa024980116101be578063bc197c811161018d578063bc197c81146108a2578063c3cb8c14146108c1578063c45a0155146108c9578063c4a0db96146108dd578063c4ff5247146108f057600080fd5b8063aa02498014610854578063b10402ea14610869578063b579605b1461087c578063b9a2de3a1461088f57600080fd5b806395d89b411161020557806395d89b4114610800578063983d95ce146108085780639d54def61461081b578063a457c2d71461082e578063a9059cbb1461084157600080fd5b80638b3aba57146107a75780638c850814146107c85780638da5cb5b146107db5780638f878a43146107ec57600080fd5b80633950935111610347578063598647f8116102cf578063715018a611610293578063715018a61461073357806372188e3f1461073b57806378bd79351461076b578063793096581461077e5780638a4adf241461079357600080fd5b8063598647f8146106bc5780635cffe9de146106cf578063613255ab146106e25780636b948a35146106f557806370a082311461070a57600080fd5b80634fee13fc116103165780634fee13fc1461060c5780635035434a1461061f57806354fd4d5014610634578063571a26a0146106565780635877aee6146106a957600080fd5b806339509351146105be5780633d5d190c146105d157806344b28d59146105e457806345a0b652146105f957600080fd5b806318160ddd116103ca578063313ce56711610399578063313ce56714610580578063325c25a21461058f57806332d8e65b1461059957806333194c0a146105ac57806335dca76c146105b657600080fd5b806318160ddd146105245780631ba46cfd1461052c57806323b872dd1461055857806325705d8d1461056b57600080fd5b806306f26dc21161041157806306f26dc21461049a57806306fdde03146104af578063095ea7b3146104c457806313966db5146104d7578063150b7a02146104ed57600080fd5b80625181611461044257806301ffc9a71461044c578063042f186c1461047457806304a66b4814610487575b600080fd5b61044a610a64565b005b61045f61045a3660046142f4565b610ad7565b60405190151581526020015b60405180910390f35b61044a6104823660046143f6565b610b1d565b61044a6104953660046144a4565b610d7e565b6101cd5461045f90600160a01b900460ff1681565b6104b7610e14565b60405161046b919061450b565b61045f6104d236600461453e565b610ea6565b6104df610ebe565b60405190815260200161046b565b61050b6104fb36600461456a565b630a85bd0160e11b949350505050565b6040516001600160e01b0319909116815260200161046b565b6067546104df565b6101cd54610540906001600160a01b031681565b6040516001600160a01b03909116815260200161046b565b61045f6105663660046145d5565b610f46565b610573610f6a565b60405161046b9190614651565b6040516012815260200161046b565b6104df6101cc5481565b6105406105a7366004614664565b611004565b6104df6101ca5481565b6104df611040565b61045f6105cc36600461453e565b6110c7565b6104df6105df3660046146c8565b611106565b6101cd5461045f90600160b01b900460ff1681565b6104df610607366004614664565b611180565b61044a61061a366004614733565b61118e565b6101cd5461045f90600160c81b900460ff1681565b604080518082019091526006815265076312e302e360d41b60208201526104b7565b610699610664366004614664565b6101cf6020526000908152604090208054600182015460029092015490919060ff81169061010090046001600160a01b031684565b60405161046b949392919061476b565b6105406106b73660046147f8565b611338565b61044a6106ca366004614733565b6114c6565b61045f6106dd366004614843565b61172c565b6104df6106f03660046148b5565b6117d9565b6101cd5461045f90600160a81b900460ff1681565b6104df6107183660046148b5565b6001600160a01b031660009081526065602052604090205490565b61044a611801565b610743611840565b604080519586526020860194909452928401919091526060830152608082015260a00161046b565b610699610779366004614664565b6118cd565b6101cd5461045f90600160c01b900460ff1681565b6101c854610540906001600160a01b031681565b6104df6107b5366004614664565b6101c36020526000908152604090205481565b6105736107d6366004614946565b611952565b6033546001600160a01b0316610540565b6101c654610540906001600160a01b031681565b6104b7611b5c565b6105736108163660046149e0565b611b6b565b610573610829366004614a21565b611ce2565b61045f61083c36600461453e565b611e72565b61045f61084f36600461453e565b611f04565b6101cd5461045f90600160d81b900460ff1681565b6104df610877366004614a7b565b611f12565b61044a61088a366004614664565b612003565b61044a61089d366004614664565b612160565b61050b6108b0366004614ad6565b63bc197c8160e01b95945050505050565b61044a612333565b6101c754610540906001600160a01b031681565b6105736108eb366004614b83565b61233d565b6101cd5461045f90600160d01b900460ff1681565b61044a6109133660046148b5565b612386565b61044a610926366004614bc1565b612470565b6104df612564565b610573610941366004614c15565b6125eb565b6104df61095436600461453e565b61268d565b6104df610967366004614cae565b61274f565b61044a61097a366004614ce7565b61277a565b61044a61098d366004614d46565b6127f5565b6105406109a0366004614664565b6101ce602052600090815260409020546001600160a01b031681565b6101c954610540906001600160a01b031681565b61044a6109de3660046148b5565b612838565b6104df6128da565b6104df670de0b6b3a764000081565b61045f610a08366004614d7d565b6128ec565b61050b610a1b366004614db1565b63f23a6e6160e01b95945050505050565b61044a610a3a3660046148b5565b612992565b6104df612a2d565b6101cd5461045f90600160b81b900460ff1681565b6104df612ab5565b610a6c612b3d565b6101c7546101ca546040516360c1795960e11b81526001600160a01b039092169163c182f2b291610aa39160040190815260200190565b600060405180830381600087803b158015610abd57600080fd5b505af1158015610ad1573d6000803e3d6000fd5b50505050565b60006001600160e01b0319821663ce47666760e01b1480610b0857506001600160e01b031982166301ffc9a760e01b145b80610b175750610b1782612ba5565b92915050565b6000610b296001612bda565b90508015610b41576000805461ff0019166101001790555b610b49612c62565b610b538787612c91565b6001600160a01b038416610b7a5760405163d92e233d60e01b815260040160405180910390fd5b610b8c60018060018060016000612470565b6000339050806001600160a01b0316638a4adf246040518163ffffffff1660e01b8152600401602060405180830381865afa158015610bcf573d6000803e3d6000fd5b505050506040513d601f19601f82011682018060405250810190610bf39190614e19565b6101c880546001600160a01b03199081166001600160a01b039384169081179092556101cd805482168985161790556101c9805482168a85161790556101c7805490911692841692909217909155604080516304c94c4160e31b8152905163264a6208916004818101926020929091908290030181865afa158015610c7c573d6000803e3d6000fd5b505050506040513d601f19601f82011682018060405250810190610ca09190614e36565b6101ca8190556101cd805461ffff60a01b1916600160a01b87151590810260ff60a81b191691909117600160a81b871515908102919091179092556203f4806101cc55604080516001600160a01b038a16815260208101929092528101919091527f18ecce5c418b882a3d89e5b6cc8100dc3383309b8e78525266fe1283a7f934d69060600160405180910390a2508015610d75576000805461ff0019169055604051600181527f7f26b83ff96e1f2b6a682f133852f6798a09c465da95921460cefb38474024989060200160405180910390a15b50505050505050565b610d86612b3d565b6101c7546101ca546040516310ccb16960e11b815260048101919091526024810187905260448101869052606481018590526084810184905260a481018390526001600160a01b039091169063219962d29060c401600060405180830381600087803b158015610df557600080fd5b505af1158015610e09573d6000803e3d6000fd5b505050505050505050565b606060688054610e2390614e4f565b80601f0160208091040260200160405190810160405280929190818152602001828054610e4f90614e4f565b8015610e9c5780601f10610e7157610100808354040283529160200191610e9c565b820191906000526020600020905b815481529060010190602001808311610e7f57829003601f168201915b5050505050905090565b600033610eb4818585612cc6565b5060019392505050565b6101c7546101ca54604051632206137960e01b815260009283926001600160a01b0390911691632206137991610efa9160040190815260200190565b60a060405180830381865afa158015610f17573d6000803e3d6000fd5b505050506040513d601f19601f82011682018060405250810190610f3b9190614e89565b509295945050505050565b600033610f54858285612dea565b610f5f858585612e5e565b506001949350505050565b60606000610f796101c461302c565b90506000816001600160401b03811115610f9557610f9561431e565b604051908082528060200260200182016040528015610fbe578160200160208202803683370190505b50905060005b82811015610ffd57610fd86101c482613036565b828281518110610fea57610fea614ec9565b6020908102919091010152600101610fc4565b5092915050565b60008181526101ce60205260409020546001600160a01b03168061103b57604051632692809160e11b815260040160405180910390fd5b919050565b6101c7546101ca54604051632206137960e01b815260009283926001600160a01b039091169163220613799161107c9160040190815260200190565b60a060405180830381865afa158015611099573d6000803e3d6000fd5b505050506040513d601f19601f820116820180604052508101906110bd9190614e89565b9695505050505050565b3360008181526066602090815260408083206001600160a01b0387168452909152812054909190610eb49082908690611101908790614ef5565b612cc6565b600061117785858080602002602001604051908101604052809392919081815260200183836020028082843760009201919091525050604080516020808902828101820190935288825290935088925087918291850190849080828437600092019190915250339250611f12915050565b95945050505050565b6000610b176101c483613036565b6111986004613042565b6101cd54600160d81b900460ff1615806111bc57506101cd54600160a01b900460ff165b156111da57604051639bcbd04360e01b815260040160405180910390fd5b60008281526101cf6020526040812060029081015460ff169081111561120257611202614755565b1461122057604051631c2ce4fd60e01b815260040160405180910390fd5b670de0b6b3a764000081101561124957604051635069375b60e11b815260040160405180910390fd5b61125333826130e4565b60405180608001604052808281526020016101cc54426112739190614ef5565b8152600160208083018290523360409384015260008681526101cf825283902084518155908401518183015591830151600280840180549293909260ff19169184908111156112c4576112c4614755565b021790555060609190910151600290910180546001600160a01b0390921661010002610100600160a81b0319909216919091179055604080518381526020810183905233917f92db7303de5c78e58e4570f0b4acf392e3dac09394e96c4fa62b323b6337ee65910160405180910390a25050565b6000611342612b3d565b6101c6546001600160a01b03161561136d576040516344a30fbf60e01b815260040160405180910390fd5b6101c75460408051630a63bfd560e11b815290516000926001600160a01b0316916314c77faa9160048083019260209291908290030181865afa1580156113b8573d6000803e3d6000fd5b505050506040513d601f19601f820116820180604052508101906113dc9190614e19565b90506000816001600160a01b031663576ff9088787876040518463ffffffff1660e01b815260040161141093929190614f36565b6020604051808303816000875af115801561142f573d6000803e3d6000fd5b505050506040513d601f19601f820116820180604052508101906114539190614e19565b6101c680546001600160a01b0319166001600160a01b0383169081179091556101cd805460ff60a81b191690556040805189815260208101929092529192507fe14c63b3d4272158635bee1d1b95b51bb8de042ee95a15cbfaf2865b4d0af811910160405180910390a195945050505050565b6114d06004613042565b6101cd54600160d81b900460ff1615806114f457506101cd54600160a01b900460ff165b1561151257604051639bcbd04360e01b815260040160405180910390fd5b600160008381526101cf6020526040902060029081015460ff169081111561153c5761153c614755565b1461155a576040516358fd8d1160e01b815260040160405180910390fd5b60008281526101cf60209081526040808320546101c7548251637c513c0f60e01b815292519194936001600160a01b0390911692637c513c0f92600480830193928290030181865afa1580156115b4573d6000803e3d6000fd5b505050506040513d601f19601f820116820180604052508101906115d89190614e36565b6115e490612710614ef5565b90506115f08183614f50565b6115fc84612710614f50565b101561161b57604051635069375b60e11b815260040160405180910390fd5b60008481526101cf602052604090206001015442811161164e5760405163283a4a6160e21b815260040160405180910390fd5b61165833856130e4565b60008581526101cf60205260409020600201546116839061010090046001600160a01b031684613232565b60008581526101cf602052604090208481556002018054610100600160a81b03191633610100021790556103846116ba4283614f6f565b116116e95760008581526101cf60205260408120600101805461038492906116e3908490614ef5565b90915550505b604080518681526020810186905233917fa83fe65d893591fe1c92845e86c5a5907f93f15e28b4e2124db434265822181b91015b60405180910390a25050505050565b60006117386005613042565b6101c8546040516306df336560e51b81526001600160a01b038881166004830152600092169063dbe66ca090602401602060405180830381865afa158015611784573d6000803e3d6000fd5b505050506040513d601f19601f820116820180604052508101906117a89190614f86565b6117bb576117b6868661268d565b6117be565b60005b90506117ce878787848888613311565b979650505050505050565b60006001600160a01b03821630146117f2576000610b17565b606754610b1790600019614f6f565b6033546001600160a01b031633146118345760405162461bcd60e51b815260040161182b90614fa3565b60405180910390fd5b61183e6000613473565b565b6101c7546101ca54604051632206137960e01b8152600481019190915260009182918291829182916001600160a01b03169063220613799060240160a060405180830381865afa158015611898573d6000803e3d6000fd5b505050506040513d601f19601f820116820180604052508101906118bc9190614e89565b945094509450945094509091929394565b60008181526101cf602052604081206002015481908190819060ff16818160028111156118fc576118fc614755565b0361191a576040516358fd8d1160e01b815260040160405180910390fd5b60009586526101cf60205260409095208054600182015460029092015490979196955061010090046001600160a01b03169350915050565b6060600260c954036119765760405162461bcd60e51b815260040161182b90614fd8565b600260c9556119856003613042565b6101cd54600160d81b900460ff16156119b15760405163330809f960e11b815260040160405180910390fd5b6101cd54600090600160a01b900460ff1615611a2d5760005b8651811015611a275760008682815181106119e7576119e7614ec9565b6020026020010151905080600003611a12576040516329c5442960e01b815260040160405180910390fd5b611a1c8184614ef5565b9250506001016119ca565b50611a31565b5084515b83518114158015611a4d57506101cd54600160c81b900460ff16155b15611a6b57604051631bee2d3960e11b815260040160405180910390fd5b835115801590611a8657506101cd54600160d01b900460ff16155b15611aa45760405163dc1d736760e01b815260040160405180910390fd5b600080611aaf611840565b945094505050506000865184611ac59190614f6f565b611acf9084614f50565b8751611adb9084614f50565b611ae59190614ef5565b9050611af133826134c5565b6000611afe858989613620565b9050611b0a8a8a613805565b507f66982ed4a058811a8004bdcec9adcb3671f2b4f1a788667a3a74959d7c09af3c8a8a8a848b604051611b4295949392919061500f565b60405180910390a1600160c9559998505050505050505050565b606060698054610e2390614e4f565b6060611b776002613042565b6101cd54600160d81b900460ff16611ba257604051639bcbd04360e01b815260040160405180910390fd5b8160005b81811015611c12576000858583818110611bc257611bc2614ec9565b6020908102929092013560008181526101ce909352604090922054919250506001600160a01b03163314611c0957604051631022318760e21b815260040160405180910390fd5b50600101611ba6565b50611c2e33611c2983670de0b6b3a7640000614f50565b6130e4565b6000611c38611840565b50509250505060008282611c4c9190614f50565b9050611c5833826134c5565b6000611c9984888880806020026020016040519081016040528093929190818152602001838360200280828437600092019190915250339250613620915050565b90507f63b13f6307f284441e029836b0c22eb91eb62a7ad555670061157930ce884f4e81888833604051611cd09493929190615077565b60405180910390a19695505050505050565b6060600260c95403611d065760405162461bcd60e51b815260040161182b90614fd8565b600260c9819055611d1690613042565b6101cd54600160d81b900460ff1615611d425760405163330809f960e11b815260040160405180910390fd5b82518414158015611d5e57506101cd54600160b81b900460ff16155b15611d7c57604051635249c6e360e01b815260040160405180910390fd5b825115801590611d9757506101cd54600160c01b900460ff16155b15611db557604051631da0a2ed60e21b815260040160405180910390fd5b611dcb33611c2986670de0b6b3a7640000614f50565b600080611dd6611840565b505092509250506000855187611dec9190614f6f565b611df69084614f50565b8651611e029084614f50565b611e0c9190614ef5565b9050611e1833826134c5565b6000611e25888888613620565b90507f63b13f6307f284441e029836b0c22eb91eb62a7ad555670061157930ce884f4e818888604051611e5a939291906150dc565b60405180910390a1600160c955979650505050505050565b3360008181526066602090815260408083206001600160a01b038716845290915281205490919083811015611ef75760405162461bcd60e51b815260206004820152602560248201527f45524332303a2064656372656173656420616c6c6f77616e63652062656c6f77604482015264207a65726f60d81b606482015260840161182b565b610f5f8286868403612cc6565b600033610eb4818585612e5e565b6000600260c95403611f365760405162461bcd60e51b815260040161182b90614fd8565b600260c955611f456001613042565b6101cd54600160b01b900460ff16611f70576040516317efbd6b60e01b815260040160405180910390fd5b6000611f7c8585613805565b9050611f9983611f9483670de0b6b3a7640000614f50565b613232565b600081611fa4610ebe565b611fae9190614f50565b9050611fba84826134c5565b7f1f72ad2a14447fa756b6f5aca53504645af79813493aca2d906b69e4aaeb9492868686604051611fed939291906150dc565b60405180910390a150600160c955949350505050565b61200b612b3d565b6101c760009054906101000a90046001600160a01b03166001600160a01b031663a0b335e36040518163ffffffff1660e01b8152600401602060405180830381865afa15801561205f573d6000803e3d6000fd5b505050506040513d601f19601f820116820180604052508101906120839190614e36565b81108061210657506101c760009054906101000a90046001600160a01b03166001600160a01b0316630e519ef96040518163ffffffff1660e01b8152600401602060405180830381865afa1580156120df573d6000803e3d6000fd5b505050506040513d601f19601f820116820180604052508101906121039190614e36565b81115b15612124576040516321029bc560e11b815260040160405180910390fd5b6101cc8190556040518181527f26d6292d6fb0e786778ddcd15ee4e4ee219a7b892d1bf667e1c497c85bbcddcb9060200160405180910390a150565b61216a6004613042565b6101cd54600160d81b900460ff16158061218e57506101cd54600160a01b900460ff165b156121ac57604051639bcbd04360e01b815260040160405180910390fd5b600160008281526101cf6020526040902060029081015460ff16908111156121d6576121d6614755565b146121f4576040516358fd8d1160e01b815260040160405180910390fd5b60008181526101cf602052604090206001015442101561222757604051636463738960e01b815260040160405180910390fd5b60008181526101cf60205260408120600281018054825484845560019093018490556001600160a81b0319811690915561010090046001600160a01b031691612278670de0b6b3a764000083614f6f565b905080156122a35760008481526101ce60205260409020546122a3906001600160a01b031682613232565b6040805160018082528183019092526000916020808301908036833701905050905084816000815181106122d9576122d9614ec9565b6020026020010181815250506122f160018286613620565b5060408051868152602081018590526001600160a01b038616917f46d4d7f683a950a220ec6b7660e9917988b3e3cf4afba314c532b1e8ee29944e910161171d565b61183e6000612838565b606061237e84848480806020026020016040519081016040528093929190818152602001838360200280828437600092019190915250339250611ce2915050565b949350505050565b6033546001600160a01b031633146123b05760405162461bcd60e51b815260040161182b90614fa3565b6000670de0b6b3a76400006123c460675490565b6123ce9190615130565b9050600481106123f157604051636e58b71560e01b815260040160405180910390fd5b60408051600081526020810190915261240b828285613620565b506101cd54604080516001600160a01b0392831681526020810185905291851682820152517f1f6d756c685d4969a551099165b59f836b4d2cc7e036e623f0248c28bff91db59181900360600190a150506101cd80546001600160a01b031916905550565b612478612b3d565b6101cd805461ffff60b01b1916600160b01b88151590810260ff60b81b191691909117600160b81b8815159081029190911761ffff60c01b1916600160c01b88151590810260ff60c81b191691909117600160c81b8815159081029190911761ffff60d01b1916600160d01b88151590810260ff60d81b191691909117600160d81b88151590810291909117909655604080519586526020860194909452928401919091526060830152608082015260a08101919091527fb99086478c28bdee69303d660a2e2956e75ba132163a2224576580dbb57f74259060c00160405180910390a1505050505050565b6101c7546101ca54604051632206137960e01b815260009283926001600160a01b03909116916322061379916125a09160040190815260200190565b60a060405180830381865afa1580156125bd573d6000803e3d6000fd5b505050506040513d601f19601f820116820180604052508101906125e19190614e89565b5095945050505050565b60606117ce87878080602002602001604051908101604052809392919081815260200183836020028082843760009201919091525050604080516020808b0282810182019093528a82529093508a92508991829185019084908082843760009201919091525050604080516020808a02828101820190935289825290935089925088918291850190849080828437600092019190915250339250611952915050565b60006001600160a01b03831630146126b85760405163c1ab6dc160e01b815260040160405180910390fd5b612710826101c760009054906101000a90046001600160a01b03166001600160a01b0316634847cdc86040518163ffffffff1660e01b8152600401602060405180830381865afa158015612710573d6000803e3d6000fd5b505050506040513d601f19601f820116820180604052508101906127349190614e36565b61273e9190614f50565b6127489190615130565b9392505050565b6001600160a01b03918216600090815260666020908152604080832093909416825291909152205490565b612782612b3d565b610ad184848080601f01602080910402602001604051908101604052809392919081815260200183838082843760009201919091525050604080516020601f88018190048102820181019092528681529250869150859081908401838280828437600092019190915250613a0092505050565b6033546001600160a01b0316331461281f5760405162461bcd60e51b815260040161182b90614fa3565b61282982846130e4565b6128338184613232565b505050565b612840612b3d565b6101c9546001600160a01b0380831691160361286f57604051635e39359760e01b815260040160405180910390fd5b6101c954604080516001600160a01b03928316815291831660208301527fbc21df13ae8a32d7d89d87c70c0d02240cd4fb9554c57522bbbf6f27bfc2dacd910160405180910390a16101c980546001600160a01b0319166001600160a01b0392909216919091179055565b60006128e76101c461302c565b905090565b6101cd54600090600160a81b900460ff161561290a57506001919050565b6101c6546001600160a01b0316806129255750600092915050565b6040516384ca9f8560e01b81526001600160a01b038216906384ca9f8590612951908690600401614651565b602060405180830381865afa15801561296e573d6000803e3d6000fd5b505050506040513d601f19601f820116820180604052508101906127489190614f86565b6033546001600160a01b031633146129bc5760405162461bcd60e51b815260040161182b90614fa3565b6001600160a01b038116612a215760405162461bcd60e51b815260206004820152602660248201527f4f776e61626c653a206e6577206f776e657220697320746865207a65726f206160448201526564647265737360d01b606482015260840161182b565b612a2a81613473565b50565b6101c7546101ca54604051632206137960e01b815260009283926001600160a01b0390911691632206137991612a699160040190815260200190565b60a060405180830381865afa158015612a86573d6000803e3d6000fd5b505050506040513d601f19601f82011682018060405250810190612aaa9190614e89565b509195945050505050565b6101c7546101ca54604051632206137960e01b815260009283926001600160a01b0390911691632206137991612af19160040190815260200190565b60a060405180830381865afa158015612b0e573d6000803e3d6000fd5b505050506040513d601f19601f82011682018060405250810190612b329190614e89565b509095945050505050565b6101c9546001600160a01b0316612b79576033546001600160a01b0316331461183e576040516330cd747160e01b815260040160405180910390fd5b6101c9546001600160a01b0316331461183e576040516356b381a560e01b815260040160405180910390fd5b60006001600160e01b03198216630271189760e51b1480610b1757506301ffc9a760e01b6001600160e01b0319831614610b17565b60008054610100900460ff1615612c21578160ff166001148015612bfd5750303b155b612c195760405162461bcd60e51b815260040161182b90615144565b506000919050565b60005460ff808416911610612c485760405162461bcd60e51b815260040161182b90615144565b506000805460ff191660ff92909216919091179055600190565b600054610100900460ff16612c895760405162461bcd60e51b815260040161182b90615192565b61183e613a27565b600054610100900460ff16612cb85760405162461bcd60e51b815260040161182b90615192565b612cc28282613a57565b5050565b6001600160a01b038316612d285760405162461bcd60e51b8152602060048201526024808201527f45524332303a20617070726f76652066726f6d20746865207a65726f206164646044820152637265737360e01b606482015260840161182b565b6001600160a01b038216612d895760405162461bcd60e51b815260206004820152602260248201527f45524332303a20617070726f766520746f20746865207a65726f206164647265604482015261737360f01b606482015260840161182b565b6001600160a01b0383811660008181526066602090815260408083209487168084529482529182902085905590518481527f8c5be1e5ebec7d5bd14f71427d1e84f3dd0314c0f7b2291e5b200ac8c7c3b925910160405180910390a3505050565b6000612df6848461274f565b90506000198114610ad15781811015612e515760405162461bcd60e51b815260206004820152601d60248201527f45524332303a20696e73756666696369656e7420616c6c6f77616e6365000000604482015260640161182b565b610ad18484848403612cc6565b6001600160a01b038316612ec25760405162461bcd60e51b815260206004820152602560248201527f45524332303a207472616e736665722066726f6d20746865207a65726f206164604482015264647265737360d81b606482015260840161182b565b6001600160a01b038216612f245760405162461bcd60e51b815260206004820152602360248201527f45524332303a207472616e7366657220746f20746865207a65726f206164647260448201526265737360e81b606482015260840161182b565b6001600160a01b03831660009081526065602052604090205481811015612f9c5760405162461bcd60e51b815260206004820152602660248201527f45524332303a207472616e7366657220616d6f756e7420657863656564732062604482015265616c616e636560d01b606482015260840161182b565b6001600160a01b03808516600090815260656020526040808220858503905591851681529081208054849290612fd3908490614ef5565b92505081905550826001600160a01b0316846001600160a01b03167fddf252ad1be2c89b69c2b068fc378daa952ba7f163c4a11628f55a4df523b3ef8460405161301f91815260200190565b60405180910390a3610ad1565b6000610b17825490565b60006127488383613a7e565b6033546001600160a01b031633148015906130c657506101c754604051632f7ca90f60e21b8152600481018390526001600160a01b039091169063bdf2a43c90602401602060405180830381865afa1580156130a2573d6000803e3d6000fd5b505050506040513d601f19601f820116820180604052508101906130c69190614f86565b15612a2a576040516313d0ff5960e31b815260040160405180910390fd5b6001600160a01b0382166131445760405162461bcd60e51b815260206004820152602160248201527f45524332303a206275726e2066726f6d20746865207a65726f206164647265736044820152607360f81b606482015260840161182b565b6001600160a01b038216600090815260656020526040902054818110156131b85760405162461bcd60e51b815260206004820152602260248201527f45524332303a206275726e20616d6f756e7420657863656564732062616c616e604482015261636560f01b606482015260840161182b565b6001600160a01b03831660009081526065602052604081208383039055606780548492906131e7908490614f6f565b90915550506040518281526000906001600160a01b038516907fddf252ad1be2c89b69c2b068fc378daa952ba7f163c4a11628f55a4df523b3ef9060200160405180910390a3505050565b6001600160a01b0382166132885760405162461bcd60e51b815260206004820152601f60248201527f45524332303a206d696e7420746f20746865207a65726f206164647265737300604482015260640161182b565b806067600082825461329a9190614ef5565b90915550506001600160a01b038216600090815260656020526040812080548392906132c7908490614ef5565b90915550506040518181526001600160a01b038316906000907fddf252ad1be2c89b69c2b068fc378daa952ba7f163c4a11628f55a4df523b3ef9060200160405180910390a35050565b600061331c866117d9565b85111561333c57604051634b29c39b60e11b815260040160405180910390fd5b6133468786613232565b6040516323e30c8b60e01b81527f439148f0bbc682ca079e46d6e2c2f0c1e3b820f1a291b069d8882abf8cf18dd9906001600160a01b038916906323e30c8b9061339e9033908b908b908b908b908b906004016151dd565b6020604051808303816000875af11580156133bd573d6000803e3d6000fd5b505050506040513d601f19601f820116820180604052508101906133e19190614e36565b146133ff57604051637679356b60e01b815260040160405180910390fd5b600061340b883061274f565b9050806134188688614ef5565b111561343757604051633fe269db60e11b815260040160405180910390fd5b6134518830876134478a86614f6f565b6111019190614f6f565b61345b88876130e4565b61346588866134c5565b506001979650505050505050565b603380546001600160a01b038381166001600160a01b0319831681179093556040519116919082907f8be0079c531659141344cd1fd0a4f28419497f9722a3daafe3b4186f6b6457e090600090a35050565b806000036134d1575050565b6101c8546040516306df336560e51b81523360048201526001600160a01b0390911690819063dbe66ca090602401602060405180830381865afa15801561351c573d6000803e3d6000fd5b505050506040513d601f19601f820116820180604052508101906135409190614f86565b1561354a57505050565b6000816001600160a01b0316630d43e8ad6040518163ffffffff1660e01b8152600401602060405180830381865afa15801561358a573d6000803e3d6000fd5b505050506040513d601f19601f820116820180604052508101906135ae9190614e19565b90506135bb848285612e5e565b6101ca546040516391c05b0b60e01b815260048101919091526001600160a01b038216906391c05b0b90602401600060405180830381600087803b15801561360257600080fd5b505af1158015613616573d6000803e3d6000fd5b5050505050505050565b6101cd5460609060ff600160a01b820416906001600160a01b03166000866001600160401b038111156136555761365561431e565b60405190808252806020026020018201604052801561367e578160200160208202803683370190505b50865190915060005b888110156137f05760008282106136a5576136a0613aa8565b6136c0565b8882815181106136b7576136b7614ec9565b60200260200101515b9050808483815181106136d5576136d5614ec9565b60200260200101818152505085156137b25760008181526101c360205260408120805460019290613707908490614f6f565b909155505060008181526101c3602052604081205490036137305761372e6101c482613b46565b505b604051637921219560e11b81523060048201526001600160a01b038981166024830152604482018390526001606483015260a06084830152600060a483015286169063f242432a9060c401600060405180830381600087803b15801561379557600080fd5b505af11580156137a9573d6000803e3d6000fd5b505050506137e7565b6137be6101c482613b46565b5060008181526101ce6020526040902080546001600160a01b03191690556137e7858983613b52565b50600101613687565b506137fa82613d27565b509695505050505050565b6000613810836128ec565b61382d57604051631aecbf0160e01b815260040160405180910390fd5b82516101cd54600160a01b900460ff1615613980576101cd54604051631759616b60e11b81526001600160a01b0390911690632eb2c2d690613879903390309089908990600401615224565b600060405180830381600087803b15801561389357600080fd5b505af11580156138a7573d6000803e3d6000fd5b505050506000805b828110156139765760008682815181106138cb576138cb614ec9565b6020026020010151905060008683815181106138e9576138e9614ec9565b6020026020010151905080600003613914576040516329c5442960e01b815260040160405180910390fd5b60008281526101c360205260408120549003613938576139366101c483613d9f565b505b60008281526101c3602052604081208054839290613957908490614ef5565b9091555061396790508185614ef5565b935082600101925050506138af565b509150610b179050565b6101cd546001600160a01b031660005b828110156139f55760008682815181106139ac576139ac614ec9565b602002602001015190506139c08382613dab565b60008181526101ce6020526040902080546001600160a01b031916331790556139eb6101c482613d9f565b5050600101613990565b508192505050610b17565b8151613a1390606890602085019061425b565b50805161283390606990602084019061425b565b600054610100900460ff16613a4e5760405162461bcd60e51b815260040161182b90615192565b61183e33613473565b600054610100900460ff16613a005760405162461bcd60e51b815260040161182b90615192565b6000826000018281548110613a9557613a95614ec9565b9060005260206000200154905092915050565b600080613ab66101c461302c565b613ac1600143614f6f565b6101cb54604080519240602084015282015241606090811b6bffffffffffffffffffffffff19169082015244607482015242609482015260b4016040516020818303038152906040528051906020012060001c613b1e919061527f565b90506101cb60008154613b3090615293565b90915550613b406101c482613036565b91505090565b60006127488383614119565b7306012c8cf97bead5deae237070f9587f8e7a266d73b47e3cd837ddf8e4c57f05d70ab865de6e193bbb60607306012c8cf97bead5deae237070f9587f8e7a266c196001600160a01b03871601613bf0576040516001600160a01b03861660248201526044810185905260640160408051601f198184030181529190526020810180516001600160e01b031663a9059cbb60e01b1790529050613ca5565b816001600160a01b0316866001600160a01b031603613c56576040516001600160a01b03861660248201526044810185905260640160408051601f198184030181529190526020810180516001600160e01b03166322dca8bb60e21b1790529050613ca5565b6040513060248201526001600160a01b03861660448201526064810185905260840160408051601f198184030181529190526020810180516001600160e01b0316632142170760e11b17905290505b600080876001600160a01b031683604051613cc091906152ac565b6000604051808303816000865af19150503d8060008114613cfd576040519150601f19603f3d011682016040523d82523d6000602084013e613d02565b606091505b5091509150818190610e095760405162461bcd60e51b815260040161182b919061450b565b6101c6546001600160a01b031680613d3d575050565b604051632f17cda960e11b81526001600160a01b03821690635e2f9b5290613d69908590600401614651565b600060405180830381600087803b158015613d8357600080fd5b505af1158015613d97573d6000803e3d6000fd5b505050505050565b6000612748838361420c565b7306012c8cf97bead5deae237070f9587f8e7a266d73b47e3cd837ddf8e4c57f05d70ab865de6e193bbb60607306012c8cf97bead5deae237070f9587f8e7a266c196001600160a01b03861601613e46576040513360248201523060448201526064810185905260840160408051601f198184030181529190526020810180516001600160e01b03166323b872dd60e01b1790529050614097565b816001600160a01b0316856001600160a01b031603613f9157600084604051602401613e7491815260200190565b60408051601f198184030181529181526020820180516001600160e01b0316630b02f02d60e31b1790525190915060009081906001600160a01b03891690613ebd9085906152ac565b600060405180830381855afa9150503d8060008114613ef8576040519150601f19603f3d011682016040523d82523d6000602084013e613efd565b606091505b5091509150600081806020019051810190613f189190614e19565b9050821580613f3057506001600160a01b0381163314155b15613f4e57604051631022318760e21b815260040160405180910390fd5b6040516024810189905260440160408051601f198184030181529190526020810180516001600160e01b031663104c9fd360e31b17905294506140979350505050565b6101cd546040516331a9108f60e11b81526004810186905230916001600160a01b031690636352211e90602401602060405180830381865afa158015613fdb573d6000803e3d6000fd5b505050506040513d601f19601f82011682018060405250810190613fff9190614e19565b6001600160a01b0316036140515761402c6101c48560008181526001830160205260408120541515612748565b1561404a5760405163e208540b60e01b815260040160405180910390fd5b5050505050565b6040513360248201523060448201526064810185905260840160408051601f198184030181529190526020810180516001600160e01b0316632142170760e11b17905290505b600080866001600160a01b0316836040516140b291906152ac565b6000604051808303816000865af19150503d80600081146140ef576040519150601f19603f3d011682016040523d82523d6000602084013e6140f4565b606091505b50915091508181906136165760405162461bcd60e51b815260040161182b919061450b565b6000818152600183016020526040812054801561420257600061413d600183614f6f565b855490915060009061415190600190614f6f565b90508181146141b657600086600001828154811061417157614171614ec9565b906000526020600020015490508087600001848154811061419457614194614ec9565b6000918252602080832090910192909255918252600188019052604090208390555b85548690806141c7576141c76152c8565b600190038181906000526020600020016000905590558560010160008681526020019081526020016000206000905560019350505050610b17565b6000915050610b17565b600081815260018301602052604081205461425357508154600181810184556000848152602080822090930184905584548482528286019093526040902091909155610b17565b506000610b17565b82805461426790614e4f565b90600052602060002090601f01602090048101928261428957600085556142cf565b82601f106142a257805160ff19168380011785556142cf565b828001600101855582156142cf579182015b828111156142cf5782518255916020019190600101906142b4565b506142db9291506142df565b5090565b5b808211156142db57600081556001016142e0565b60006020828403121561430657600080fd5b81356001600160e01b03198116811461274857600080fd5b634e487b7160e01b600052604160045260246000fd5b604051601f8201601f191681016001600160401b038111828210171561435c5761435c61431e565b604052919050565b600082601f83011261437557600080fd5b81356001600160401b0381111561438e5761438e61431e565b6143a1601f8201601f1916602001614334565b8181528460208386010111156143b657600080fd5b816020850160208301376000918101602001919091529392505050565b6001600160a01b0381168114612a2a57600080fd5b8015158114612a2a57600080fd5b60008060008060008060c0878903121561440f57600080fd5b86356001600160401b038082111561442657600080fd5b6144328a838b01614364565b9750602089013591508082111561444857600080fd5b5061445589828a01614364565b9550506040870135614466816143d3565b93506060870135614476816143d3565b92506080870135614486816143e8565b915060a0870135614496816143e8565b809150509295509295509295565b600080600080600060a086880312156144bc57600080fd5b505083359560208501359550604085013594606081013594506080013592509050565b60005b838110156144fa5781810151838201526020016144e2565b83811115610ad15750506000910152565b602081526000825180602084015261452a8160408501602087016144df565b601f01601f19169190910160400192915050565b6000806040838503121561455157600080fd5b823561455c816143d3565b946020939093013593505050565b6000806000806080858703121561458057600080fd5b843561458b816143d3565b9350602085013561459b816143d3565b92506040850135915060608501356001600160401b038111156145bd57600080fd5b6145c987828801614364565b91505092959194509250565b6000806000606084860312156145ea57600080fd5b83356145f5816143d3565b92506020840135614605816143d3565b929592945050506040919091013590565b600081518084526020808501945080840160005b838110156146465781518752958201959082019060010161462a565b509495945050505050565b6020815260006127486020830184614616565b60006020828403121561467657600080fd5b5035919050565b60008083601f84011261468f57600080fd5b5081356001600160401b038111156146a657600080fd5b6020830191508360208260051b85010111156146c157600080fd5b9250929050565b600080600080604085870312156146de57600080fd5b84356001600160401b03808211156146f557600080fd5b6147018883890161467d565b9096509450602087013591508082111561471a57600080fd5b506147278782880161467d565b95989497509550505050565b6000806040838503121561474657600080fd5b50508035926020909101359150565b634e487b7160e01b600052602160045260246000fd5b84815260208101849052608081016003841061479757634e487b7160e01b600052602160045260246000fd5b60408201939093526001600160a01b039190911660609091015292915050565b60008083601f8401126147c957600080fd5b5081356001600160401b038111156147e057600080fd5b6020830191508360208285010111156146c157600080fd5b60008060006040848603121561480d57600080fd5b8335925060208401356001600160401b0381111561482a57600080fd5b614836868287016147b7565b9497909650939450505050565b60008060008060006080868803121561485b57600080fd5b8535614866816143d3565b94506020860135614876816143d3565b93506040860135925060608601356001600160401b0381111561489857600080fd5b6148a4888289016147b7565b969995985093965092949392505050565b6000602082840312156148c757600080fd5b8135612748816143d3565b600082601f8301126148e357600080fd5b813560206001600160401b038211156148fe576148fe61431e565b8160051b61490d828201614334565b928352848101820192828101908785111561492757600080fd5b83870192505b848310156117ce5782358252918301919083019061492d565b6000806000806080858703121561495c57600080fd5b84356001600160401b038082111561497357600080fd5b61497f888389016148d2565b9550602087013591508082111561499557600080fd5b6149a1888389016148d2565b945060408701359150808211156149b757600080fd5b506149c4878288016148d2565b92505060608501356149d5816143d3565b939692955090935050565b600080602083850312156149f357600080fd5b82356001600160401b03811115614a0957600080fd5b614a158582860161467d565b90969095509350505050565b600080600060608486031215614a3657600080fd5b8335925060208401356001600160401b03811115614a5357600080fd5b614a5f868287016148d2565b9250506040840135614a70816143d3565b809150509250925092565b600080600060608486031215614a9057600080fd5b83356001600160401b0380821115614aa757600080fd5b614ab3878388016148d2565b94506020860135915080821115614ac957600080fd5b50614a5f868287016148d2565b600080600080600060a08688031215614aee57600080fd5b8535614af9816143d3565b94506020860135614b09816143d3565b935060408601356001600160401b0380821115614b2557600080fd5b614b3189838a016148d2565b94506060880135915080821115614b4757600080fd5b614b5389838a016148d2565b93506080880135915080821115614b6957600080fd5b50614b7688828901614364565b9150509295509295909350565b600080600060408486031215614b9857600080fd5b8335925060208401356001600160401b03811115614bb557600080fd5b6148368682870161467d565b60008060008060008060c08789031215614bda57600080fd5b8635614be5816143e8565b95506020870135614bf5816143e8565b94506040870135614c05816143e8565b93506060870135614476816143e8565b60008060008060008060608789031215614c2e57600080fd5b86356001600160401b0380821115614c4557600080fd5b614c518a838b0161467d565b90985096506020890135915080821115614c6a57600080fd5b614c768a838b0161467d565b90965094506040890135915080821115614c8f57600080fd5b50614c9c89828a0161467d565b979a9699509497509295939492505050565b60008060408385031215614cc157600080fd5b8235614ccc816143d3565b91506020830135614cdc816143d3565b809150509250929050565b60008060008060408587031215614cfd57600080fd5b84356001600160401b0380821115614d1457600080fd5b614d20888389016147b7565b90965094506020870135915080821115614d3957600080fd5b50614727878288016147b7565b600080600060608486031215614d5b57600080fd5b833592506020840135614d6d816143d3565b91506040840135614a70816143d3565b600060208284031215614d8f57600080fd5b81356001600160401b03811115614da557600080fd5b61237e848285016148d2565b600080600080600060a08688031215614dc957600080fd5b8535614dd4816143d3565b94506020860135614de4816143d3565b9350604086013592506060860135915060808601356001600160401b03811115614e0d57600080fd5b614b7688828901614364565b600060208284031215614e2b57600080fd5b8151612748816143d3565b600060208284031215614e4857600080fd5b5051919050565b600181811c90821680614e6357607f821691505b602082108103614e8357634e487b7160e01b600052602260045260246000fd5b50919050565b600080600080600060a08688031215614ea157600080fd5b5050835160208501516040860151606087015160809097015192989197509594509092509050565b634e487b7160e01b600052603260045260246000fd5b634e487b7160e01b600052601160045260246000fd5b60008219821115614f0857614f08614edf565b500190565b81835281816020850137506000828201602090810191909152601f909101601f19169091010190565b838152604060208201526000611177604083018486614f0d565b6000816000190483118215151615614f6a57614f6a614edf565b500290565b600082821015614f8157614f81614edf565b500390565b600060208284031215614f9857600080fd5b8151612748816143e8565b6020808252818101527f4f776e61626c653a2063616c6c6572206973206e6f7420746865206f776e6572604082015260600190565b6020808252601f908201527f5265656e7472616e637947756172643a207265656e7472616e742063616c6c00604082015260600190565b60a08152600061502260a0830188614616565b82810360208401526150348188614616565b905082810360408401526150488187614616565b9050828103606084015261505c8186614616565b91505060018060a01b03831660808301529695505050505050565b60608152600061508a6060830187614616565b82810360208401528481526001600160fb1b038511156150a957600080fd5b8460051b80876020840137600091016020019081526001600160a01b039390931660409290920191909152509392505050565b6060815260006150ef6060830186614616565b82810360208401526151018186614616565b91505060018060a01b0383166040830152949350505050565b634e487b7160e01b600052601260045260246000fd5b60008261513f5761513f61511a565b500490565b6020808252602e908201527f496e697469616c697a61626c653a20636f6e747261637420697320616c72656160408201526d191e481a5b9a5d1a585b1a5e995960921b606082015260800190565b6020808252602b908201527f496e697469616c697a61626c653a20636f6e7472616374206973206e6f74206960408201526a6e697469616c697a696e6760a81b606082015260800190565b6001600160a01b03878116825286166020820152604081018590526060810184905260a0608082018190526000906152189083018486614f0d565b98975050505050505050565b6001600160a01b0385811682528416602082015260a06040820181905260009061525090830185614616565b82810360608401526152628185614616565b838103608090940193909352505060008152602001949350505050565b60008261528e5761528e61511a565b500690565b6000600182016152a5576152a5614edf565b5060010190565b600082516152be8184602087016144df565b9190910192915050565b634e487b7160e01b600052603160045260246000fdfea2646970667358221220e2e3cbcbcadd8f810604eff883145e31aaa9d594a14126779035e077140eaec464736f6c634300080d0033",
  "devdoc": {
    "kind": "dev",
    "methods": {
      "allowance(address,address)": {
        "details": "See {IERC20-allowance}."
      },
      "approve(address,uint256)": {
        "details": "See {IERC20-approve}. NOTE: If `amount` is the maximum `uint256`, the allowance is not updated on `transferFrom`. This is semantically equivalent to an infinite approval. Requirements: - `spender` cannot be the zero address."
      },
      "balanceOf(address)": {
        "details": "See {IERC20-balanceOf}."
      },
      "decimals()": {
        "details": "Returns the number of decimals used to get its user representation. For example, if `decimals` equals `2`, a balance of `505` tokens should be displayed to a user as `5.05` (`505 / 10 ** 2`). Tokens usually opt for a value of 18, imitating the relationship between Ether and Wei. This is the value {ERC20} uses, unless this function is overridden; NOTE: This information is only used for _display_ purposes: it in no way affects any of the arithmetic of the contract, including {IERC20-balanceOf} and {IERC20-transfer}."
      },
      "decreaseAllowance(address,uint256)": {
        "details": "Atomically decreases the allowance granted to `spender` by the caller. This is an alternative to {approve} that can be used as a mitigation for problems described in {IERC20-approve}. Emits an {Approval} event indicating the updated allowance. Requirements: - `spender` cannot be the zero address. - `spender` must have allowance for the caller of at least `subtractedValue`."
      },
      "increaseAllowance(address,uint256)": {
        "details": "Atomically increases the allowance granted to `spender` by the caller. This is an alternative to {approve} that can be used as a mitigation for problems described in {IERC20-approve}. Emits an {Approval} event indicating the updated allowance. Requirements: - `spender` cannot be the zero address."
      },
      "maxFlashLoan(address)": {
        "details": "Returns the maximum amount of tokens available for loan.",
        "params": {
          "token": "The address of the token that is requested."
        },
        "returns": {
          "_0": "The amont of token that can be loaned."
        }
      },
      "name()": {
        "details": "Returns the name of the token."
      },
      "onERC721Received(address,address,uint256,bytes)": {
        "details": "See {IERC721Receiver-onERC721Received}. Always returns `IERC721Receiver.onERC721Received.selector`."
      },
      "owner()": {
        "details": "Returns the address of the current owner."
      },
      "renounceOwnership()": {
        "details": "Leaves the contract without owner. It will not be possible to call `onlyOwner` functions anymore. Can only be called by the current owner. NOTE: Renouncing ownership will leave the contract without an owner, thereby removing any functionality that is only available to the owner."
      },
      "setAuctionLength(uint256)": {
        "params": {
          "_auctionLength": "the new base price"
        }
      },
      "symbol()": {
        "details": "Returns the symbol of the token, usually a shorter version of the name."
      },
      "totalSupply()": {
        "details": "See {IERC20-totalSupply}."
      },
      "transfer(address,uint256)": {
        "details": "See {IERC20-transfer}. Requirements: - `to` cannot be the zero address. - the caller must have a balance of at least `amount`."
      },
      "transferFrom(address,address,uint256)": {
        "details": "See {IERC20-transferFrom}. Emits an {Approval} event indicating the updated allowance. This is not required by the EIP. See the note at the beginning of {ERC20}. NOTE: Does not update the allowance if the current allowance is the maximum `uint256`. Requirements: - `from` and `to` cannot be the zero address. - `from` must have a balance of at least `amount`. - the caller must have allowance for ``from``'s tokens of at least `amount`."
      },
      "transferOwnership(address)": {
        "details": "Transfers ownership of the contract to a new account (`newOwner`). Can only be called by the current owner."
      }
    },
    "version": 1
  },
  "userdoc": {
    "events": {
      "AuctionStarted(address,uint256,uint256)": {
        "notice": "An event emitted when an auction starts"
      },
      "AuctionWon(address,uint256,uint256)": {
        "notice": "An event emitted when an auction is won"
      },
      "BidMade(address,uint256,uint256)": {
        "notice": "An event emitted when a bid is made"
      }
    },
    "kind": "user",
    "methods": {
      "auctionLength()": {
        "notice": "the length of auctions"
      },
      "depositors(uint256)": {
        "notice": "only used for ERC-721 tokens"
      },
      "setAuctionLength(uint256)": {
        "notice": "allow curator to update the auction length"
      }
    },
    "version": 1
  },
  "storageLayout": {
    "storage": [
      {
        "astId": 274,
        "contract": "src/contracts/FNFTCollection.sol:FNFTCollection",
        "label": "_initialized",
        "offset": 0,
        "slot": "0",
        "type": "t_uint8"
      },
      {
        "astId": 277,
        "contract": "src/contracts/FNFTCollection.sol:FNFTCollection",
        "label": "_initializing",
        "offset": 1,
        "slot": "0",
        "type": "t_bool"
      },
      {
        "astId": 2270,
        "contract": "src/contracts/FNFTCollection.sol:FNFTCollection",
        "label": "__gap",
        "offset": 0,
        "slot": "1",
        "type": "t_array(t_uint256)50_storage"
      },
      {
        "astId": 10,
        "contract": "src/contracts/FNFTCollection.sol:FNFTCollection",
        "label": "_owner",
        "offset": 0,
        "slot": "51",
        "type": "t_address"
      },
      {
        "astId": 122,
        "contract": "src/contracts/FNFTCollection.sol:FNFTCollection",
        "label": "__gap",
        "offset": 0,
        "slot": "52",
        "type": "t_array(t_uint256)49_storage"
      },
      {
        "astId": 20218,
        "contract": "src/contracts/FNFTCollection.sol:FNFTCollection",
        "label": "_balances",
        "offset": 0,
        "slot": "101",
        "type": "t_mapping(t_address,t_uint256)"
      },
      {
        "astId": 20224,
        "contract": "src/contracts/FNFTCollection.sol:FNFTCollection",
        "label": "_allowances",
        "offset": 0,
        "slot": "102",
        "type": "t_mapping(t_address,t_mapping(t_address,t_uint256))"
      },
      {
        "astId": 20226,
        "contract": "src/contracts/FNFTCollection.sol:FNFTCollection",
        "label": "_totalSupply",
        "offset": 0,
        "slot": "103",
        "type": "t_uint256"
      },
      {
        "astId": 20228,
        "contract": "src/contracts/FNFTCollection.sol:FNFTCollection",
        "label": "_name",
        "offset": 0,
        "slot": "104",
        "type": "t_string_storage"
      },
      {
        "astId": 20230,
        "contract": "src/contracts/FNFTCollection.sol:FNFTCollection",
        "label": "_symbol",
        "offset": 0,
        "slot": "105",
        "type": "t_string_storage"
      },
      {
        "astId": 20827,
        "contract": "src/contracts/FNFTCollection.sol:FNFTCollection",
        "label": "__gap",
        "offset": 0,
        "slot": "106",
        "type": "t_array(t_uint256)45_storage"
      },
      {
        "astId": 20198,
        "contract": "src/contracts/FNFTCollection.sol:FNFTCollection",
        "label": "__gap",
        "offset": 0,
        "slot": "151",
        "type": "t_array(t_uint256)50_storage"
      },
      {
        "astId": 534,
        "contract": "src/contracts/FNFTCollection.sol:FNFTCollection",
        "label": "_status",
        "offset": 0,
        "slot": "201",
        "type": "t_uint256"
      },
      {
        "astId": 578,
        "contract": "src/contracts/FNFTCollection.sol:FNFTCollection",
        "label": "__gap",
        "offset": 0,
        "slot": "202",
        "type": "t_array(t_uint256)49_storage"
      },
      {
        "astId": 1985,
        "contract": "src/contracts/FNFTCollection.sol:FNFTCollection",
        "label": "__gap",
        "offset": 0,
        "slot": "251",
        "type": "t_array(t_uint256)50_storage"
      },
      {
        "astId": 2314,
        "contract": "src/contracts/FNFTCollection.sol:FNFTCollection",
        "label": "__gap",
        "offset": 0,
        "slot": "301",
        "type": "t_array(t_uint256)50_storage"
      },
      {
        "astId": 866,
        "contract": "src/contracts/FNFTCollection.sol:FNFTCollection",
        "label": "__gap",
        "offset": 0,
        "slot": "351",
        "type": "t_array(t_uint256)50_storage"
      },
      {
        "astId": 812,
        "contract": "src/contracts/FNFTCollection.sol:FNFTCollection",
        "label": "__gap",
        "offset": 0,
        "slot": "401",
        "type": "t_array(t_uint256)50_storage"
      },
      {
        "astId": 7612,
        "contract": "src/contracts/FNFTCollection.sol:FNFTCollection",
        "label": "quantity1155",
        "offset": 0,
        "slot": "451",
        "type": "t_mapping(t_uint256,t_uint256)"
      },
      {
        "astId": 7615,
        "contract": "src/contracts/FNFTCollection.sol:FNFTCollection",
        "label": "holdings",
        "offset": 0,
        "slot": "452",
        "type": "t_struct(UintSet)2796_storage"
      },
      {
        "astId": 7619,
        "contract": "src/contracts/FNFTCollection.sol:FNFTCollection",
        "label": "eligibilityStorage",
        "offset": 0,
        "slot": "454",
        "type": "t_contract(IEligibility)15014"
      },
      {
        "astId": 7623,
        "contract": "src/contracts/FNFTCollection.sol:FNFTCollection",
        "label": "factory",
        "offset": 0,
        "slot": "455",
        "type": "t_contract(IFNFTCollectionFactory)15903"
      },
      {
        "astId": 7627,
        "contract": "src/contracts/FNFTCollection.sol:FNFTCollection",
        "label": "vaultManager",
        "offset": 0,
        "slot": "456",
        "type": "t_contract(IVaultManager)17110"
      },
      {
        "astId": 7630,
        "contract": "src/contracts/FNFTCollection.sol:FNFTCollection",
        "label": "curator",
        "offset": 0,
        "slot": "457",
        "type": "t_address"
      },
      {
        "astId": 7633,
        "contract": "src/contracts/FNFTCollection.sol:FNFTCollection",
        "label": "vaultId",
        "offset": 0,
        "slot": "458",
        "type": "t_uint256"
      },
      {
        "astId": 7635,
        "contract": "src/contracts/FNFTCollection.sol:FNFTCollection",
        "label": "randNonce",
        "offset": 0,
        "slot": "459",
        "type": "t_uint256"
      },
      {
        "astId": 7639,
        "contract": "src/contracts/FNFTCollection.sol:FNFTCollection",
        "label": "auctionLength",
        "offset": 0,
        "slot": "460",
        "type": "t_uint256"
      },
      {
        "astId": 7642,
        "contract": "src/contracts/FNFTCollection.sol:FNFTCollection",
        "label": "assetAddress",
        "offset": 0,
        "slot": "461",
        "type": "t_address"
      },
      {
        "astId": 7645,
        "contract": "src/contracts/FNFTCollection.sol:FNFTCollection",
        "label": "is1155",
        "offset": 20,
        "slot": "461",
        "type": "t_bool"
      },
      {
        "astId": 7648,
        "contract": "src/contracts/FNFTCollection.sol:FNFTCollection",
        "label": "allowAllItems",
        "offset": 21,
        "slot": "461",
        "type": "t_bool"
      },
      {
        "astId": 7651,
        "contract": "src/contracts/FNFTCollection.sol:FNFTCollection",
        "label": "enableMint",
        "offset": 22,
        "slot": "461",
        "type": "t_bool"
      },
      {
        "astId": 7654,
        "contract": "src/contracts/FNFTCollection.sol:FNFTCollection",
        "label": "enableRandomRedeem",
        "offset": 23,
        "slot": "461",
        "type": "t_bool"
      },
      {
        "astId": 7657,
        "contract": "src/contracts/FNFTCollection.sol:FNFTCollection",
        "label": "enableTargetRedeem",
        "offset": 24,
        "slot": "461",
        "type": "t_bool"
      },
      {
        "astId": 7660,
        "contract": "src/contracts/FNFTCollection.sol:FNFTCollection",
        "label": "enableRandomSwap",
        "offset": 25,
        "slot": "461",
        "type": "t_bool"
      },
      {
        "astId": 7663,
        "contract": "src/contracts/FNFTCollection.sol:FNFTCollection",
        "label": "enableTargetSwap",
        "offset": 26,
        "slot": "461",
        "type": "t_bool"
      },
      {
        "astId": 7666,
        "contract": "src/contracts/FNFTCollection.sol:FNFTCollection",
        "label": "enableBid",
        "offset": 27,
        "slot": "461",
        "type": "t_bool"
      },
      {
        "astId": 7671,
        "contract": "src/contracts/FNFTCollection.sol:FNFTCollection",
        "label": "depositors",
        "offset": 0,
        "slot": "462",
        "type": "t_mapping(t_uint256,t_address)"
      },
      {
        "astId": 7676,
        "contract": "src/contracts/FNFTCollection.sol:FNFTCollection",
        "label": "auctions",
        "offset": 0,
        "slot": "463",
        "type": "t_mapping(t_uint256,t_struct(Auction)15117_storage)"
      }
    ],
    "types": {
      "t_address": {
        "encoding": "inplace",
        "label": "address",
        "numberOfBytes": "20"
      },
      "t_array(t_bytes32)dyn_storage": {
        "base": "t_bytes32",
        "encoding": "dynamic_array",
        "label": "bytes32[]",
        "numberOfBytes": "32"
      },
      "t_array(t_uint256)45_storage": {
        "base": "t_uint256",
        "encoding": "inplace",
        "label": "uint256[45]",
        "numberOfBytes": "1440"
      },
      "t_array(t_uint256)49_storage": {
        "base": "t_uint256",
        "encoding": "inplace",
        "label": "uint256[49]",
        "numberOfBytes": "1568"
      },
      "t_array(t_uint256)50_storage": {
        "base": "t_uint256",
        "encoding": "inplace",
        "label": "uint256[50]",
        "numberOfBytes": "1600"
      },
      "t_bool": {
        "encoding": "inplace",
        "label": "bool",
        "numberOfBytes": "1"
      },
      "t_bytes32": {
        "encoding": "inplace",
        "label": "bytes32",
        "numberOfBytes": "32"
      },
      "t_contract(IEligibility)15014": {
        "encoding": "inplace",
        "label": "contract IEligibility",
        "numberOfBytes": "20"
      },
      "t_contract(IFNFTCollectionFactory)15903": {
        "encoding": "inplace",
        "label": "contract IFNFTCollectionFactory",
        "numberOfBytes": "20"
      },
      "t_contract(IVaultManager)17110": {
        "encoding": "inplace",
        "label": "contract IVaultManager",
        "numberOfBytes": "20"
      },
      "t_enum(AuctionState)15107": {
        "encoding": "inplace",
        "label": "enum IFNFTCollection.AuctionState",
        "numberOfBytes": "1"
      },
      "t_mapping(t_address,t_mapping(t_address,t_uint256))": {
        "encoding": "mapping",
        "key": "t_address",
        "label": "mapping(address => mapping(address => uint256))",
        "numberOfBytes": "32",
        "value": "t_mapping(t_address,t_uint256)"
      },
      "t_mapping(t_address,t_uint256)": {
        "encoding": "mapping",
        "key": "t_address",
        "label": "mapping(address => uint256)",
        "numberOfBytes": "32",
        "value": "t_uint256"
      },
      "t_mapping(t_bytes32,t_uint256)": {
        "encoding": "mapping",
        "key": "t_bytes32",
        "label": "mapping(bytes32 => uint256)",
        "numberOfBytes": "32",
        "value": "t_uint256"
      },
      "t_mapping(t_uint256,t_address)": {
        "encoding": "mapping",
        "key": "t_uint256",
        "label": "mapping(uint256 => address)",
        "numberOfBytes": "32",
        "value": "t_address"
      },
      "t_mapping(t_uint256,t_struct(Auction)15117_storage)": {
        "encoding": "mapping",
        "key": "t_uint256",
        "label": "mapping(uint256 => struct IFNFTCollection.Auction)",
        "numberOfBytes": "32",
        "value": "t_struct(Auction)15117_storage"
      },
      "t_mapping(t_uint256,t_uint256)": {
        "encoding": "mapping",
        "key": "t_uint256",
        "label": "mapping(uint256 => uint256)",
        "numberOfBytes": "32",
        "value": "t_uint256"
      },
      "t_string_storage": {
        "encoding": "bytes",
        "label": "string",
        "numberOfBytes": "32"
      },
      "t_struct(Auction)15117_storage": {
        "encoding": "inplace",
        "label": "struct IFNFTCollection.Auction",
        "members": [
          {
            "astId": 15109,
            "contract": "src/contracts/FNFTCollection.sol:FNFTCollection",
            "label": "livePrice",
            "offset": 0,
            "slot": "0",
            "type": "t_uint256"
          },
          {
            "astId": 15111,
            "contract": "src/contracts/FNFTCollection.sol:FNFTCollection",
            "label": "end",
            "offset": 0,
            "slot": "1",
            "type": "t_uint256"
          },
          {
            "astId": 15114,
            "contract": "src/contracts/FNFTCollection.sol:FNFTCollection",
            "label": "state",
            "offset": 0,
            "slot": "2",
            "type": "t_enum(AuctionState)15107"
          },
          {
            "astId": 15116,
            "contract": "src/contracts/FNFTCollection.sol:FNFTCollection",
            "label": "winning",
            "offset": 1,
            "slot": "2",
            "type": "t_address"
          }
        ],
        "numberOfBytes": "96"
      },
      "t_struct(Set)2338_storage": {
        "encoding": "inplace",
        "label": "struct EnumerableSetUpgradeable.Set",
        "members": [
          {
            "astId": 2333,
            "contract": "src/contracts/FNFTCollection.sol:FNFTCollection",
            "label": "_values",
            "offset": 0,
            "slot": "0",
            "type": "t_array(t_bytes32)dyn_storage"
          },
          {
            "astId": 2337,
            "contract": "src/contracts/FNFTCollection.sol:FNFTCollection",
            "label": "_indexes",
            "offset": 0,
            "slot": "1",
            "type": "t_mapping(t_bytes32,t_uint256)"
          }
        ],
        "numberOfBytes": "64"
      },
      "t_struct(UintSet)2796_storage": {
        "encoding": "inplace",
        "label": "struct EnumerableSetUpgradeable.UintSet",
        "members": [
          {
            "astId": 2795,
            "contract": "src/contracts/FNFTCollection.sol:FNFTCollection",
            "label": "_inner",
            "offset": 0,
            "slot": "0",
            "type": "t_struct(Set)2338_storage"
          }
        ],
        "numberOfBytes": "64"
      },
      "t_uint256": {
        "encoding": "inplace",
        "label": "uint256",
        "numberOfBytes": "32"
      },
      "t_uint8": {
        "encoding": "inplace",
        "label": "uint8",
        "numberOfBytes": "1"
      }
    }
  }
}