{
  "address": "0xaDdCdE3006B9E89022131DA81827002AD1922973",
  "abi": [
    {
      "inputs": [],
      "name": "LockTooLong",
      "type": "error"
    },
    {
      "inputs": [],
      "name": "NotExcludedFromFees",
      "type": "error"
    },
    {
      "inputs": [],
      "name": "NotZapContract",
      "type": "error"
    },
    {
      "inputs": [],
      "name": "Paused",
      "type": "error"
    },
    {
      "inputs": [],
      "name": "Unauthorized",
      "type": "error"
    },
    {
      "inputs": [],
      "name": "XTokenNotDeployed",
      "type": "error"
    },
    {
      "anonymous": false,
      "inputs": [
        {
          "indexed": false,
          "internalType": "uint256",
          "name": "vaultId",
          "type": "uint256"
        },
        {
          "indexed": false,
          "internalType": "uint256",
          "name": "baseTokenAmount",
          "type": "uint256"
        },
        {
          "indexed": false,
          "internalType": "uint256",
          "name": "amount",
          "type": "uint256"
        },
        {
          "indexed": false,
          "internalType": "uint256",
          "name": "timelockUntil",
          "type": "uint256"
        },
        {
          "indexed": false,
          "internalType": "address",
          "name": "sender",
          "type": "address"
        }
      ],
      "name": "BaseTokenDeposited",
      "type": "event"
    },
    {
      "anonymous": false,
      "inputs": [
        {
          "indexed": false,
          "internalType": "uint256",
          "name": "vaultId",
          "type": "uint256"
        },
        {
          "indexed": false,
          "internalType": "uint256",
          "name": "amount",
          "type": "uint256"
        },
        {
          "indexed": false,
          "internalType": "address",
          "name": "xToken",
          "type": "address"
        }
      ],
      "name": "FeesReceived",
      "type": "event"
    },
    {
      "anonymous": false,
      "inputs": [
        {
          "indexed": false,
          "internalType": "uint8",
          "name": "version",
          "type": "uint8"
        }
      ],
      "name": "Initialized",
      "type": "event"
    },
    {
      "anonymous": false,
      "inputs": [
        {
          "indexed": false,
          "internalType": "uint256",
          "name": "oldInventoryLockTimeErc20",
          "type": "uint256"
        },
        {
          "indexed": false,
          "internalType": "uint256",
          "name": "newInventoryLockTimeErc20",
          "type": "uint256"
        }
      ],
      "name": "InventoryLockTimeErc20Updated",
      "type": "event"
    },
    {
      "anonymous": false,
      "inputs": [
        {
          "indexed": true,
          "internalType": "address",
          "name": "previousOwner",
          "type": "address"
        },
        {
          "indexed": true,
          "internalType": "address",
          "name": "newOwner",
          "type": "address"
        }
      ],
      "name": "OwnershipTransferred",
      "type": "event"
    },
    {
      "anonymous": false,
      "inputs": [
        {
          "indexed": false,
          "internalType": "address",
          "name": "addr",
          "type": "address"
        },
        {
          "indexed": false,
          "internalType": "bool",
          "name": "isGuardian",
          "type": "bool"
        }
      ],
      "name": "SetIsGuardian",
      "type": "event"
    },
    {
      "anonymous": false,
      "inputs": [
        {
          "indexed": false,
          "internalType": "uint256",
          "name": "lockId",
          "type": "uint256"
        },
        {
          "indexed": false,
          "internalType": "bool",
          "name": "paused",
          "type": "bool"
        }
      ],
      "name": "SetPaused",
      "type": "event"
    },
    {
      "anonymous": false,
      "inputs": [
        {
          "indexed": false,
          "internalType": "uint256",
          "name": "vaultId",
          "type": "uint256"
        },
        {
          "indexed": false,
          "internalType": "address",
          "name": "xToken",
          "type": "address"
        },
        {
          "indexed": false,
          "internalType": "address",
          "name": "baseToken",
          "type": "address"
        }
      ],
      "name": "StakingPoolCreated",
      "type": "event"
    },
    {
      "anonymous": false,
      "inputs": [
        {
          "indexed": false,
          "internalType": "address",
          "name": "oldTimelockExcludeList",
          "type": "address"
        },
        {
          "indexed": false,
          "internalType": "address",
          "name": "newTimelockExcludeList",
          "type": "address"
        }
      ],
      "name": "TimelockExcludeListUpdated",
      "type": "event"
    },
    {
      "anonymous": false,
      "inputs": [
        {
          "indexed": true,
          "internalType": "address",
          "name": "childImplementation",
          "type": "address"
        }
      ],
      "name": "Upgraded",
      "type": "event"
    },
    {
      "anonymous": false,
      "inputs": [
        {
          "indexed": false,
          "internalType": "uint256",
          "name": "vaultId",
          "type": "uint256"
        },
        {
          "indexed": false,
          "internalType": "uint256",
          "name": "baseTokenAmount",
          "type": "uint256"
        },
        {
          "indexed": false,
          "internalType": "uint256",
          "name": "amount",
          "type": "uint256"
        },
        {
          "indexed": false,
          "internalType": "address",
          "name": "sender",
          "type": "address"
        }
      ],
      "name": "XTokenWithdrawn",
      "type": "event"
    },
    {
      "inputs": [
        {
          "internalType": "address",
          "name": "childImplementation_",
          "type": "address"
        }
      ],
      "name": "__BeaconUpgradeable__init",
      "outputs": [],
      "stateMutability": "nonpayable",
      "type": "function"
    },
    {
      "inputs": [
        {
          "internalType": "address",
          "name": "_vaultManager",
          "type": "address"
        }
      ],
      "name": "__FNFTStaking_init",
      "outputs": [],
      "stateMutability": "nonpayable",
      "type": "function"
    },
    {
      "inputs": [
        {
          "internalType": "uint256",
          "name": "vaultId",
          "type": "uint256"
        },
        {
          "internalType": "address",
          "name": "who",
          "type": "address"
        }
      ],
      "name": "balanceOf",
      "outputs": [
        {
          "internalType": "uint256",
          "name": "",
          "type": "uint256"
        }
      ],
      "stateMutability": "view",
      "type": "function"
    },
    {
      "inputs": [],
      "name": "childImplementation",
      "outputs": [
        {
          "internalType": "address",
          "name": "",
          "type": "address"
        }
      ],
      "stateMutability": "view",
      "type": "function"
    },
    {
      "inputs": [
        {
          "internalType": "uint256",
          "name": "vaultId",
          "type": "uint256"
        }
      ],
      "name": "deployXTokenForVault",
      "outputs": [],
      "stateMutability": "nonpayable",
      "type": "function"
    },
    {
      "inputs": [
        {
          "internalType": "uint256",
          "name": "vaultId",
          "type": "uint256"
        },
        {
          "internalType": "uint256",
          "name": "_amount",
          "type": "uint256"
        }
      ],
      "name": "deposit",
      "outputs": [],
      "stateMutability": "nonpayable",
      "type": "function"
    },
    {
      "inputs": [],
      "name": "inventoryLockTimeErc20",
      "outputs": [
        {
          "internalType": "uint256",
          "name": "",
          "type": "uint256"
        }
      ],
      "stateMutability": "view",
      "type": "function"
    },
    {
      "inputs": [
        {
          "internalType": "address",
          "name": "addr",
          "type": "address"
        },
        {
          "internalType": "uint256",
          "name": "vaultId",
          "type": "uint256"
        }
      ],
      "name": "isAddressTimelockExcluded",
      "outputs": [
        {
          "internalType": "bool",
          "name": "",
          "type": "bool"
        }
      ],
      "stateMutability": "view",
      "type": "function"
    },
    {
      "inputs": [
        {
          "internalType": "address",
          "name": "",
          "type": "address"
        }
      ],
      "name": "isGuardian",
      "outputs": [
        {
          "internalType": "bool",
          "name": "",
          "type": "bool"
        }
      ],
      "stateMutability": "view",
      "type": "function"
    },
    {
      "inputs": [
        {
          "internalType": "uint256",
          "name": "",
          "type": "uint256"
        }
      ],
      "name": "isPaused",
      "outputs": [
        {
          "internalType": "bool",
          "name": "",
          "type": "bool"
        }
      ],
      "stateMutability": "view",
      "type": "function"
    },
    {
      "inputs": [
        {
          "internalType": "uint256",
          "name": "lockId",
          "type": "uint256"
        }
      ],
      "name": "onlyOwnerIfPaused",
      "outputs": [],
      "stateMutability": "view",
      "type": "function"
    },
    {
      "inputs": [],
      "name": "owner",
      "outputs": [
        {
          "internalType": "address",
          "name": "",
          "type": "address"
        }
      ],
      "stateMutability": "view",
      "type": "function"
    },
    {
      "inputs": [
        {
          "internalType": "uint256",
          "name": "lockId",
          "type": "uint256"
        }
      ],
      "name": "pause",
      "outputs": [],
      "stateMutability": "nonpayable",
      "type": "function"
    },
    {
      "inputs": [
        {
          "internalType": "uint256",
          "name": "vaultId",
          "type": "uint256"
        },
        {
          "internalType": "uint256",
          "name": "amount",
          "type": "uint256"
        }
      ],
      "name": "receiveRewards",
      "outputs": [
        {
          "internalType": "bool",
          "name": "",
          "type": "bool"
        }
      ],
      "stateMutability": "nonpayable",
      "type": "function"
    },
    {
      "inputs": [],
      "name": "renounceOwnership",
      "outputs": [],
      "stateMutability": "nonpayable",
      "type": "function"
    },
    {
      "inputs": [
        {
          "internalType": "uint256",
          "name": "_inventoryLockTimeErc20",
          "type": "uint256"
        }
      ],
      "name": "setInventoryLockTimeErc20",
      "outputs": [],
      "stateMutability": "nonpayable",
      "type": "function"
    },
    {
      "inputs": [
        {
          "internalType": "address",
          "name": "_address",
          "type": "address"
        },
        {
          "internalType": "bool",
          "name": "_isGuardian",
          "type": "bool"
        }
      ],
      "name": "setIsGuardian",
      "outputs": [],
      "stateMutability": "nonpayable",
      "type": "function"
    },
    {
      "inputs": [
        {
          "internalType": "address",
          "name": "_timelockExcludeList",
          "type": "address"
        }
      ],
      "name": "setTimelockExcludeList",
      "outputs": [],
      "stateMutability": "nonpayable",
      "type": "function"
    },
    {
      "inputs": [],
      "name": "timelockExcludeList",
      "outputs": [
        {
          "internalType": "contract ITimelockExcludeList",
          "name": "",
          "type": "address"
        }
      ],
      "stateMutability": "view",
      "type": "function"
    },
    {
      "inputs": [
        {
          "internalType": "uint256",
          "name": "vaultId",
          "type": "uint256"
        },
        {
          "internalType": "uint256",
          "name": "amount",
          "type": "uint256"
        },
        {
          "internalType": "address",
          "name": "to",
          "type": "address"
        },
        {
          "internalType": "uint256",
          "name": "timelockLength",
          "type": "uint256"
        }
      ],
      "name": "timelockMintFor",
      "outputs": [
        {
          "internalType": "uint256",
          "name": "",
          "type": "uint256"
        }
      ],
      "stateMutability": "nonpayable",
      "type": "function"
    },
    {
      "inputs": [
        {
          "internalType": "uint256",
          "name": "vaultId",
          "type": "uint256"
        },
        {
          "internalType": "address",
          "name": "who",
          "type": "address"
        }
      ],
      "name": "timelockUntil",
      "outputs": [
        {
          "internalType": "uint256",
          "name": "",
          "type": "uint256"
        }
      ],
      "stateMutability": "view",
      "type": "function"
    },
    {
      "inputs": [
        {
          "internalType": "address",
          "name": "newOwner",
          "type": "address"
        }
      ],
      "name": "transferOwnership",
      "outputs": [],
      "stateMutability": "nonpayable",
      "type": "function"
    },
    {
      "inputs": [
        {
          "internalType": "uint256",
          "name": "lockId",
          "type": "uint256"
        }
      ],
      "name": "unpause",
      "outputs": [],
      "stateMutability": "nonpayable",
      "type": "function"
    },
    {
      "inputs": [
        {
          "internalType": "address",
          "name": "newChildImplementation",
          "type": "address"
        }
      ],
      "name": "upgradeChildTo",
      "outputs": [],
      "stateMutability": "nonpayable",
      "type": "function"
    },
    {
      "inputs": [],
      "name": "vaultManager",
      "outputs": [
        {
          "internalType": "contract IVaultManager",
          "name": "",
          "type": "address"
        }
      ],
      "stateMutability": "view",
      "type": "function"
    },
    {
      "inputs": [
        {
          "internalType": "uint256",
          "name": "vaultId",
          "type": "uint256"
        }
      ],
      "name": "vaultXToken",
      "outputs": [
        {
          "internalType": "address",
          "name": "",
          "type": "address"
        }
      ],
      "stateMutability": "view",
      "type": "function"
    },
    {
      "inputs": [
        {
          "internalType": "uint256",
          "name": "vaultId",
          "type": "uint256"
        },
        {
          "internalType": "uint256",
          "name": "_share",
          "type": "uint256"
        }
      ],
      "name": "withdraw",
      "outputs": [],
      "stateMutability": "nonpayable",
      "type": "function"
    },
    {
      "inputs": [
        {
          "internalType": "address",
          "name": "baseToken",
          "type": "address"
        }
      ],
      "name": "xTokenAddr",
      "outputs": [
        {
          "internalType": "address",
          "name": "",
          "type": "address"
        }
      ],
      "stateMutability": "view",
      "type": "function"
    },
    {
      "inputs": [
        {
          "internalType": "uint256",
          "name": "vaultId",
          "type": "uint256"
        }
      ],
      "name": "xTokenShareValue",
      "outputs": [
        {
          "internalType": "uint256",
          "name": "",
          "type": "uint256"
        }
      ],
      "stateMutability": "view",
      "type": "function"
    }
  ],
  "transactionHash": "0xeb3964d518ab212558177194e09b616cab1f971c4cc44cedcb9056c21d8405aa",
  "args": [],
  "numDeployments": 1,
  "solcInputHash": "bf0ff9e6b7fc2e915dfac7a0da096a36",
  "bytecode": "0x608060405234801561001057600080fd5b5061438a806100206000396000f3fe60806040523480156200001157600080fd5b5060043610620001f55760003560e01c8063715018a61162000119578063c23c6da011620000af578063f0f2a4d7116200007a578063f0f2a4d7146200046c578063f2fde38b1462000483578063f36d52da146200049a578063fabc1cbc14620004b157600080fd5b8063c23c6da01462000415578063cda13d67146200042c578063da5257161462000443578063e2bbb158146200045557600080fd5b80638a4adf2411620000f05780638a4adf2414620003b25780638da5cb5b14620003c657806392054f8b14620003d8578063bdf2a43c14620003ef57600080fd5b8063715018a6146200037a5780637c77b6161462000384578063881b2f2d146200039b57600080fd5b80632699f55a116200018f5780633a2950af11620001665780633a2950af146200031e5780634363fcd21462000335578063441a3e70146200034c5780636bf4b28d146200036357600080fd5b80632699f55a14620002d75780633656eec214620002fd57806337ce42bf146200031457600080fd5b806311ad9d3811620001d057806311ad9d38146200027e578063136439dd14620002925780631f1713fc14620002a957806323845fb514620002c057600080fd5b8063034fc83c14620001fa5780630c68ba21146200022e57806310d25c511462000265575b600080fd5b620002116200020b36600462001e55565b620004c8565b6040516001600160a01b0390911681526020015b60405180910390f35b620002546200023f36600462001e85565b60656020526000908152604090205460ff1681565b604051901515815260200162000225565b6200027c6200027636600462001e85565b62000575565b005b60695462000211906001600160a01b031681565b6200027c620002a336600462001e55565b620005f3565b6200027c620002ba36600462001e85565b6200067b565b6200027c620002d136600462001eb4565b620006bf565b620002ee620002e836600462001ef2565b62000749565b60405190815260200162000225565b620002ee6200030e36600462001f34565b62000904565b620002ee606a5481565b6200027c6200032f36600462001e55565b6200098e565b620002ee6200034636600462001e55565b62000a21565b6200027c6200035d36600462001f5c565b62000c3b565b6200027c6200037436600462001e85565b62000d86565b6200027c62000e53565b6200027c6200039536600462001e55565b62000e8e565b62000254620003ac36600462001f7f565b62000ed7565b60685462000211906001600160a01b031681565b6033546001600160a01b031662000211565b6200027c620003e936600462001e85565b62000f74565b620002546200040036600462001e55565b60666020526000908152604090205460ff1681565b620002ee6200042636600462001f34565b6200100a565b620002116200043d36600462001e85565b6200104b565b6067546001600160a01b031662000211565b6200027c6200046636600462001f5c565b620010c4565b6200027c6200047d36600462001e55565b62001178565b6200027c6200049436600462001e85565b62001267565b62000254620004ab36600462001f5c565b62001306565b6200027c620004c236600462001e55565b62001555565b6068546040516340d1b7db60e11b81526004810183905260009182916001600160a01b03909116906381a36fb690602401602060405180830381865afa15801562000517573d6000803e3d6000fd5b505050506040513d601f19601f820116820180604052508101906200053d919062001fae565b905060006200054c826200104b565b9050803b6200056e5760405163247ada6f60e21b815260040160405180910390fd5b9392505050565b6000620005836001620015d0565b905080156200059c576000805461ff0019166101001790555b620005a78262001660565b8015620005ef576000805461ff0019169055604051600181527f7f26b83ff96e1f2b6a682f133852f6798a09c465da95921460cefb3847402498906020015b60405180910390a15b5050565b3360009081526065602052604090205460ff1662000623576040516282b42960e81b815260040160405180910390fd5b600081815260666020908152604091829020805460ff191660019081179091558251848152918201527f77f1fcfcce67dc392d64f842056d2ec06c80986c47c910f7e79c5b23a2738d7491015b60405180910390a150565b6033546001600160a01b03163314620006b15760405162461bcd60e51b8152600401620006a89062001fce565b60405180910390fd5b620006bc8162001660565b50565b6033546001600160a01b03163314620006ec5760405162461bcd60e51b8152600401620006a89062001fce565b6001600160a01b038216600081815260656020908152604091829020805460ff19168515159081179091558251938452908301527fd0b6b573d5442f7c29fd50d9735ae341581c25c6ed07748d50eda519f1ffa88a9101620005e6565b600062000757600a62000e8e565b606860009054906101000a90046001600160a01b03166001600160a01b0316632549dad96040518163ffffffff1660e01b8152600401602060405180830381865afa158015620007ab573d6000803e3d6000fd5b505050506040513d601f19601f82011682018060405250810190620007d1919062001fae565b6001600160a01b0316336001600160a01b031614620008035760405163cc38e9cd60e01b815260040160405180910390fd5b6068546040516306df336560e51b81523360048201526001600160a01b039091169063dbe66ca090602401602060405180830381865afa1580156200084c573d6000803e3d6000fd5b505050506040513d601f19601f8201168201806040525081019062000872919062002003565b620008905760405163185ab21560e01b815260040160405180910390fd5b6000620008a08685878662001729565b604080518a8152602081018a9052808201839052606081018890526001600160a01b038916608082015290519194507fcb948aa5466c16c5e14f1d6a1eac8be9a89ae1e1c54e0b62a310dd9aad78b3e2935081900360a0019150a195945050505050565b6000806200091284620004c8565b6040516370a0823160e01b81526001600160a01b038581166004830152919250908216906370a08231906024015b602060405180830381865afa1580156200095e573d6000803e3d6000fd5b505050506040513d601f19601f8201168201806040525081019062000984919062002023565b9150505b92915050565b6033546001600160a01b03163314620009bb5760405162461bcd60e51b8152600401620006a89062001fce565b62127500811115620009e05760405163d6946a4360e01b815260040160405180910390fd5b606a5460408051918252602082018390527fe5952d275d14a5e568e02a067d5c6713666d1c2ef6a8799aabfe14a6f447e7fd910160405180910390a1606a55565b6068546040516340d1b7db60e11b81526004810183905260009182916001600160a01b03909116906381a36fb690602401602060405180830381865afa15801562000a70573d6000803e3d6000fd5b505050506040513d601f19601f8201168201806040525081019062000a96919062001fae565b9050600062000aa5826200104b565b9050803b62000ac75760405163247ada6f60e21b815260040160405180910390fd5b6000670de0b6b3a764000090506000826001600160a01b03166318160ddd6040518163ffffffff1660e01b8152600401602060405180830381865afa15801562000b15573d6000803e3d6000fd5b505050506040513d601f19601f8201168201806040525081019062000b3b919062002023565b1162000b48578062000c32565b816001600160a01b03166318160ddd6040518163ffffffff1660e01b8152600401602060405180830381865afa15801562000b87573d6000803e3d6000fd5b505050506040513d601f19601f8201168201806040525081019062000bad919062002023565b6040516370a0823160e01b81526001600160a01b0384811660048301528516906370a0823190602401602060405180830381865afa15801562000bf4573d6000803e3d6000fd5b505050506040513d601f19601f8201168201806040525081019062000c1a919062002023565b62000c2690836200203d565b62000c3291906200206b565b95945050505050565b6068546040516340d1b7db60e11b8152600481018490526000916001600160a01b0316906381a36fb690602401602060405180830381865afa15801562000c86573d6000803e3d6000fd5b505050506040513d601f19601f8201168201806040525081019062000cac919062001fae565b9050600062000cbb826200104b565b6040516319e616a360e01b8152336004820152602481018590529091506000906001600160a01b038316906319e616a3906044016020604051808303816000875af115801562000d0f573d6000803e3d6000fd5b505050506040513d601f19601f8201168201806040525081019062000d35919062002023565b60408051878152602081018390529081018690523360608201529091507f69aab271f7a095bfee243dba74e553831e9cfa92f358c798ba0fa3be6af4439f9060800160405180910390a15050505050565b600062000d946001620015d0565b9050801562000dad576000805461ff0019166101001790555b62000db76200184d565b606880546001600160a01b0319166001600160a01b03841617905560405160009062000de39062001e39565b604051809103906000f08015801562000e00573d6000803e3d6000fd5b50905062000e0e8162000575565b508015620005ef576000805461ff0019169055604051600181527f7f26b83ff96e1f2b6a682f133852f6798a09c465da95921460cefb384740249890602001620005e6565b6033546001600160a01b0316331462000e805760405162461bcd60e51b8152600401620006a89062001fce565b62000e8c600062001881565b565b60008181526066602052604090205460ff16801562000eb857506033546001600160a01b03163314155b15620006bc576040516313d0ff5960e31b815260040160405180910390fd5b6069546000906001600160a01b031662000ef45750600062000988565b6069546040516340f4bdb360e11b81526001600160a01b03858116600483015260248201859052909116906381e97b6690604401602060405180830381865afa15801562000f46573d6000803e3d6000fd5b505050506040513d601f19601f8201168201806040525081019062000f6c919062002003565b905062000988565b6033546001600160a01b0316331462000fa15760405162461bcd60e51b8152600401620006a89062001fce565b606954604080516001600160a01b03928316815291831660208301527f3c20340c4c83dfad2af129dad6f4e34a96aa936e0e81f9a1d07989d218e0a211910160405180910390a1606980546001600160a01b0319166001600160a01b0392909216919091179055565b6000806200101884620004c8565b60405163c19ea05360e01b81526001600160a01b0385811660048301529192509082169063c19ea0539060240162000940565b6040516001600160601b0319606083901b16602082015260009081906034016040516020818303038152906040528051906020012090506000620010bc82604051806020016200109b9062001e47565b6020820181038252601f19601f8201166040525080519060200120620018d3565b949350505050565b620010d0600a62000e8e565b6000620010de338462000ed7565b620010ec57606a54620010ef565b60005b90506000806000620011048633878762001729565b91945092509050620011226001600160a01b0384163384886200192b565b6040805187815260208101879052908101829052606081018590523360808201527fcb948aa5466c16c5e14f1d6a1eac8be9a89ae1e1c54e0b62a310dd9aad78b3e29060a00160405180910390a1505050505050565b6068546040516340d1b7db60e11b8152600481018390526000916001600160a01b0316906381a36fb690602401602060405180830381865afa158015620011c3573d6000803e3d6000fd5b505050506040513d601f19601f82011682018060405250810190620011e9919062001fae565b90506000620011f8826200104b565b9050803b156200120757505050565b600062001214836200198d565b604080518681526001600160a01b03838116602083015286168183015290519192507f056067fe6492bd58817601fe2c177ad41634f59fa61a75c560052894c84f8fce919081900360600190a150505050565b6033546001600160a01b03163314620012945760405162461bcd60e51b8152600401620006a89062001fce565b6001600160a01b038116620012fb5760405162461bcd60e51b815260206004820152602660248201527f4f776e61626c653a206e6577206f776e657220697320746865207a65726f206160448201526564647265737360d01b6064820152608401620006a8565b620006bc8162001881565b60006200131b6033546001600160a01b031690565b6001600160a01b0316336001600160a01b031614158015620013c85750606860009054906101000a90046001600160a01b03166001600160a01b0316630d43e8ad6040518163ffffffff1660e01b8152600401602060405180830381865afa1580156200138c573d6000803e3d6000fd5b505050506040513d601f19601f82011682018060405250810190620013b2919062001fae565b6001600160a01b0316336001600160a01b031614155b15620013e6576040516282b42960e81b815260040160405180910390fd5b6068546040516340d1b7db60e11b8152600481018590526000916001600160a01b0316906381a36fb690602401602060405180830381865afa15801562001431573d6000803e3d6000fd5b505050506040513d601f19601f8201168201806040525081019062001457919062001fae565b9050600062001466826200104b565b9050803b1580620014d95750806001600160a01b03166318160ddd6040518163ffffffff1660e01b8152600401602060405180830381865afa158015620014b1573d6000803e3d6000fd5b505050506040513d601f19601f82011682018060405250810190620014d7919062002023565b155b15620014eb5760009250505062000988565b620015026001600160a01b0383163383876200192b565b60408051868152602081018690526001600160a01b0383168183015290517f7ab84b72efa4574988089c5a1831f7d56a254f969fbe7d2b6d7e6238272a4afc9181900360600190a1506001949350505050565b6033546001600160a01b03163314620015825760405162461bcd60e51b8152600401620006a89062001fce565b6000818152606660209081526040808320805460ff191690558051848152918201929092527f77f1fcfcce67dc392d64f842056d2ec06c80986c47c910f7e79c5b23a2738d74910162000670565b60008054610100900460ff16156200161c578160ff166001148015620015f55750303b155b620016145760405162461bcd60e51b8152600401620006a8906200208e565b506000919050565b60005460ff808416911610620016465760405162461bcd60e51b8152600401620006a8906200208e565b506000805460ff191660ff92909216919091179055600190565b6001600160a01b0381163b620016df5760405162461bcd60e51b815260206004820152603960248201527f5570677261646561626c65426561636f6e3a206368696c6420696d706c656d6560448201527f6e746174696f6e206973206e6f74206120636f6e7472616374000000000000006064820152608401620006a8565b606780546001600160a01b0319166001600160a01b0383169081179091556040517fbc7cd75a20ee27fd9adebab32041f755214dbc6bffa90cc0225b39da2e5c2d3b90600090a250565b6000806000620017398762001178565b6068546040516340d1b7db60e11b8152600481018990526000916001600160a01b0316906381a36fb690602401602060405180830381865afa15801562001784573d6000803e3d6000fd5b505050506040513d601f19601f82011682018060405250810190620017aa919062001fae565b90506000620017b9826200104b565b604051637efe41b160e01b81526001600160a01b038a81166004830152602482018a905260448201899052919250600091831690637efe41b1906064016020604051808303816000875af115801562001816573d6000803e3d6000fd5b505050506040513d601f19601f820116820180604052508101906200183c919062002023565b929a91995091975095505050505050565b600054610100900460ff16620018775760405162461bcd60e51b8152600401620006a890620020dc565b62000e8c62001af9565b603380546001600160a01b038381166001600160a01b0319831681179093556040519116919082907f8be0079c531659141344cd1fd0a4f28419497f9722a3daafe3b4186f6b6457e090600090a35050565b604080516001600160f81b03196020808301919091526001600160601b03193060601b16602183015260358201859052605580830185905283518084039091018152607590920190925280519101206000906200056e565b604080516001600160a01b0385811660248301528416604482015260648082018490528251808303909101815260849091019091526020810180516001600160e01b03166323b872dd60e01b1790526200198790859062001b2e565b50505050565b600080826001600160a01b03166395d89b416040518163ffffffff1660e01b8152600401600060405180830381865afa158015620019cf573d6000803e3d6000fd5b505050506040513d6000823e601f3d908101601f19168201604052620019f991908101906200216c565b90508060405160200162001a0e91906200221a565b60408051601f19818403018152908290526001600160601b0319606086901b1660208301529150600090603401604051602081830303815290604052805190602001209050600062001a876000836040518060200162001a6e9062001e47565b601f1982820381018352601f9091011660405262001c0c565b604051632db1cb1360e01b81529091506001600160a01b03821690632db1cb139062001abc9088908790819060040162002273565b600060405180830381600087803b15801562001ad757600080fd5b505af115801562001aec573d6000803e3d6000fd5b5092979650505050505050565b600054610100900460ff1662001b235760405162461bcd60e51b8152600401620006a890620020dc565b62000e8c3362001881565b600062001b85826040518060400160405280602081526020017f5361666545524332303a206c6f772d6c6576656c2063616c6c206661696c6564815250856001600160a01b031662001d179092919063ffffffff16565b80519091501562001c07578080602001905181019062001ba6919062002003565b62001c075760405162461bcd60e51b815260206004820152602a60248201527f5361666545524332303a204552433230206f7065726174696f6e20646964206e6044820152691bdd081cdd58d8d9595960b21b6064820152608401620006a8565b505050565b6000808447101562001c615760405162461bcd60e51b815260206004820152601d60248201527f437265617465323a20696e73756666696369656e742062616c616e63650000006044820152606401620006a8565b825160000362001cb45760405162461bcd60e51b815260206004820181905260248201527f437265617465323a2062797465636f6465206c656e677468206973207a65726f6044820152606401620006a8565b8383516020850187f590506001600160a01b038116620010bc5760405162461bcd60e51b815260206004820152601960248201527f437265617465323a204661696c6564206f6e206465706c6f79000000000000006044820152606401620006a8565b6060620010bc8484600085856001600160a01b0385163b62001d7c5760405162461bcd60e51b815260206004820152601d60248201527f416464726573733a2063616c6c20746f206e6f6e2d636f6e74726163740000006044820152606401620006a8565b600080866001600160a01b0316858760405162001d9a9190620022b7565b60006040518083038185875af1925050503d806000811462001dd9576040519150601f19603f3d011682016040523d82523d6000602084013e62001dde565b606091505b509150915062001df082828662001dfb565b979650505050505050565b6060831562001e0c5750816200056e565b82511562001e1d5782518084602001fd5b8160405162461bcd60e51b8152600401620006a89190620022d5565b61189380620022eb83390190565b6107d78062003b7e83390190565b60006020828403121562001e6857600080fd5b5035919050565b6001600160a01b0381168114620006bc57600080fd5b60006020828403121562001e9857600080fd5b81356200056e8162001e6f565b8015158114620006bc57600080fd5b6000806040838503121562001ec857600080fd5b823562001ed58162001e6f565b9150602083013562001ee78162001ea5565b809150509250929050565b6000806000806080858703121562001f0957600080fd5b8435935060208501359250604085013562001f248162001e6f565b9396929550929360600135925050565b6000806040838503121562001f4857600080fd5b82359150602083013562001ee78162001e6f565b6000806040838503121562001f7057600080fd5b50508035926020909101359150565b6000806040838503121562001f9357600080fd5b823562001fa08162001e6f565b946020939093013593505050565b60006020828403121562001fc157600080fd5b81516200056e8162001e6f565b6020808252818101527f4f776e61626c653a2063616c6c6572206973206e6f7420746865206f776e6572604082015260600190565b6000602082840312156200201657600080fd5b81516200056e8162001ea5565b6000602082840312156200203657600080fd5b5051919050565b60008160001904831182151516156200206657634e487b7160e01b600052601160045260246000fd5b500290565b6000826200208957634e487b7160e01b600052601260045260246000fd5b500490565b6020808252602e908201527f496e697469616c697a61626c653a20636f6e747261637420697320616c72656160408201526d191e481a5b9a5d1a585b1a5e995960921b606082015260800190565b6020808252602b908201527f496e697469616c697a61626c653a20636f6e7472616374206973206e6f74206960408201526a6e697469616c697a696e6760a81b606082015260800190565b634e487b7160e01b600052604160045260246000fd5b60005b838110156200215a57818101518382015260200162002140565b83811115620019875750506000910152565b6000602082840312156200217f57600080fd5b815167ffffffffffffffff808211156200219857600080fd5b818401915084601f830112620021ad57600080fd5b815181811115620021c257620021c262002127565b604051601f8201601f19908116603f01168101908382118183101715620021ed57620021ed62002127565b816040528281528760208487010111156200220757600080fd5b62001df08360208301602088016200213d565b600f60fb1b815260008251620022388160018501602087016200213d565b9190910160010192915050565b600081518084526200225f8160208601602086016200213d565b601f01601f19169290920160200192915050565b6001600160a01b0384168152606060208201819052600090620022999083018562002245565b8281036040840152620022ad818562002245565b9695505050505050565b60008251620022cb8184602087016200213d565b9190910192915050565b6020815260006200056e60208301846200224556fe608060405234801561001057600080fd5b50611873806100206000396000f3fe608060405234801561001057600080fd5b506004361061012c5760003560e01c80637efe41b1116100ad578063b068498d11610071578063b068498d14610278578063c19ea0531461028b578063c55dae63146102b4578063dd62ed3e146102c7578063f2fde38b1461030057600080fd5b80637efe41b1146102125780638da5cb5b1461022557806395d89b411461024a578063a457c2d714610252578063a9059cbb1461026557600080fd5b80632db1cb13116100f45780632db1cb13146101aa578063313ce567146101bf57806339509351146101ce57806370a08231146101e1578063715018a61461020a57600080fd5b806306fdde0314610131578063095ea7b31461014f57806318160ddd1461017257806319e616a31461018457806323b872dd14610197575b600080fd5b610139610313565b6040516101469190611410565b60405180910390f35b61016261015d36600461145a565b6103a5565b6040519015158152602001610146565b6067545b604051908152602001610146565b61017661019236600461145a565b6103bd565b6101626101a5366004611484565b6104af565b6101bd6101b8366004611563565b6104d5565b005b60405160128152602001610146565b6101626101dc36600461145a565b610572565b6101766101ef3660046115d7565b6001600160a01b031660009081526065602052604090205490565b6101bd6105b1565b6101766102203660046115f2565b6105e7565b6033546001600160a01b03165b6040516001600160a01b039091168152602001610146565b6101396106e3565b61016261026036600461145a565b6106f2565b61016261027336600461145a565b61078f565b6101bd61028636600461145a565b61079d565b6101766102993660046115d7565b6001600160a01b031660009081526098602052604090205490565b609754610232906001600160a01b031681565b6101766102d5366004611625565b6001600160a01b03918216600090815260666020908152604080832093909416825291909152205490565b6101bd61030e3660046115d7565b610873565b60606068805461032290611658565b80601f016020809104026020016040519081016040528092919081815260200182805461034e90611658565b801561039b5780601f106103705761010080835404028352916020019161039b565b820191906000526020600020905b81548152906001019060200180831161037e57829003601f168201915b5050505050905090565b6000336103b381858561090e565b5060019392505050565b6033546000906001600160a01b031633146103f35760405162461bcd60e51b81526004016103ea90611692565b60405180910390fd5b60006103fe60675490565b6097546040516370a0823160e01b815230600482015291925060009183916001600160a01b0316906370a0823190602401602060405180830381865afa15801561044c573d6000803e3d6000fd5b505050506040513d601f19601f8201168201806040525081019061047091906116c7565b61047a90866116f6565b6104849190611715565b90506104908585610a32565b6097546104a7906001600160a01b03168683610a78565b949350505050565b6000336104bd858285610aca565b6104c8858585610b56565b60019150505b9392505050565b60006104e16001610b99565b905080156104f9576000805461ff0019166101001790555b610501610c26565b61050b8383610c55565b609780546001600160a01b0319166001600160a01b038616179055801561056c576000805461ff0019169055604051600181527f7f26b83ff96e1f2b6a682f133852f6798a09c465da95921460cefb38474024989060200160405180910390a15b50505050565b3360008181526066602090815260408083206001600160a01b03871684529091528120549091906103b390829086906105ac908790611737565b61090e565b6033546001600160a01b031633146105db5760405162461bcd60e51b81526004016103ea90611692565b6105e56000610c86565b565b6033546000906001600160a01b031633146106145760405162461bcd60e51b81526004016103ea90611692565b6097546040516370a0823160e01b81523060048201526000916001600160a01b0316906370a0823190602401602060405180830381865afa15801561065d573d6000803e3d6000fd5b505050506040513d601f19601f8201168201806040525081019061068191906116c7565b9050600061068e60675490565b905080158061069b575081155b156106b5576106ab868686610cd8565b84925050506104ce565b6000826106c283886116f6565b6106cc9190611715565b90506106d9878287610cd8565b92506104ce915050565b60606069805461032290611658565b3360008181526066602090815260408083206001600160a01b0387168452909152812054909190838110156107775760405162461bcd60e51b815260206004820152602560248201527f45524332303a2064656372656173656420616c6c6f77616e63652062656c6f77604482015264207a65726f60d81b60648201526084016103ea565b610784828686840361090e565b506001949350505050565b6000336103b3818585610b56565b6033546001600160a01b031633146107c75760405162461bcd60e51b81526004016103ea90611692565b62278d0081106107ea5760405163d6946a4360e01b815260040160405180910390fd5b60006107f68242611737565b6001600160a01b03841660009081526098602052604090205490915081111561086e576001600160a01b038316600081815260986020908152604091829020849055815192835282018390527f38f63775093182d55eb9f15cb41c506fd976eadb1b4544ba0aeaed494ee70cde910160405180910390a15b505050565b6033546001600160a01b0316331461089d5760405162461bcd60e51b81526004016103ea90611692565b6001600160a01b0381166109025760405162461bcd60e51b815260206004820152602660248201527f4f776e61626c653a206e6577206f776e657220697320746865207a65726f206160448201526564647265737360d01b60648201526084016103ea565b61090b81610c86565b50565b6001600160a01b0383166109705760405162461bcd60e51b8152602060048201526024808201527f45524332303a20617070726f76652066726f6d20746865207a65726f206164646044820152637265737360e01b60648201526084016103ea565b6001600160a01b0382166109d15760405162461bcd60e51b815260206004820152602260248201527f45524332303a20617070726f766520746f20746865207a65726f206164647265604482015261737360f01b60648201526084016103ea565b6001600160a01b0383811660008181526066602090815260408083209487168084529482529182902085905590518481527f8c5be1e5ebec7d5bd14f71427d1e84f3dd0314c0f7b2291e5b200ac8c7c3b925910160405180910390a3505050565b6001600160a01b0382166000908152609860205260409020544211610a6a5760405163249bb0b560e21b815260040160405180910390fd5b610a748282610cec565b5050565b604080516001600160a01b038416602482015260448082018490528251808303909101815260649091019091526020810180516001600160e01b031663a9059cbb60e01b17905261086e908490610e3a565b6001600160a01b03838116600090815260666020908152604080832093861683529290522054600019811461056c5781811015610b495760405162461bcd60e51b815260206004820152601d60248201527f45524332303a20696e73756666696369656e7420616c6c6f77616e636500000060448201526064016103ea565b61056c848484840361090e565b6001600160a01b0383166000908152609860205260409020544211610b8e5760405163249bb0b560e21b815260040160405180910390fd5b61086e838383610f0c565b60008054610100900460ff1615610be0578160ff166001148015610bbc5750303b155b610bd85760405162461bcd60e51b81526004016103ea9061174f565b506000919050565b60005460ff808416911610610c075760405162461bcd60e51b81526004016103ea9061174f565b506000805460ff191660ff92909216919091179055600190565b919050565b600054610100900460ff16610c4d5760405162461bcd60e51b81526004016103ea9061179d565b6105e56110da565b600054610100900460ff16610c7c5760405162461bcd60e51b81526004016103ea9061179d565b610a74828261110a565b603380546001600160a01b038381166001600160a01b0319831681179093556040519116919082907f8be0079c531659141344cd1fd0a4f28419497f9722a3daafe3b4186f6b6457e090600090a35050565b610ce2838261079d565b61086e8383611158565b6001600160a01b038216610d4c5760405162461bcd60e51b815260206004820152602160248201527f45524332303a206275726e2066726f6d20746865207a65726f206164647265736044820152607360f81b60648201526084016103ea565b6001600160a01b03821660009081526065602052604090205481811015610dc05760405162461bcd60e51b815260206004820152602260248201527f45524332303a206275726e20616d6f756e7420657863656564732062616c616e604482015261636560f01b60648201526084016103ea565b6001600160a01b0383166000908152606560205260408120838303905560678054849290610def9084906117e8565b90915550506040518281526000906001600160a01b038516907fddf252ad1be2c89b69c2b068fc378daa952ba7f163c4a11628f55a4df523b3ef9060200160405180910390a3505050565b6000610e8f826040518060400160405280602081526020017f5361666545524332303a206c6f772d6c6576656c2063616c6c206661696c6564815250856001600160a01b03166112379092919063ffffffff16565b80519091501561086e5780806020019051810190610ead91906117ff565b61086e5760405162461bcd60e51b815260206004820152602a60248201527f5361666545524332303a204552433230206f7065726174696f6e20646964206e6044820152691bdd081cdd58d8d9595960b21b60648201526084016103ea565b6001600160a01b038316610f705760405162461bcd60e51b815260206004820152602560248201527f45524332303a207472616e736665722066726f6d20746865207a65726f206164604482015264647265737360d81b60648201526084016103ea565b6001600160a01b038216610fd25760405162461bcd60e51b815260206004820152602360248201527f45524332303a207472616e7366657220746f20746865207a65726f206164647260448201526265737360e81b60648201526084016103ea565b6001600160a01b0383166000908152606560205260409020548181101561104a5760405162461bcd60e51b815260206004820152602660248201527f45524332303a207472616e7366657220616d6f756e7420657863656564732062604482015265616c616e636560d01b60648201526084016103ea565b6001600160a01b03808516600090815260656020526040808220858503905591851681529081208054849290611081908490611737565b92505081905550826001600160a01b0316846001600160a01b03167fddf252ad1be2c89b69c2b068fc378daa952ba7f163c4a11628f55a4df523b3ef846040516110cd91815260200190565b60405180910390a361056c565b600054610100900460ff166111015760405162461bcd60e51b81526004016103ea9061179d565b6105e533610c86565b600054610100900460ff166111315760405162461bcd60e51b81526004016103ea9061179d565b815161114490606890602085019061134b565b50805161086e90606990602084019061134b565b6001600160a01b0382166111ae5760405162461bcd60e51b815260206004820152601f60248201527f45524332303a206d696e7420746f20746865207a65726f20616464726573730060448201526064016103ea565b80606760008282546111c09190611737565b90915550506001600160a01b038216600090815260656020526040812080548392906111ed908490611737565b90915550506040518181526001600160a01b038316906000907fddf252ad1be2c89b69c2b068fc378daa952ba7f163c4a11628f55a4df523b3ef9060200160405180910390a35050565b60606104a78484600085856001600160a01b0385163b6112995760405162461bcd60e51b815260206004820152601d60248201527f416464726573733a2063616c6c20746f206e6f6e2d636f6e747261637400000060448201526064016103ea565b600080866001600160a01b031685876040516112b59190611821565b60006040518083038185875af1925050503d80600081146112f2576040519150601f19603f3d011682016040523d82523d6000602084013e6112f7565b606091505b5091509150611307828286611312565b979650505050505050565b606083156113215750816104ce565b8251156113315782518084602001fd5b8160405162461bcd60e51b81526004016103ea9190611410565b82805461135790611658565b90600052602060002090601f01602090048101928261137957600085556113bf565b82601f1061139257805160ff19168380011785556113bf565b828001600101855582156113bf579182015b828111156113bf5782518255916020019190600101906113a4565b506113cb9291506113cf565b5090565b5b808211156113cb57600081556001016113d0565b60005b838110156113ff5781810151838201526020016113e7565b8381111561056c5750506000910152565b602081526000825180602084015261142f8160408501602087016113e4565b601f01601f19169190910160400192915050565b80356001600160a01b0381168114610c2157600080fd5b6000806040838503121561146d57600080fd5b61147683611443565b946020939093013593505050565b60008060006060848603121561149957600080fd5b6114a284611443565b92506114b060208501611443565b9150604084013590509250925092565b634e487b7160e01b600052604160045260246000fd5b600082601f8301126114e757600080fd5b813567ffffffffffffffff80821115611502576115026114c0565b604051601f8301601f19908116603f0116810190828211818310171561152a5761152a6114c0565b8160405283815286602085880101111561154357600080fd5b836020870160208301376000602085830101528094505050505092915050565b60008060006060848603121561157857600080fd5b61158184611443565b9250602084013567ffffffffffffffff8082111561159e57600080fd5b6115aa878388016114d6565b935060408601359150808211156115c057600080fd5b506115cd868287016114d6565b9150509250925092565b6000602082840312156115e957600080fd5b6104ce82611443565b60008060006060848603121561160757600080fd5b61161084611443565b95602085013595506040909401359392505050565b6000806040838503121561163857600080fd5b61164183611443565b915061164f60208401611443565b90509250929050565b600181811c9082168061166c57607f821691505b60208210810361168c57634e487b7160e01b600052602260045260246000fd5b50919050565b6020808252818101527f4f776e61626c653a2063616c6c6572206973206e6f7420746865206f776e6572604082015260600190565b6000602082840312156116d957600080fd5b5051919050565b634e487b7160e01b600052601160045260246000fd5b6000816000190483118215151615611710576117106116e0565b500290565b60008261173257634e487b7160e01b600052601260045260246000fd5b500490565b6000821982111561174a5761174a6116e0565b500190565b6020808252602e908201527f496e697469616c697a61626c653a20636f6e747261637420697320616c72656160408201526d191e481a5b9a5d1a585b1a5e995960921b606082015260800190565b6020808252602b908201527f496e697469616c697a61626c653a20636f6e7472616374206973206e6f74206960408201526a6e697469616c697a696e6760a81b606082015260800190565b6000828210156117fa576117fa6116e0565b500390565b60006020828403121561181157600080fd5b815180151581146104ce57600080fd5b600082516118338184602087016113e4565b919091019291505056fea2646970667358221220d0aca272cd83b1c68929c894c1e7cf140d5e2a51f9469ebc8f2960d58a9c520164736f6c634300080d0033608060405261002f60017fa3f0ad74e5423aebfd80d3ef4346578335a9a72aeaee59ff6cb3582b35133d516103c1565b6000805160206107968339815191521461004b5761004b6103e6565b61006a336040518060200160405280600081525061006f60201b60201c565b6104a0565b6100828261021b60201b6100291760201c565b6100e15760405162461bcd60e51b815260206004820152602560248201527f426561636f6e50726f78793a20626561636f6e206973206e6f74206120636f6e6044820152641d1c9858dd60da1b60648201526084015b60405180910390fd5b610155826001600160a01b031663da5257166040518163ffffffff1660e01b8152600401602060405180830381865afa158015610122573d6000803e3d6000fd5b505050506040513d601f19601f8201168201806040525081019061014691906103fc565b61021b60201b6100291760201c565b6101c75760405162461bcd60e51b815260206004820152603460248201527f426561636f6e50726f78793a20626561636f6e20696d706c656d656e7461746960448201527f6f6e206973206e6f74206120636f6e747261637400000000000000000000000060648201526084016100d8565b600080516020610796833981519152828155815115610216576102146101eb61022a565b836040518060600160405280602181526020016107b6602191396102a860201b6100381760201c565b505b505050565b6001600160a01b03163b151590565b60006102426000805160206107968339815191525490565b6001600160a01b031663da5257166040518163ffffffff1660e01b8152600401602060405180830381865afa15801561027f573d6000803e3d6000fd5b505050506040513d601f19601f820116820180604052508101906102a391906103fc565b905090565b60606001600160a01b0384163b6103105760405162461bcd60e51b815260206004820152602660248201527f416464726573733a2064656c65676174652063616c6c20746f206e6f6e2d636f6044820152651b9d1c9858dd60d21b60648201526084016100d8565b600080856001600160a01b03168560405161032b9190610451565b600060405180830381855af49150503d8060008114610366576040519150601f19603f3d011682016040523d82523d6000602084013e61036b565b606091505b50909250905061037c828286610388565b925050505b9392505050565b60608315610397575081610381565b8251156103a75782518084602001fd5b8160405162461bcd60e51b81526004016100d8919061046d565b6000828210156103e157634e487b7160e01b600052601160045260246000fd5b500390565b634e487b7160e01b600052600160045260246000fd5b60006020828403121561040e57600080fd5b81516001600160a01b038116811461038157600080fd5b60005b83811015610440578181015183820152602001610428565b838111156102145750506000910152565b60008251610463818460208701610425565b9190910192915050565b602081526000825180602084015261048c816040850160208701610425565b601f01601f19169190910160400192915050565b6102e7806104af6000396000f3fe60806040523661001357610011610017565b005b6100115b61002761002261011c565b6101ac565b565b6001600160a01b03163b151590565b60606001600160a01b0384163b6100a55760405162461bcd60e51b815260206004820152602660248201527f416464726573733a2064656c65676174652063616c6c20746f206e6f6e2d636f6044820152651b9d1c9858dd60d21b60648201526084015b60405180910390fd5b600080856001600160a01b0316856040516100c09190610239565b600060405180830381855af49150503d80600081146100fb576040519150601f19603f3d011682016040523d82523d6000602084013e610100565b606091505b50915091506101108282866101d0565b925050505b9392505050565b60006101467fa3f0ad74e5423aebfd80d3ef4346578335a9a72aeaee59ff6cb3582b35133d505490565b6001600160a01b031663da5257166040518163ffffffff1660e01b8152600401602060405180830381865afa158015610183573d6000803e3d6000fd5b505050506040513d601f19601f820116820180604052508101906101a79190610255565b905090565b3660008037600080366000845af43d6000803e8080156101cb573d6000f35b3d6000fd5b606083156101df575081610115565b8251156101ef5782518084602001fd5b8160405162461bcd60e51b815260040161009c919061027e565b60005b8381101561022457818101518382015260200161020c565b83811115610233576000848401525b50505050565b6000825161024b818460208701610209565b9190910192915050565b60006020828403121561026757600080fd5b81516001600160a01b038116811461011557600080fd5b602081526000825180602084015261029d816040850160208701610209565b601f01601f1916919091016040019291505056fea2646970667358221220caf286a04b09e13e7dde997e25f3e63727bd1688918c49bbfb2ecc19e239583064736f6c634300080d0033a3f0ad74e5423aebfd80d3ef4346578335a9a72aeaee59ff6cb3582b35133d50426561636f6e50726f78793a2066756e6374696f6e2063616c6c206661696c6564a2646970667358221220ab2d4669f9f128fe2903cbc3641f4c15b972b7624c58ac6577b7ea97a15fb32d64736f6c634300080d0033",
  "devdoc": {
    "kind": "dev",
    "methods": {
      "childImplementation()": {
        "details": "Returns the current child implementation address."
      },
      "owner()": {
        "details": "Returns the address of the current owner."
      },
      "renounceOwnership()": {
        "details": "Leaves the contract without owner. It will not be possible to call `onlyOwner` functions anymore. Can only be called by the current owner. NOTE: Renouncing ownership will leave the contract without an owner, thereby removing any functionality that is only available to the owner."
      },
      "transferOwnership(address)": {
        "details": "Transfers ownership of the contract to a new account (`newOwner`). Can only be called by the current owner."
      },
      "upgradeChildTo(address)": {
        "details": "Upgrades the beacon to a new implementation. Emits an {Upgraded} event. Requirements: - msg.sender must be the owner of the contract. - `newChildImplementation` must be a contract."
      }
    },
    "version": 1
  },
  "userdoc": {
    "kind": "user",
    "methods": {},
    "version": 1
  },
  "storageLayout": {
    "storage": [
      {
        "astId": 274,
        "contract": "src/contracts/FNFTStaking.sol:FNFTStaking",
        "label": "_initialized",
        "offset": 0,
        "slot": "0",
        "type": "t_uint8"
      },
      {
        "astId": 277,
        "contract": "src/contracts/FNFTStaking.sol:FNFTStaking",
        "label": "_initializing",
        "offset": 1,
        "slot": "0",
        "type": "t_bool"
      },
      {
        "astId": 2270,
        "contract": "src/contracts/FNFTStaking.sol:FNFTStaking",
        "label": "__gap",
        "offset": 0,
        "slot": "1",
        "type": "t_array(t_uint256)50_storage"
      },
      {
        "astId": 10,
        "contract": "src/contracts/FNFTStaking.sol:FNFTStaking",
        "label": "_owner",
        "offset": 0,
        "slot": "51",
        "type": "t_address"
      },
      {
        "astId": 122,
        "contract": "src/contracts/FNFTStaking.sol:FNFTStaking",
        "label": "__gap",
        "offset": 0,
        "slot": "52",
        "type": "t_array(t_uint256)49_storage"
      },
      {
        "astId": 21677,
        "contract": "src/contracts/FNFTStaking.sol:FNFTStaking",
        "label": "isGuardian",
        "offset": 0,
        "slot": "101",
        "type": "t_mapping(t_address,t_bool)"
      },
      {
        "astId": 21681,
        "contract": "src/contracts/FNFTStaking.sol:FNFTStaking",
        "label": "isPaused",
        "offset": 0,
        "slot": "102",
        "type": "t_mapping(t_uint256,t_bool)"
      },
      {
        "astId": 18473,
        "contract": "src/contracts/FNFTStaking.sol:FNFTStaking",
        "label": "_childImplementation",
        "offset": 0,
        "slot": "103",
        "type": "t_address"
      },
      {
        "astId": 10709,
        "contract": "src/contracts/FNFTStaking.sol:FNFTStaking",
        "label": "vaultManager",
        "offset": 0,
        "slot": "104",
        "type": "t_contract(IVaultManager)17110"
      },
      {
        "astId": 10713,
        "contract": "src/contracts/FNFTStaking.sol:FNFTStaking",
        "label": "timelockExcludeList",
        "offset": 0,
        "slot": "105",
        "type": "t_contract(ITimelockExcludeList)16811"
      },
      {
        "astId": 10716,
        "contract": "src/contracts/FNFTStaking.sol:FNFTStaking",
        "label": "inventoryLockTimeErc20",
        "offset": 0,
        "slot": "106",
        "type": "t_uint256"
      }
    ],
    "types": {
      "t_address": {
        "encoding": "inplace",
        "label": "address",
        "numberOfBytes": "20"
      },
      "t_array(t_uint256)49_storage": {
        "base": "t_uint256",
        "encoding": "inplace",
        "label": "uint256[49]",
        "numberOfBytes": "1568"
      },
      "t_array(t_uint256)50_storage": {
        "base": "t_uint256",
        "encoding": "inplace",
        "label": "uint256[50]",
        "numberOfBytes": "1600"
      },
      "t_bool": {
        "encoding": "inplace",
        "label": "bool",
        "numberOfBytes": "1"
      },
      "t_contract(ITimelockExcludeList)16811": {
        "encoding": "inplace",
        "label": "contract ITimelockExcludeList",
        "numberOfBytes": "20"
      },
      "t_contract(IVaultManager)17110": {
        "encoding": "inplace",
        "label": "contract IVaultManager",
        "numberOfBytes": "20"
      },
      "t_mapping(t_address,t_bool)": {
        "encoding": "mapping",
        "key": "t_address",
        "label": "mapping(address => bool)",
        "numberOfBytes": "32",
        "value": "t_bool"
      },
      "t_mapping(t_uint256,t_bool)": {
        "encoding": "mapping",
        "key": "t_uint256",
        "label": "mapping(uint256 => bool)",
        "numberOfBytes": "32",
        "value": "t_bool"
      },
      "t_uint256": {
        "encoding": "inplace",
        "label": "uint256",
        "numberOfBytes": "32"
      },
      "t_uint8": {
        "encoding": "inplace",
        "label": "uint8",
        "numberOfBytes": "1"
      }
    }
  }
}