{
  "address": "0x1e7f2B2cE6992fe6435Cbce951FC325a7784910D",
  "abi": [
    {
      "inputs": [],
      "name": "FeeTooHigh",
      "type": "error"
    },
    {
      "inputs": [],
      "name": "MaxAuctionLengthOutOfBounds",
      "type": "error"
    },
    {
      "inputs": [],
      "name": "MinAuctionLengthOutOfBounds",
      "type": "error"
    },
    {
      "inputs": [],
      "name": "MinBidIncreaseOutOfBounds",
      "type": "error"
    },
    {
      "inputs": [],
      "name": "NotVault",
      "type": "error"
    },
    {
      "inputs": [],
      "name": "Paused",
      "type": "error"
    },
    {
      "inputs": [],
      "name": "Unauthorized",
      "type": "error"
    },
    {
      "inputs": [],
      "name": "ZeroAddress",
      "type": "error"
    },
    {
      "anonymous": false,
      "inputs": [
        {
          "indexed": false,
          "internalType": "address",
          "name": "oldEligManager",
          "type": "address"
        },
        {
          "indexed": false,
          "internalType": "address",
          "name": "newEligManager",
          "type": "address"
        }
      ],
      "name": "EligibilityManagerUpdated",
      "type": "event"
    },
    {
      "anonymous": false,
      "inputs": [
        {
          "indexed": false,
          "internalType": "uint256",
          "name": "mintFee",
          "type": "uint256"
        },
        {
          "indexed": false,
          "internalType": "uint256",
          "name": "randomRedeemFee",
          "type": "uint256"
        },
        {
          "indexed": false,
          "internalType": "uint256",
          "name": "targetRedeemFee",
          "type": "uint256"
        },
        {
          "indexed": false,
          "internalType": "uint256",
          "name": "randomSwapFee",
          "type": "uint256"
        },
        {
          "indexed": false,
          "internalType": "uint256",
          "name": "targetSwapFee",
          "type": "uint256"
        },
        {
          "indexed": false,
          "internalType": "uint256",
          "name": "flashLoanFee",
          "type": "uint256"
        }
      ],
      "name": "FactoryFeesUpdated",
      "type": "event"
    },
    {
      "anonymous": false,
      "inputs": [
        {
          "indexed": false,
          "internalType": "uint256",
          "name": "maxAuctionLength",
          "type": "uint256"
        },
        {
          "indexed": false,
          "internalType": "uint256",
          "name": "minAuctionLength",
          "type": "uint256"
        },
        {
          "indexed": false,
          "internalType": "uint256",
          "name": "minBidIncrease",
          "type": "uint256"
        }
      ],
      "name": "FactoryThresholdsUpdated",
      "type": "event"
    },
    {
      "anonymous": false,
      "inputs": [
        {
          "indexed": false,
          "internalType": "uint8",
          "name": "version",
          "type": "uint8"
        }
      ],
      "name": "Initialized",
      "type": "event"
    },
    {
      "anonymous": false,
      "inputs": [
        {
          "indexed": true,
          "internalType": "address",
          "name": "previousOwner",
          "type": "address"
        },
        {
          "indexed": true,
          "internalType": "address",
          "name": "newOwner",
          "type": "address"
        }
      ],
      "name": "OwnershipTransferred",
      "type": "event"
    },
    {
      "anonymous": false,
      "inputs": [
        {
          "indexed": false,
          "internalType": "address",
          "name": "addr",
          "type": "address"
        },
        {
          "indexed": false,
          "internalType": "bool",
          "name": "isGuardian",
          "type": "bool"
        }
      ],
      "name": "SetIsGuardian",
      "type": "event"
    },
    {
      "anonymous": false,
      "inputs": [
        {
          "indexed": false,
          "internalType": "uint256",
          "name": "lockId",
          "type": "uint256"
        },
        {
          "indexed": false,
          "internalType": "bool",
          "name": "paused",
          "type": "bool"
        }
      ],
      "name": "SetPaused",
      "type": "event"
    },
    {
      "anonymous": false,
      "inputs": [
        {
          "indexed": true,
          "internalType": "address",
          "name": "childImplementation",
          "type": "address"
        }
      ],
      "name": "Upgraded",
      "type": "event"
    },
    {
      "anonymous": false,
      "inputs": [
        {
          "indexed": true,
          "internalType": "uint256",
          "name": "vaultId",
          "type": "uint256"
        },
        {
          "indexed": false,
          "internalType": "address",
          "name": "curator",
          "type": "address"
        },
        {
          "indexed": false,
          "internalType": "address",
          "name": "vaultAddress",
          "type": "address"
        },
        {
          "indexed": false,
          "internalType": "address",
          "name": "assetAddress",
          "type": "address"
        },
        {
          "indexed": false,
          "internalType": "string",
          "name": "name",
          "type": "string"
        },
        {
          "indexed": false,
          "internalType": "string",
          "name": "symbol",
          "type": "string"
        }
      ],
      "name": "VaultCreated",
      "type": "event"
    },
    {
      "anonymous": false,
      "inputs": [
        {
          "indexed": false,
          "internalType": "uint256",
          "name": "vaultId",
          "type": "uint256"
        }
      ],
      "name": "VaultFeesDisabled",
      "type": "event"
    },
    {
      "anonymous": false,
      "inputs": [
        {
          "indexed": false,
          "internalType": "uint256",
          "name": "vaultId",
          "type": "uint256"
        },
        {
          "indexed": false,
          "internalType": "uint256",
          "name": "mintFee",
          "type": "uint256"
        },
        {
          "indexed": false,
          "internalType": "uint256",
          "name": "randomRedeemFee",
          "type": "uint256"
        },
        {
          "indexed": false,
          "internalType": "uint256",
          "name": "targetRedeemFee",
          "type": "uint256"
        },
        {
          "indexed": false,
          "internalType": "uint256",
          "name": "randomSwapFee",
          "type": "uint256"
        },
        {
          "indexed": false,
          "internalType": "uint256",
          "name": "targetSwapFee",
          "type": "uint256"
        }
      ],
      "name": "VaultFeesUpdated",
      "type": "event"
    },
    {
      "inputs": [
        {
          "internalType": "address",
          "name": "childImplementation_",
          "type": "address"
        }
      ],
      "name": "__BeaconUpgradeable__init",
      "outputs": [],
      "stateMutability": "nonpayable",
      "type": "function"
    },
    {
      "inputs": [
        {
          "internalType": "address",
          "name": "_vaultManager",
          "type": "address"
        },
        {
          "internalType": "address",
          "name": "_fnftCollection",
          "type": "address"
        }
      ],
      "name": "__FNFTCollectionFactory_init",
      "outputs": [],
      "stateMutability": "nonpayable",
      "type": "function"
    },
    {
      "inputs": [],
      "name": "childImplementation",
      "outputs": [
        {
          "internalType": "address",
          "name": "",
          "type": "address"
        }
      ],
      "stateMutability": "view",
      "type": "function"
    },
    {
      "inputs": [
        {
          "internalType": "address",
          "name": "_assetAddress",
          "type": "address"
        },
        {
          "internalType": "bool",
          "name": "is1155",
          "type": "bool"
        },
        {
          "internalType": "bool",
          "name": "allowAllItems",
          "type": "bool"
        },
        {
          "internalType": "string",
          "name": "_name",
          "type": "string"
        },
        {
          "internalType": "string",
          "name": "_symbol",
          "type": "string"
        }
      ],
      "name": "createVault",
      "outputs": [
        {
          "internalType": "address",
          "name": "",
          "type": "address"
        }
      ],
      "stateMutability": "nonpayable",
      "type": "function"
    },
    {
      "inputs": [
        {
          "internalType": "uint256",
          "name": "vaultId",
          "type": "uint256"
        }
      ],
      "name": "disableVaultFees",
      "outputs": [],
      "stateMutability": "nonpayable",
      "type": "function"
    },
    {
      "inputs": [],
      "name": "eligibilityManager",
      "outputs": [
        {
          "internalType": "address",
          "name": "",
          "type": "address"
        }
      ],
      "stateMutability": "view",
      "type": "function"
    },
    {
      "inputs": [],
      "name": "factoryMintFee",
      "outputs": [
        {
          "internalType": "uint64",
          "name": "",
          "type": "uint64"
        }
      ],
      "stateMutability": "view",
      "type": "function"
    },
    {
      "inputs": [],
      "name": "factoryRandomRedeemFee",
      "outputs": [
        {
          "internalType": "uint64",
          "name": "",
          "type": "uint64"
        }
      ],
      "stateMutability": "view",
      "type": "function"
    },
    {
      "inputs": [],
      "name": "factoryRandomSwapFee",
      "outputs": [
        {
          "internalType": "uint64",
          "name": "",
          "type": "uint64"
        }
      ],
      "stateMutability": "view",
      "type": "function"
    },
    {
      "inputs": [],
      "name": "factoryTargetRedeemFee",
      "outputs": [
        {
          "internalType": "uint64",
          "name": "",
          "type": "uint64"
        }
      ],
      "stateMutability": "view",
      "type": "function"
    },
    {
      "inputs": [],
      "name": "factoryTargetSwapFee",
      "outputs": [
        {
          "internalType": "uint64",
          "name": "",
          "type": "uint64"
        }
      ],
      "stateMutability": "view",
      "type": "function"
    },
    {
      "inputs": [],
      "name": "flashLoanFee",
      "outputs": [
        {
          "internalType": "uint256",
          "name": "",
          "type": "uint256"
        }
      ],
      "stateMutability": "view",
      "type": "function"
    },
    {
      "inputs": [
        {
          "internalType": "address",
          "name": "",
          "type": "address"
        }
      ],
      "name": "isGuardian",
      "outputs": [
        {
          "internalType": "bool",
          "name": "",
          "type": "bool"
        }
      ],
      "stateMutability": "view",
      "type": "function"
    },
    {
      "inputs": [
        {
          "internalType": "uint256",
          "name": "",
          "type": "uint256"
        }
      ],
      "name": "isPaused",
      "outputs": [
        {
          "internalType": "bool",
          "name": "",
          "type": "bool"
        }
      ],
      "stateMutability": "view",
      "type": "function"
    },
    {
      "inputs": [],
      "name": "maxAuctionLength",
      "outputs": [
        {
          "internalType": "uint256",
          "name": "",
          "type": "uint256"
        }
      ],
      "stateMutability": "view",
      "type": "function"
    },
    {
      "inputs": [],
      "name": "minAuctionLength",
      "outputs": [
        {
          "internalType": "uint256",
          "name": "",
          "type": "uint256"
        }
      ],
      "stateMutability": "view",
      "type": "function"
    },
    {
      "inputs": [],
      "name": "minBidIncrease",
      "outputs": [
        {
          "internalType": "uint256",
          "name": "",
          "type": "uint256"
        }
      ],
      "stateMutability": "view",
      "type": "function"
    },
    {
      "inputs": [
        {
          "internalType": "uint256",
          "name": "lockId",
          "type": "uint256"
        }
      ],
      "name": "onlyOwnerIfPaused",
      "outputs": [],
      "stateMutability": "view",
      "type": "function"
    },
    {
      "inputs": [],
      "name": "owner",
      "outputs": [
        {
          "internalType": "address",
          "name": "",
          "type": "address"
        }
      ],
      "stateMutability": "view",
      "type": "function"
    },
    {
      "inputs": [
        {
          "internalType": "uint256",
          "name": "lockId",
          "type": "uint256"
        }
      ],
      "name": "pause",
      "outputs": [],
      "stateMutability": "nonpayable",
      "type": "function"
    },
    {
      "inputs": [],
      "name": "renounceOwnership",
      "outputs": [],
      "stateMutability": "nonpayable",
      "type": "function"
    },
    {
      "inputs": [
        {
          "internalType": "address",
          "name": "_eligibilityManager",
          "type": "address"
        }
      ],
      "name": "setEligibilityManager",
      "outputs": [],
      "stateMutability": "nonpayable",
      "type": "function"
    },
    {
      "inputs": [
        {
          "internalType": "uint256",
          "name": "_factoryMintFee",
          "type": "uint256"
        },
        {
          "internalType": "uint256",
          "name": "_factoryRandomRedeemFee",
          "type": "uint256"
        },
        {
          "internalType": "uint256",
          "name": "_factoryTargetRedeemFee",
          "type": "uint256"
        },
        {
          "internalType": "uint256",
          "name": "_factoryRandomSwapFee",
          "type": "uint256"
        },
        {
          "internalType": "uint256",
          "name": "_factoryTargetSwapFee",
          "type": "uint256"
        },
        {
          "internalType": "uint256",
          "name": "_flashLoanFee",
          "type": "uint256"
        }
      ],
      "name": "setFactoryFees",
      "outputs": [],
      "stateMutability": "nonpayable",
      "type": "function"
    },
    {
      "inputs": [
        {
          "internalType": "uint256",
          "name": "_maxAuctionLength",
          "type": "uint256"
        },
        {
          "internalType": "uint256",
          "name": "_minAuctionLength",
          "type": "uint256"
        },
        {
          "internalType": "uint256",
          "name": "_minBidIncrease",
          "type": "uint256"
        }
      ],
      "name": "setFactoryThresholds",
      "outputs": [],
      "stateMutability": "nonpayable",
      "type": "function"
    },
    {
      "inputs": [
        {
          "internalType": "address",
          "name": "_address",
          "type": "address"
        },
        {
          "internalType": "bool",
          "name": "_isGuardian",
          "type": "bool"
        }
      ],
      "name": "setIsGuardian",
      "outputs": [],
      "stateMutability": "nonpayable",
      "type": "function"
    },
    {
      "inputs": [
        {
          "internalType": "uint256",
          "name": "vaultId",
          "type": "uint256"
        },
        {
          "internalType": "uint256",
          "name": "_mintFee",
          "type": "uint256"
        },
        {
          "internalType": "uint256",
          "name": "_randomRedeemFee",
          "type": "uint256"
        },
        {
          "internalType": "uint256",
          "name": "_targetRedeemFee",
          "type": "uint256"
        },
        {
          "internalType": "uint256",
          "name": "_randomSwapFee",
          "type": "uint256"
        },
        {
          "internalType": "uint256",
          "name": "_targetSwapFee",
          "type": "uint256"
        }
      ],
      "name": "setVaultFees",
      "outputs": [],
      "stateMutability": "nonpayable",
      "type": "function"
    },
    {
      "inputs": [
        {
          "internalType": "address",
          "name": "newOwner",
          "type": "address"
        }
      ],
      "name": "transferOwnership",
      "outputs": [],
      "stateMutability": "nonpayable",
      "type": "function"
    },
    {
      "inputs": [
        {
          "internalType": "uint256",
          "name": "lockId",
          "type": "uint256"
        }
      ],
      "name": "unpause",
      "outputs": [],
      "stateMutability": "nonpayable",
      "type": "function"
    },
    {
      "inputs": [
        {
          "internalType": "address",
          "name": "newChildImplementation",
          "type": "address"
        }
      ],
      "name": "upgradeChildTo",
      "outputs": [],
      "stateMutability": "nonpayable",
      "type": "function"
    },
    {
      "inputs": [
        {
          "internalType": "uint256",
          "name": "vaultId",
          "type": "uint256"
        }
      ],
      "name": "vaultFees",
      "outputs": [
        {
          "internalType": "uint256",
          "name": "",
          "type": "uint256"
        },
        {
          "internalType": "uint256",
          "name": "",
          "type": "uint256"
        },
        {
          "internalType": "uint256",
          "name": "",
          "type": "uint256"
        },
        {
          "internalType": "uint256",
          "name": "",
          "type": "uint256"
        },
        {
          "internalType": "uint256",
          "name": "",
          "type": "uint256"
        }
      ],
      "stateMutability": "view",
      "type": "function"
    },
    {
      "inputs": [],
      "name": "vaultManager",
      "outputs": [
        {
          "internalType": "contract IVaultManager",
          "name": "",
          "type": "address"
        }
      ],
      "stateMutability": "view",
      "type": "function"
    }
  ],
  "transactionHash": "0x0f39d732bfa5c11b1737cf8df48d0f01fbcb0bb36b2cf3f321f0cdfb996f8cbf",
  "args": [],
  "numDeployments": 1,
  "solcInputHash": "bf0ff9e6b7fc2e915dfac7a0da096a36",
  "bytecode": "0x608060405234801561001057600080fd5b506125d9806100206000396000f3fe60806040523480156200001157600080fd5b50600436106200020d5760003560e01c80637c0f44a21162000125578063a0b335e311620000af578063da525716116200007a578063da52571614620004db578063f2fde38b14620004ed578063fabc1cbc1462000504578063fc21c3f8146200051b57600080fd5b8063a0b335e3146200047d578063afccd7c31462000487578063bdf2a43c146200049e578063c182f2b214620004c457600080fd5b80638b744c0a11620000f05780638b744c0a14620004295780638da5cb5b14620004405780639637cf0614620004525780639e1a8824146200046957600080fd5b80637c0f44a214620003d95780637c513c0f14620003f45780637c77b61614620003fe5780638a4adf24146200041557600080fd5b8063219962d211620001a75780634847cdc811620001725780634847cdc814620003935780636ba6a691146200039d5780636d14584614620003b4578063715018a614620003cf57600080fd5b8063219962d2146200030e57806322061379146200032557806323845fb5146200036557806340f2d555146200037c57600080fd5b806310d25c5111620001e857806310d25c51146200029a578063136439dd14620002b357806314c77faa14620002ca5780631f1713fc14620002f757600080fd5b806309d25e7914620002125780630c68ba21146200024a5780630e519ef91462000281575b600080fd5b6069546200022d90600160c01b90046001600160401b031681565b6040516001600160401b0390911681526020015b60405180910390f35b620002706200025b3660046200181e565b60656020526000908152604090205460ff1681565b604051901515815260200162000241565b6200028b606d5481565b60405190815260200162000241565b620002b1620002ab3660046200181e565b62000536565b005b620002b1620002c436600462001845565b620005b4565b606b54620002de906001600160a01b031681565b6040516001600160a01b03909116815260200162000241565b620002b1620003083660046200181e565b6200063c565b620002b16200031f3660046200185f565b62000680565b6200033c6200033636600462001845565b620009e5565b604080519586526020860194909452928401919091526060830152608082015260a00162000241565b620002b162000376366004620018b4565b62000b0d565b620002b16200038d3660046200181e565b62000b97565b6200028b606c5481565b620002de620003ae36600462001998565b62000c2d565b6069546200022d90600160801b90046001600160401b031681565b620002b162000d5a565b6069546200022d90600160401b90046001600160401b031681565b6200028b606f5481565b620002b16200040f36600462001845565b62000d95565b606a54620002de906001600160a01b031681565b620002b16200043a36600462001a3c565b62000dde565b6033546001600160a01b0316620002de565b620002b1620004633660046200185f565b62000ef7565b6069546200022d906001600160401b031681565b6200028b606e5481565b620002b16200049836600462001a69565b620010f7565b62000270620004af36600462001845565b60666020526000908152604090205460ff1681565b620002b1620004d536600462001845565b6200122b565b6067546001600160a01b0316620002de565b620002b1620004fe3660046200181e565b6200133d565b620002b16200051536600462001845565b620013dc565b606a546200022d90600160a01b90046001600160401b031681565b600062000544600162001457565b905080156200055d576000805461ff0019166101001790555b6200056882620014ec565b8015620005b0576000805461ff0019169055604051600181527f7f26b83ff96e1f2b6a682f133852f6798a09c465da95921460cefb3847402498906020015b60405180910390a15b5050565b3360009081526065602052604090205460ff16620005e4576040516282b42960e81b815260040160405180910390fd5b600081815260666020908152604091829020805460ff191660019081179091558251848152918201527f77f1fcfcce67dc392d64f842056d2ec06c80986c47c910f7e79c5b23a2738d7491015b60405180910390a150565b6033546001600160a01b03163314620006725760405162461bcd60e51b8152600401620006699062001aa7565b60405180910390fd5b6200067d81620014ec565b50565b6033546001600160a01b031633146200073257606a546040516340d1b7db60e11b8152600481018890526000916001600160a01b0316906381a36fb690602401602060405180830381865afa158015620006de573d6000803e3d6000fd5b505050506040513d601f19601f8201168201806040525081019062000704919062001adc565b9050336001600160a01b0382161462000730576040516362df054560e01b815260040160405180910390fd5b505b6706f05b59d3b200008511156200075c5760405163cd4e616760e01b815260040160405180910390fd5b6706f05b59d3b20000841115620007865760405163cd4e616760e01b815260040160405180910390fd5b6706f05b59d3b20000831115620007b05760405163cd4e616760e01b815260040160405180910390fd5b6706f05b59d3b20000821115620007da5760405163cd4e616760e01b815260040160405180910390fd5b6706f05b59d3b20000811115620008045760405163cd4e616760e01b815260040160405180910390fd5b6040518060c00160405280600115158152602001866001600160401b03168152602001856001600160401b03168152602001846001600160401b03168152602001836001600160401b03168152602001826001600160401b03168152506068600088815260200190815260200160002060008201518160000160006101000a81548160ff02191690831515021790555060208201518160000160016101000a8154816001600160401b0302191690836001600160401b0316021790555060408201518160000160096101000a8154816001600160401b0302191690836001600160401b0316021790555060608201518160000160116101000a8154816001600160401b0302191690836001600160401b0316021790555060808201518160010160006101000a8154816001600160401b0302191690836001600160401b0316021790555060a08201518160010160086101000a8154816001600160401b0302191690836001600160401b031602179055509050507f2468dcc8808173cecacb06ea8730140f32633d656fb867949faef9e5513cdcde868686868686604051620009d596959493929190958652602086019490945260408501929092526060840152608083015260a082015260c00190565b60405180910390a1505050505050565b6000818152606860209081526040808320815160c081018352815460ff811615801583526001600160401b03610100830481169684019690965269010000000000000000008204861694830194909452600160881b9004841660608201526001909101548084166080830152600160401b900490921660a0830152829182918291829162000ac45780602001516001600160401b031681604001516001600160401b031682606001516001600160401b031683608001516001600160401b03168460a001516001600160401b0316955095509550955095505062000b04565b5050606954606a546001600160401b038083169650600160401b830481169550600160c01b830481169450600160801b90920482169250600160a01b9004165b91939590929450565b6033546001600160a01b0316331462000b3a5760405162461bcd60e51b8152600401620006699062001aa7565b6001600160a01b038216600081815260656020908152604091829020805460ff19168515159081179091558251938452908301527fd0b6b573d5442f7c29fd50d9735ae341581c25c6ed07748d50eda519f1ffa88a9101620005a7565b6033546001600160a01b0316331462000bc45760405162461bcd60e51b8152600401620006699062001aa7565b606b54604080516001600160a01b03928316815291831660208301527ff0549b0f583100064f45ac6534cfe7d8a769039f074b3ea5a8483bb0826179b5910160405180910390a1606b80546001600160a01b0319166001600160a01b0392909216919091179055565b600062000c3b600062000d95565b600062000c506067546001600160a01b031690565b6001600160a01b03160362000c785760405163d92e233d60e01b815260040160405180910390fd5b606a546001600160a01b0316600062000c9585858a8a8a620015b5565b6040516312b5ad0160e11b81526001600160a01b03808316600483015291925060009184169063256b5a02906024016020604051808303816000875af115801562000ce4573d6000803e3d6000fd5b505050506040513d601f19601f8201168201806040525081019062000d0a919062001afc565b9050807f7ba4daf113dab617fb46d5bf414c46f4e17aa717bce3c75bacbad12baef0233c33848c8a8a60405162000d4695949392919062001b66565b60405180910390a250979650505050505050565b6033546001600160a01b0316331462000d875760405162461bcd60e51b8152600401620006699062001aa7565b62000d936000620016d0565b565b60008181526066602052604090205460ff16801562000dbf57506033546001600160a01b03163314155b156200067d576040516313d0ff5960e31b815260040160405180910390fd5b6033546001600160a01b0316331462000e0b5760405162461bcd60e51b8152600401620006699062001aa7565b6201518082108062000e1f5750606d548210155b1562000e3e5760405163568324c160e01b815260040160405180910390fd5b6249d40083118062000e525750606e548311155b1562000e7157604051639337d06760e01b815260040160405180910390fd5b6103e881118062000e825750606481105b1562000ea1576040516315958edd60e21b815260040160405180910390fd5b606d839055606e829055606f81905560408051848152602081018490529081018290527f5f02c4f65840b8a4aa8f78a15f15e4b35965abdb91c10104768ff93e56d0fa0e906060015b60405180910390a1505050565b6033546001600160a01b0316331462000f245760405162461bcd60e51b8152600401620006699062001aa7565b6706f05b59d3b2000086111562000f4e5760405163cd4e616760e01b815260040160405180910390fd5b6706f05b59d3b2000085111562000f785760405163cd4e616760e01b815260040160405180910390fd5b6706f05b59d3b2000084111562000fa25760405163cd4e616760e01b815260040160405180910390fd5b6706f05b59d3b2000083111562000fcc5760405163cd4e616760e01b815260040160405180910390fd5b6706f05b59d3b2000082111562000ff65760405163cd4e616760e01b815260040160405180910390fd5b6101f48111156200101a5760405163cd4e616760e01b815260040160405180910390fd5b606980546001600160401b038881166001600160801b031990921691909117600160401b88831602176fffffffffffffffffffffffffffffffff16600160c01b8783160267ffffffffffffffff60801b191617600160801b8683160217909155606a805467ffffffffffffffff60a01b1916600160a01b92851692909202919091179055606c8190556040805187815260208101879052908101859052606081018490526080810183905260a081018290527fd8a941704619c91d2cf548047f90c982916af16178ed5a42cb0b8ef9def629b79060c001620009d5565b600062001105600162001457565b905080156200111e576000805461ff0019166101001790555b6001600160a01b038316620011465760405163d92e233d60e01b815260040160405180910390fd5b6001600160a01b0382166200116e5760405163d92e233d60e01b815260040160405180910390fd5b6200117862001722565b620011838262000536565b606a80547f016345785d8a000000b1a2bc2ec5000000b1a2bc2ec50000016345785d8a000060695564b1a2bc2ec560b11b6001600160e01b03199091166001600160a01b0386161717905562127500606d556203f480606e556101f4606f55801562001226576000805461ff0019169055604051600181527f7f26b83ff96e1f2b6a682f133852f6798a09c465da95921460cefb38474024989060200162000eea565b505050565b6033546001600160a01b03163314620012dd57606a546040516340d1b7db60e11b8152600481018390526000916001600160a01b0316906381a36fb690602401602060405180830381865afa15801562001289573d6000803e3d6000fd5b505050506040513d601f19601f82011682018060405250810190620012af919062001adc565b9050336001600160a01b03821614620012db576040516362df054560e01b815260040160405180910390fd5b505b6000818152606860205260409081902080546001600160c81b031916815560010180546001600160801b0319169055517ff8f37fe8879c17d6a5203773d9a9c907001b19187b65cfa9b845daaa791e112890620006319083815260200190565b6033546001600160a01b031633146200136a5760405162461bcd60e51b8152600401620006699062001aa7565b6001600160a01b038116620013d15760405162461bcd60e51b815260206004820152602660248201527f4f776e61626c653a206e6577206f776e657220697320746865207a65726f206160448201526564647265737360d01b606482015260840162000669565b6200067d81620016d0565b6033546001600160a01b03163314620014095760405162461bcd60e51b8152600401620006699062001aa7565b6000818152606660209081526040808320805460ff191690558051848152918201929092527f77f1fcfcce67dc392d64f842056d2ec06c80986c47c910f7e79c5b23a2738d74910162000631565b60008054610100900460ff1615620014a3578160ff1660011480156200147c5750303b155b6200149b5760405162461bcd60e51b8152600401620006699062001bbc565b506000919050565b60005460ff808416911610620014cd5760405162461bcd60e51b8152600401620006699062001bbc565b506000805460ff191660ff92909216919091179055600190565b919050565b6001600160a01b0381163b6200156b5760405162461bcd60e51b815260206004820152603960248201527f5570677261646561626c65426561636f6e3a206368696c6420696d706c656d6560448201527f6e746174696f6e206973206e6f74206120636f6e747261637400000000000000606482015260840162000669565b606780546001600160a01b0319166001600160a01b0383169081179091556040517fbc7cd75a20ee27fd9adebab32041f755214dbc6bffa90cc0225b39da2e5c2d3b90600090a250565b60008063042f186c878733888888604051602401620015da9695949392919062001c0a565b6040516020818303038152906040529060e01b6020820180516001600160e01b0383818316178352505050509050600030826040516200161a90620017fa565b6200162792919062001c64565b604051809103906000f08015801562001644573d6000803e3d6000fd5b509050806001600160a01b031663f2fde38b620016696033546001600160a01b031690565b6040516001600160e01b031960e084901b1681526001600160a01b039091166004820152602401600060405180830381600087803b158015620016ab57600080fd5b505af1158015620016c0573d6000803e3d6000fd5b50929a9950505050505050505050565b603380546001600160a01b038381166001600160a01b0319831681179093556040519116919082907f8be0079c531659141344cd1fd0a4f28419497f9722a3daafe3b4186f6b6457e090600090a35050565b600062001730600162001457565b9050801562001749576000805461ff0019166101001790555b6200175362001797565b80156200067d576000805461ff0019169055604051600181527f7f26b83ff96e1f2b6a682f133852f6798a09c465da95921460cefb38474024989060200162000631565b600054610100900460ff16620017c15760405162461bcd60e51b8152600401620006699062001c92565b62000d93600054610100900460ff16620017ef5760405162461bcd60e51b8152600401620006699062001c92565b62000d9333620016d0565b6108c68062001cde83390190565b6001600160a01b03811681146200067d57600080fd5b6000602082840312156200183157600080fd5b81356200183e8162001808565b9392505050565b6000602082840312156200185857600080fd5b5035919050565b60008060008060008060c087890312156200187957600080fd5b505084359660208601359650604086013595606081013595506080810135945060a0013592509050565b80358015158114620014e757600080fd5b60008060408385031215620018c857600080fd5b8235620018d58162001808565b9150620018e560208401620018a3565b90509250929050565b634e487b7160e01b600052604160045260246000fd5b600082601f8301126200191657600080fd5b81356001600160401b0380821115620019335762001933620018ee565b604051601f8301601f19908116603f011681019082821181831017156200195e576200195e620018ee565b816040528381528660208588010111156200197857600080fd5b836020870160208301376000602085830101528094505050505092915050565b600080600080600060a08688031215620019b157600080fd5b8535620019be8162001808565b9450620019ce60208701620018a3565b9350620019de60408701620018a3565b925060608601356001600160401b0380821115620019fb57600080fd5b62001a0989838a0162001904565b9350608088013591508082111562001a2057600080fd5b5062001a2f8882890162001904565b9150509295509295909350565b60008060006060848603121562001a5257600080fd5b505081359360208301359350604090920135919050565b6000806040838503121562001a7d57600080fd5b823562001a8a8162001808565b9150602083013562001a9c8162001808565b809150509250929050565b6020808252818101527f4f776e61626c653a2063616c6c6572206973206e6f7420746865206f776e6572604082015260600190565b60006020828403121562001aef57600080fd5b81516200183e8162001808565b60006020828403121562001b0f57600080fd5b5051919050565b6000815180845260005b8181101562001b3e5760208185018101518683018201520162001b20565b8181111562001b51576000602083870101525b50601f01601f19169290920160200192915050565b6001600160a01b03868116825285811660208301528416604082015260a06060820181905260009062001b9c9083018562001b16565b828103608084015262001bb0818562001b16565b98975050505050505050565b6020808252602e908201527f496e697469616c697a61626c653a20636f6e747261637420697320616c72656160408201526d191e481a5b9a5d1a585b1a5e995960921b606082015260800190565b60c08152600062001c1f60c083018962001b16565b828103602084015262001c33818962001b16565b6001600160a01b039788166040850152959096166060830152509115156080830152151560a0909101529392505050565b6001600160a01b038316815260406020820181905260009062001c8a9083018462001b16565b949350505050565b6020808252602b908201527f496e697469616c697a61626c653a20636f6e7472616374206973206e6f74206960408201526a6e697469616c697a696e6760a81b60608201526080019056fe60806040526040516108c63803806108c68339810160408190526100229161042a565b61004d60017fa3f0ad74e5423aebfd80d3ef4346578335a9a72aeaee59ff6cb3582b35133d516104ea565b600080516020610885833981519152146100695761006961050f565b610073828261007a565b505061058f565b61008d8261022660201b6100291760201c565b6100ec5760405162461bcd60e51b815260206004820152602560248201527f426561636f6e50726f78793a20626561636f6e206973206e6f74206120636f6e6044820152641d1c9858dd60da1b60648201526084015b60405180910390fd5b610160826001600160a01b031663da5257166040518163ffffffff1660e01b8152600401602060405180830381865afa15801561012d573d6000803e3d6000fd5b505050506040513d601f19601f820116820180604052508101906101519190610525565b61022660201b6100291760201c565b6101d25760405162461bcd60e51b815260206004820152603460248201527f426561636f6e50726f78793a20626561636f6e20696d706c656d656e7461746960448201527f6f6e206973206e6f74206120636f6e747261637400000000000000000000000060648201526084016100e3565b6000805160206108858339815191528281558151156102215761021f6101f6610235565b836040518060600160405280602181526020016108a5602191396102b360201b6100381760201c565b505b505050565b6001600160a01b03163b151590565b600061024d6000805160206108858339815191525490565b6001600160a01b031663da5257166040518163ffffffff1660e01b8152600401602060405180830381865afa15801561028a573d6000803e3d6000fd5b505050506040513d601f19601f820116820180604052508101906102ae9190610525565b905090565b60606001600160a01b0384163b61031b5760405162461bcd60e51b815260206004820152602660248201527f416464726573733a2064656c65676174652063616c6c20746f206e6f6e2d636f6044820152651b9d1c9858dd60d21b60648201526084016100e3565b600080856001600160a01b0316856040516103369190610540565b600060405180830381855af49150503d8060008114610371576040519150601f19603f3d011682016040523d82523d6000602084013e610376565b606091505b509092509050610387828286610393565b925050505b9392505050565b606083156103a257508161038c565b8251156103b25782518084602001fd5b8160405162461bcd60e51b81526004016100e3919061055c565b80516001600160a01b03811681146103e357600080fd5b919050565b634e487b7160e01b600052604160045260246000fd5b60005b83811015610419578181015183820152602001610401565b8381111561021f5750506000910152565b6000806040838503121561043d57600080fd5b610446836103cc565b60208401519092506001600160401b038082111561046357600080fd5b818501915085601f83011261047757600080fd5b815181811115610489576104896103e8565b604051601f8201601f19908116603f011681019083821181831017156104b1576104b16103e8565b816040528281528860208487010111156104ca57600080fd5b6104db8360208301602088016103fe565b80955050505050509250929050565b60008282101561050a57634e487b7160e01b600052601160045260246000fd5b500390565b634e487b7160e01b600052600160045260246000fd5b60006020828403121561053757600080fd5b61038c826103cc565b600082516105528184602087016103fe565b9190910192915050565b602081526000825180602084015261057b8160408501602087016103fe565b601f01601f19169190910160400192915050565b6102e78061059e6000396000f3fe60806040523661001357610011610017565b005b6100115b61002761002261011c565b6101ac565b565b6001600160a01b03163b151590565b60606001600160a01b0384163b6100a55760405162461bcd60e51b815260206004820152602660248201527f416464726573733a2064656c65676174652063616c6c20746f206e6f6e2d636f6044820152651b9d1c9858dd60d21b60648201526084015b60405180910390fd5b600080856001600160a01b0316856040516100c09190610239565b600060405180830381855af49150503d80600081146100fb576040519150601f19603f3d011682016040523d82523d6000602084013e610100565b606091505b50915091506101108282866101d0565b925050505b9392505050565b60006101467fa3f0ad74e5423aebfd80d3ef4346578335a9a72aeaee59ff6cb3582b35133d505490565b6001600160a01b031663da5257166040518163ffffffff1660e01b8152600401602060405180830381865afa158015610183573d6000803e3d6000fd5b505050506040513d601f19601f820116820180604052508101906101a79190610255565b905090565b3660008037600080366000845af43d6000803e8080156101cb573d6000f35b3d6000fd5b606083156101df575081610115565b8251156101ef5782518084602001fd5b8160405162461bcd60e51b815260040161009c919061027e565b60005b8381101561022457818101518382015260200161020c565b83811115610233576000848401525b50505050565b6000825161024b818460208701610209565b9190910192915050565b60006020828403121561026757600080fd5b81516001600160a01b038116811461011557600080fd5b602081526000825180602084015261029d816040850160208701610209565b601f01601f1916919091016040019291505056fea2646970667358221220f8229659447c762e7a87e74215956d58f6e585f6775523d0543037f8a20f99c664736f6c634300080d0033a3f0ad74e5423aebfd80d3ef4346578335a9a72aeaee59ff6cb3582b35133d50426561636f6e50726f78793a2066756e6374696f6e2063616c6c206661696c6564a2646970667358221220d3a0dd5b92feb2fb9756f35468bbcf7d24e3d649f576750cb157c23726c5614a64736f6c634300080d0033",
  "devdoc": {
    "kind": "dev",
    "methods": {
      "childImplementation()": {
        "details": "Returns the current child implementation address."
      },
      "owner()": {
        "details": "Returns the address of the current owner."
      },
      "renounceOwnership()": {
        "details": "Leaves the contract without owner. It will not be possible to call `onlyOwner` functions anymore. Can only be called by the current owner. NOTE: Renouncing ownership will leave the contract without an owner, thereby removing any functionality that is only available to the owner."
      },
      "transferOwnership(address)": {
        "details": "Transfers ownership of the contract to a new account (`newOwner`). Can only be called by the current owner."
      },
      "upgradeChildTo(address)": {
        "details": "Upgrades the beacon to a new implementation. Emits an {Upgraded} event. Requirements: - msg.sender must be the owner of the contract. - `newChildImplementation` must be a contract."
      }
    },
    "version": 1
  },
  "userdoc": {
    "kind": "user",
    "methods": {
      "maxAuctionLength()": {
        "notice": "the maximum auction length"
      },
      "minAuctionLength()": {
        "notice": "the minimum auction length"
      },
      "minBidIncrease()": {
        "notice": "the % bid increase required for a new bid"
      }
    },
    "version": 1
  },
  "storageLayout": {
    "storage": [
      {
        "astId": 274,
        "contract": "src/contracts/FNFTCollectionFactory.sol:FNFTCollectionFactory",
        "label": "_initialized",
        "offset": 0,
        "slot": "0",
        "type": "t_uint8"
      },
      {
        "astId": 277,
        "contract": "src/contracts/FNFTCollectionFactory.sol:FNFTCollectionFactory",
        "label": "_initializing",
        "offset": 1,
        "slot": "0",
        "type": "t_bool"
      },
      {
        "astId": 2270,
        "contract": "src/contracts/FNFTCollectionFactory.sol:FNFTCollectionFactory",
        "label": "__gap",
        "offset": 0,
        "slot": "1",
        "type": "t_array(t_uint256)50_storage"
      },
      {
        "astId": 10,
        "contract": "src/contracts/FNFTCollectionFactory.sol:FNFTCollectionFactory",
        "label": "_owner",
        "offset": 0,
        "slot": "51",
        "type": "t_address"
      },
      {
        "astId": 122,
        "contract": "src/contracts/FNFTCollectionFactory.sol:FNFTCollectionFactory",
        "label": "__gap",
        "offset": 0,
        "slot": "52",
        "type": "t_array(t_uint256)49_storage"
      },
      {
        "astId": 21677,
        "contract": "src/contracts/FNFTCollectionFactory.sol:FNFTCollectionFactory",
        "label": "isGuardian",
        "offset": 0,
        "slot": "101",
        "type": "t_mapping(t_address,t_bool)"
      },
      {
        "astId": 21681,
        "contract": "src/contracts/FNFTCollectionFactory.sol:FNFTCollectionFactory",
        "label": "isPaused",
        "offset": 0,
        "slot": "102",
        "type": "t_mapping(t_uint256,t_bool)"
      },
      {
        "astId": 18473,
        "contract": "src/contracts/FNFTCollectionFactory.sol:FNFTCollectionFactory",
        "label": "_childImplementation",
        "offset": 0,
        "slot": "103",
        "type": "t_address"
      },
      {
        "astId": 10003,
        "contract": "src/contracts/FNFTCollectionFactory.sol:FNFTCollectionFactory",
        "label": "_vaultFees",
        "offset": 0,
        "slot": "104",
        "type": "t_mapping(t_uint256,t_struct(VaultFees)15688_storage)"
      },
      {
        "astId": 10006,
        "contract": "src/contracts/FNFTCollectionFactory.sol:FNFTCollectionFactory",
        "label": "factoryMintFee",
        "offset": 0,
        "slot": "105",
        "type": "t_uint64"
      },
      {
        "astId": 10009,
        "contract": "src/contracts/FNFTCollectionFactory.sol:FNFTCollectionFactory",
        "label": "factoryRandomRedeemFee",
        "offset": 8,
        "slot": "105",
        "type": "t_uint64"
      },
      {
        "astId": 10012,
        "contract": "src/contracts/FNFTCollectionFactory.sol:FNFTCollectionFactory",
        "label": "factoryRandomSwapFee",
        "offset": 16,
        "slot": "105",
        "type": "t_uint64"
      },
      {
        "astId": 10015,
        "contract": "src/contracts/FNFTCollectionFactory.sol:FNFTCollectionFactory",
        "label": "factoryTargetRedeemFee",
        "offset": 24,
        "slot": "105",
        "type": "t_uint64"
      },
      {
        "astId": 10019,
        "contract": "src/contracts/FNFTCollectionFactory.sol:FNFTCollectionFactory",
        "label": "vaultManager",
        "offset": 0,
        "slot": "106",
        "type": "t_contract(IVaultManager)17110"
      },
      {
        "astId": 10022,
        "contract": "src/contracts/FNFTCollectionFactory.sol:FNFTCollectionFactory",
        "label": "factoryTargetSwapFee",
        "offset": 20,
        "slot": "106",
        "type": "t_uint64"
      },
      {
        "astId": 10025,
        "contract": "src/contracts/FNFTCollectionFactory.sol:FNFTCollectionFactory",
        "label": "eligibilityManager",
        "offset": 0,
        "slot": "107",
        "type": "t_address"
      },
      {
        "astId": 10028,
        "contract": "src/contracts/FNFTCollectionFactory.sol:FNFTCollectionFactory",
        "label": "flashLoanFee",
        "offset": 0,
        "slot": "108",
        "type": "t_uint256"
      },
      {
        "astId": 10032,
        "contract": "src/contracts/FNFTCollectionFactory.sol:FNFTCollectionFactory",
        "label": "maxAuctionLength",
        "offset": 0,
        "slot": "109",
        "type": "t_uint256"
      },
      {
        "astId": 10036,
        "contract": "src/contracts/FNFTCollectionFactory.sol:FNFTCollectionFactory",
        "label": "minAuctionLength",
        "offset": 0,
        "slot": "110",
        "type": "t_uint256"
      },
      {
        "astId": 10040,
        "contract": "src/contracts/FNFTCollectionFactory.sol:FNFTCollectionFactory",
        "label": "minBidIncrease",
        "offset": 0,
        "slot": "111",
        "type": "t_uint256"
      }
    ],
    "types": {
      "t_address": {
        "encoding": "inplace",
        "label": "address",
        "numberOfBytes": "20"
      },
      "t_array(t_uint256)49_storage": {
        "base": "t_uint256",
        "encoding": "inplace",
        "label": "uint256[49]",
        "numberOfBytes": "1568"
      },
      "t_array(t_uint256)50_storage": {
        "base": "t_uint256",
        "encoding": "inplace",
        "label": "uint256[50]",
        "numberOfBytes": "1600"
      },
      "t_bool": {
        "encoding": "inplace",
        "label": "bool",
        "numberOfBytes": "1"
      },
      "t_contract(IVaultManager)17110": {
        "encoding": "inplace",
        "label": "contract IVaultManager",
        "numberOfBytes": "20"
      },
      "t_mapping(t_address,t_bool)": {
        "encoding": "mapping",
        "key": "t_address",
        "label": "mapping(address => bool)",
        "numberOfBytes": "32",
        "value": "t_bool"
      },
      "t_mapping(t_uint256,t_bool)": {
        "encoding": "mapping",
        "key": "t_uint256",
        "label": "mapping(uint256 => bool)",
        "numberOfBytes": "32",
        "value": "t_bool"
      },
      "t_mapping(t_uint256,t_struct(VaultFees)15688_storage)": {
        "encoding": "mapping",
        "key": "t_uint256",
        "label": "mapping(uint256 => struct IFNFTCollectionFactory.VaultFees)",
        "numberOfBytes": "32",
        "value": "t_struct(VaultFees)15688_storage"
      },
      "t_struct(VaultFees)15688_storage": {
        "encoding": "inplace",
        "label": "struct IFNFTCollectionFactory.VaultFees",
        "members": [
          {
            "astId": 15677,
            "contract": "src/contracts/FNFTCollectionFactory.sol:FNFTCollectionFactory",
            "label": "active",
            "offset": 0,
            "slot": "0",
            "type": "t_bool"
          },
          {
            "astId": 15679,
            "contract": "src/contracts/FNFTCollectionFactory.sol:FNFTCollectionFactory",
            "label": "mintFee",
            "offset": 1,
            "slot": "0",
            "type": "t_uint64"
          },
          {
            "astId": 15681,
            "contract": "src/contracts/FNFTCollectionFactory.sol:FNFTCollectionFactory",
            "label": "randomRedeemFee",
            "offset": 9,
            "slot": "0",
            "type": "t_uint64"
          },
          {
            "astId": 15683,
            "contract": "src/contracts/FNFTCollectionFactory.sol:FNFTCollectionFactory",
            "label": "targetRedeemFee",
            "offset": 17,
            "slot": "0",
            "type": "t_uint64"
          },
          {
            "astId": 15685,
            "contract": "src/contracts/FNFTCollectionFactory.sol:FNFTCollectionFactory",
            "label": "randomSwapFee",
            "offset": 0,
            "slot": "1",
            "type": "t_uint64"
          },
          {
            "astId": 15687,
            "contract": "src/contracts/FNFTCollectionFactory.sol:FNFTCollectionFactory",
            "label": "targetSwapFee",
            "offset": 8,
            "slot": "1",
            "type": "t_uint64"
          }
        ],
        "numberOfBytes": "64"
      },
      "t_uint256": {
        "encoding": "inplace",
        "label": "uint256",
        "numberOfBytes": "32"
      },
      "t_uint64": {
        "encoding": "inplace",
        "label": "uint64",
        "numberOfBytes": "8"
      },
      "t_uint8": {
        "encoding": "inplace",
        "label": "uint8",
        "numberOfBytes": "1"
      }
    }
  }
}