{
  "address": "0x8f74973e4ff9096612e460F0b297360d668F2CD3",
  "abi": [
    {
      "inputs": [],
      "name": "LPStakingXTokenAlreadySet",
      "type": "error"
    },
    {
      "inputs": [],
      "name": "NotAPool",
      "type": "error"
    },
    {
      "inputs": [],
      "name": "NotDeployingProperDistro",
      "type": "error"
    },
    {
      "inputs": [],
      "name": "NotExcludedFromFees",
      "type": "error"
    },
    {
      "inputs": [],
      "name": "NothingToMigrate",
      "type": "error"
    },
    {
      "inputs": [],
      "name": "Paused",
      "type": "error"
    },
    {
      "inputs": [],
      "name": "PoolAlreadyExists",
      "type": "error"
    },
    {
      "inputs": [],
      "name": "PoolDoesNotExist",
      "type": "error"
    },
    {
      "inputs": [],
      "name": "TimelockTooLong",
      "type": "error"
    },
    {
      "inputs": [],
      "name": "Unauthorized",
      "type": "error"
    },
    {
      "inputs": [],
      "name": "VaultManagerAlreadySet",
      "type": "error"
    },
    {
      "inputs": [],
      "name": "VaultManagerNotSet",
      "type": "error"
    },
    {
      "inputs": [],
      "name": "ZeroAddress",
      "type": "error"
    },
    {
      "anonymous": false,
      "inputs": [
        {
          "indexed": false,
          "internalType": "uint256",
          "name": "vaultId",
          "type": "uint256"
        },
        {
          "indexed": false,
          "internalType": "uint256",
          "name": "amount",
          "type": "uint256"
        },
        {
          "indexed": false,
          "internalType": "address",
          "name": "xToken",
          "type": "address"
        }
      ],
      "name": "FeesReceived",
      "type": "event"
    },
    {
      "anonymous": false,
      "inputs": [
        {
          "indexed": false,
          "internalType": "uint8",
          "name": "version",
          "type": "uint8"
        }
      ],
      "name": "Initialized",
      "type": "event"
    },
    {
      "anonymous": false,
      "inputs": [
        {
          "indexed": false,
          "internalType": "uint256",
          "name": "vaultId",
          "type": "uint256"
        },
        {
          "indexed": false,
          "internalType": "uint256",
          "name": "amount",
          "type": "uint256"
        },
        {
          "indexed": false,
          "internalType": "address",
          "name": "xToken",
          "type": "address"
        },
        {
          "indexed": false,
          "internalType": "address",
          "name": "sender",
          "type": "address"
        }
      ],
      "name": "LPDeposited",
      "type": "event"
    },
    {
      "anonymous": false,
      "inputs": [
        {
          "indexed": true,
          "internalType": "address",
          "name": "previousOwner",
          "type": "address"
        },
        {
          "indexed": true,
          "internalType": "address",
          "name": "newOwner",
          "type": "address"
        }
      ],
      "name": "OwnershipTransferred",
      "type": "event"
    },
    {
      "anonymous": false,
      "inputs": [
        {
          "indexed": false,
          "internalType": "address",
          "name": "addr",
          "type": "address"
        },
        {
          "indexed": false,
          "internalType": "bool",
          "name": "isGuardian",
          "type": "bool"
        }
      ],
      "name": "SetIsGuardian",
      "type": "event"
    },
    {
      "anonymous": false,
      "inputs": [
        {
          "indexed": false,
          "internalType": "uint256",
          "name": "lockId",
          "type": "uint256"
        },
        {
          "indexed": false,
          "internalType": "bool",
          "name": "paused",
          "type": "bool"
        }
      ],
      "name": "SetPaused",
      "type": "event"
    },
    {
      "anonymous": false,
      "inputs": [
        {
          "indexed": false,
          "internalType": "uint256",
          "name": "vaultId",
          "type": "uint256"
        },
        {
          "indexed": false,
          "internalType": "address",
          "name": "xToken",
          "type": "address"
        },
        {
          "indexed": false,
          "internalType": "address",
          "name": "baseToken",
          "type": "address"
        }
      ],
      "name": "StakingPoolCreated",
      "type": "event"
    },
    {
      "anonymous": false,
      "inputs": [
        {
          "indexed": false,
          "internalType": "uint256",
          "name": "vaultId",
          "type": "uint256"
        },
        {
          "indexed": false,
          "internalType": "address",
          "name": "xToken",
          "type": "address"
        }
      ],
      "name": "StakingPoolUpdated",
      "type": "event"
    },
    {
      "anonymous": false,
      "inputs": [
        {
          "indexed": false,
          "internalType": "address",
          "name": "oldStakingTokenProvider",
          "type": "address"
        },
        {
          "indexed": false,
          "internalType": "address",
          "name": "newStakingTokenProvider",
          "type": "address"
        }
      ],
      "name": "StakingTokenProviderUpdated",
      "type": "event"
    },
    {
      "anonymous": false,
      "inputs": [
        {
          "indexed": false,
          "internalType": "uint256",
          "name": "vaultId",
          "type": "uint256"
        },
        {
          "indexed": false,
          "internalType": "uint256",
          "name": "amount",
          "type": "uint256"
        },
        {
          "indexed": false,
          "internalType": "address",
          "name": "xToken",
          "type": "address"
        },
        {
          "indexed": false,
          "internalType": "address",
          "name": "sender",
          "type": "address"
        }
      ],
      "name": "XTokenWithdrawn",
      "type": "event"
    },
    {
      "inputs": [
        {
          "internalType": "address",
          "name": "_vaultManager",
          "type": "address"
        },
        {
          "internalType": "address",
          "name": "_stakingTokenProvider",
          "type": "address"
        }
      ],
      "name": "__LPStaking__init",
      "outputs": [],
      "stateMutability": "nonpayable",
      "type": "function"
    },
    {
      "inputs": [
        {
          "internalType": "uint256",
          "name": "vaultId",
          "type": "uint256"
        }
      ],
      "name": "addPoolForVault",
      "outputs": [],
      "stateMutability": "nonpayable",
      "type": "function"
    },
    {
      "inputs": [
        {
          "internalType": "uint256",
          "name": "vaultId",
          "type": "uint256"
        },
        {
          "internalType": "address",
          "name": "addr",
          "type": "address"
        }
      ],
      "name": "balanceOf",
      "outputs": [
        {
          "internalType": "uint256",
          "name": "",
          "type": "uint256"
        }
      ],
      "stateMutability": "view",
      "type": "function"
    },
    {
      "inputs": [
        {
          "internalType": "uint256[]",
          "name": "vaultIds",
          "type": "uint256[]"
        }
      ],
      "name": "claimMultipleRewards",
      "outputs": [],
      "stateMutability": "nonpayable",
      "type": "function"
    },
    {
      "inputs": [
        {
          "internalType": "uint256",
          "name": "vaultId",
          "type": "uint256"
        },
        {
          "internalType": "address",
          "name": "to",
          "type": "address"
        }
      ],
      "name": "claimRewardsTo",
      "outputs": [],
      "stateMutability": "nonpayable",
      "type": "function"
    },
    {
      "inputs": [
        {
          "internalType": "uint256",
          "name": "vaultId",
          "type": "uint256"
        },
        {
          "internalType": "uint256",
          "name": "amount",
          "type": "uint256"
        }
      ],
      "name": "deposit",
      "outputs": [],
      "stateMutability": "nonpayable",
      "type": "function"
    },
    {
      "inputs": [
        {
          "internalType": "address",
          "name": "_stakingToken",
          "type": "address"
        },
        {
          "internalType": "address",
          "name": "_baseToken",
          "type": "address"
        }
      ],
      "name": "emergencyExit",
      "outputs": [],
      "stateMutability": "nonpayable",
      "type": "function"
    },
    {
      "inputs": [
        {
          "internalType": "address",
          "name": "_stakingToken",
          "type": "address"
        },
        {
          "internalType": "address",
          "name": "_baseToken",
          "type": "address"
        }
      ],
      "name": "emergencyExitAndClaim",
      "outputs": [],
      "stateMutability": "nonpayable",
      "type": "function"
    },
    {
      "inputs": [
        {
          "internalType": "uint256",
          "name": "vaultId",
          "type": "uint256"
        }
      ],
      "name": "exit",
      "outputs": [],
      "stateMutability": "nonpayable",
      "type": "function"
    },
    {
      "inputs": [
        {
          "internalType": "address",
          "name": "",
          "type": "address"
        }
      ],
      "name": "isGuardian",
      "outputs": [
        {
          "internalType": "bool",
          "name": "",
          "type": "bool"
        }
      ],
      "stateMutability": "view",
      "type": "function"
    },
    {
      "inputs": [
        {
          "internalType": "uint256",
          "name": "",
          "type": "uint256"
        }
      ],
      "name": "isPaused",
      "outputs": [
        {
          "internalType": "bool",
          "name": "",
          "type": "bool"
        }
      ],
      "stateMutability": "view",
      "type": "function"
    },
    {
      "inputs": [
        {
          "internalType": "uint256",
          "name": "vaultId",
          "type": "uint256"
        },
        {
          "internalType": "address",
          "name": "who",
          "type": "address"
        }
      ],
      "name": "lockedLPBalance",
      "outputs": [
        {
          "internalType": "uint256",
          "name": "",
          "type": "uint256"
        }
      ],
      "stateMutability": "view",
      "type": "function"
    },
    {
      "inputs": [
        {
          "internalType": "uint256",
          "name": "vaultId",
          "type": "uint256"
        },
        {
          "internalType": "address",
          "name": "who",
          "type": "address"
        }
      ],
      "name": "lockedUntil",
      "outputs": [
        {
          "internalType": "uint256",
          "name": "",
          "type": "uint256"
        }
      ],
      "stateMutability": "view",
      "type": "function"
    },
    {
      "inputs": [],
      "name": "lpStakingXToken",
      "outputs": [
        {
          "internalType": "contract LPStakingXTokenUpgradeable",
          "name": "",
          "type": "address"
        }
      ],
      "stateMutability": "view",
      "type": "function"
    },
    {
      "inputs": [
        {
          "internalType": "uint256",
          "name": "lockId",
          "type": "uint256"
        }
      ],
      "name": "onlyOwnerIfPaused",
      "outputs": [],
      "stateMutability": "view",
      "type": "function"
    },
    {
      "inputs": [],
      "name": "owner",
      "outputs": [
        {
          "internalType": "address",
          "name": "",
          "type": "address"
        }
      ],
      "stateMutability": "view",
      "type": "function"
    },
    {
      "inputs": [
        {
          "internalType": "uint256",
          "name": "lockId",
          "type": "uint256"
        }
      ],
      "name": "pause",
      "outputs": [],
      "stateMutability": "nonpayable",
      "type": "function"
    },
    {
      "inputs": [
        {
          "internalType": "uint256",
          "name": "vaultId",
          "type": "uint256"
        },
        {
          "internalType": "uint256",
          "name": "amount",
          "type": "uint256"
        }
      ],
      "name": "receiveRewards",
      "outputs": [
        {
          "internalType": "bool",
          "name": "",
          "type": "bool"
        }
      ],
      "stateMutability": "nonpayable",
      "type": "function"
    },
    {
      "inputs": [],
      "name": "renounceOwnership",
      "outputs": [],
      "stateMutability": "nonpayable",
      "type": "function"
    },
    {
      "inputs": [
        {
          "internalType": "uint256",
          "name": "vaultId",
          "type": "uint256"
        },
        {
          "internalType": "uint256",
          "name": "amount",
          "type": "uint256"
        },
        {
          "internalType": "address",
          "name": "from",
          "type": "address"
        },
        {
          "internalType": "address",
          "name": "to",
          "type": "address"
        }
      ],
      "name": "retrieveTokens",
      "outputs": [],
      "stateMutability": "nonpayable",
      "type": "function"
    },
    {
      "inputs": [
        {
          "internalType": "address",
          "name": "_address",
          "type": "address"
        },
        {
          "internalType": "bool",
          "name": "_isGuardian",
          "type": "bool"
        }
      ],
      "name": "setIsGuardian",
      "outputs": [],
      "stateMutability": "nonpayable",
      "type": "function"
    },
    {
      "inputs": [
        {
          "internalType": "address",
          "name": "_stakingTokenProvider",
          "type": "address"
        }
      ],
      "name": "setStakingTokenProvider",
      "outputs": [],
      "stateMutability": "nonpayable",
      "type": "function"
    },
    {
      "inputs": [],
      "name": "stakingTokenProvider",
      "outputs": [
        {
          "internalType": "contract IStakingTokenProvider",
          "name": "",
          "type": "address"
        }
      ],
      "stateMutability": "view",
      "type": "function"
    },
    {
      "inputs": [
        {
          "internalType": "uint256",
          "name": "vaultId",
          "type": "uint256"
        },
        {
          "internalType": "address",
          "name": "account",
          "type": "address"
        },
        {
          "internalType": "uint256",
          "name": "amount",
          "type": "uint256"
        },
        {
          "internalType": "uint256",
          "name": "timelockLength",
          "type": "uint256"
        }
      ],
      "name": "timelockDepositFor",
      "outputs": [],
      "stateMutability": "nonpayable",
      "type": "function"
    },
    {
      "inputs": [
        {
          "internalType": "address",
          "name": "newOwner",
          "type": "address"
        }
      ],
      "name": "transferOwnership",
      "outputs": [],
      "stateMutability": "nonpayable",
      "type": "function"
    },
    {
      "inputs": [
        {
          "internalType": "uint256",
          "name": "lockId",
          "type": "uint256"
        }
      ],
      "name": "unpause",
      "outputs": [],
      "stateMutability": "nonpayable",
      "type": "function"
    },
    {
      "inputs": [
        {
          "internalType": "uint256",
          "name": "vaultId",
          "type": "uint256"
        }
      ],
      "name": "updatePoolForVault",
      "outputs": [],
      "stateMutability": "nonpayable",
      "type": "function"
    },
    {
      "inputs": [
        {
          "internalType": "uint256[]",
          "name": "vaultIds",
          "type": "uint256[]"
        }
      ],
      "name": "updatePoolForVaults",
      "outputs": [],
      "stateMutability": "nonpayable",
      "type": "function"
    },
    {
      "inputs": [],
      "name": "vaultManager",
      "outputs": [
        {
          "internalType": "contract IVaultManager",
          "name": "",
          "type": "address"
        }
      ],
      "stateMutability": "view",
      "type": "function"
    },
    {
      "inputs": [
        {
          "internalType": "uint256",
          "name": "",
          "type": "uint256"
        }
      ],
      "name": "vaultStakingInfo",
      "outputs": [
        {
          "internalType": "address",
          "name": "stakingToken",
          "type": "address"
        },
        {
          "internalType": "address",
          "name": "baseToken",
          "type": "address"
        }
      ],
      "stateMutability": "view",
      "type": "function"
    },
    {
      "inputs": [
        {
          "internalType": "uint256",
          "name": "vaultId",
          "type": "uint256"
        },
        {
          "internalType": "uint256",
          "name": "amount",
          "type": "uint256"
        },
        {
          "internalType": "address",
          "name": "to",
          "type": "address"
        }
      ],
      "name": "withdrawTo",
      "outputs": [],
      "stateMutability": "nonpayable",
      "type": "function"
    },
    {
      "inputs": [
        {
          "components": [
            {
              "internalType": "address",
              "name": "stakingToken",
              "type": "address"
            },
            {
              "internalType": "address",
              "name": "baseToken",
              "type": "address"
            }
          ],
          "internalType": "struct ILPStaking.StakingPool",
          "name": "pool",
          "type": "tuple"
        }
      ],
      "name": "xToken",
      "outputs": [
        {
          "internalType": "contract LPStakingXTokenUpgradeable",
          "name": "",
          "type": "address"
        }
      ],
      "stateMutability": "view",
      "type": "function"
    },
    {
      "inputs": [
        {
          "internalType": "uint256",
          "name": "vaultId",
          "type": "uint256"
        }
      ],
      "name": "xToken",
      "outputs": [
        {
          "internalType": "contract LPStakingXTokenUpgradeable",
          "name": "",
          "type": "address"
        }
      ],
      "stateMutability": "view",
      "type": "function"
    },
    {
      "inputs": [
        {
          "internalType": "address",
          "name": "stakedToken",
          "type": "address"
        },
        {
          "internalType": "address",
          "name": "baseToken",
          "type": "address"
        }
      ],
      "name": "xTokenAddr",
      "outputs": [
        {
          "internalType": "address",
          "name": "",
          "type": "address"
        }
      ],
      "stateMutability": "view",
      "type": "function"
    }
  ],
  "transactionHash": "0x7d54874a6ad1f09d4491b5a57aa5199117328e707b0589bdf80d1e3cc1210f15",
  "args": [],
  "numDeployments": 1,
  "solcInputHash": "bf0ff9e6b7fc2e915dfac7a0da096a36",
  "bytecode": "0x608060405234801561001057600080fd5b50614512806100206000396000f3fe608060405234801561001057600080fd5b50600436106102065760003560e01c806386c920fc1161011a578063e0e9e64d116100ad578063f36d52da1161007c578063f36d52da146104c3578063f79b61ba146104d6578063f99e7405146104e9578063fabc1cbc146104fc578063fd744da91461050f57600080fd5b8063e0e9e64d14610477578063e2bbb1581461048a578063e8e571181461049d578063f2fde38b146104b057600080fd5b806391ff8051116100e957806391ff80511461041b578063b1412be01461042e578063bdf2a43c14610441578063cd4605321461046457600080fd5b806386c920fc146103b957806387a6753f146103e45780638a4adf24146103f75780638da5cb5b1461040a57600080fd5b80635cec16c01161019d578063729d0a8a1161016c578063729d0a8a1461035a5780637a77a5f71461036d5780637c77b616146103805780637ec732ab146103935780637f8661a1146103a657600080fd5b80635cec16c0146103195780635e1cc7121461032c5780636c9b95881461033f578063715018a61461035257600080fd5b80633504f437116101d95780633504f4371461027e5780633580c2f2146102d25780633656eec2146102e5578063482d0fd21461030657600080fd5b80630c68ba211461020b578063136439dd1461024357806314cd70e41461025857806323845fb51461026b575b600080fd5b61022e61021936600461235a565b60656020526000908152604090205460ff1681565b60405190151581526020015b60405180910390f35b610256610251366004612377565b610522565b005b610256610266366004612390565b6105a9565b6102566102793660046123d7565b610653565b6102b261028c366004612377565b606760205260009081526040902080546001909101546001600160a01b03918216911682565b604080516001600160a01b0393841681529290911660208301520161023a565b6102566102e0366004612410565b6106e9565b6102f86102f336600461243e565b6107b7565b60405190815260200161023a565b610256610314366004612377565b61088e565b610256610327366004612410565b610a29565b61025661033a36600461243e565b610a73565b61025661034d366004612463565b610ab6565b610256610c5c565b6102566103683660046124a0565b610c92565b61025661037b3660046124a0565b610cc8565b61025661038e366004612377565b610cfd565b6102566103a136600461235a565b610d47565b6102566103b4366004612377565b610e01565b6068546103cc906001600160a01b031681565b6040516001600160a01b03909116815260200161023a565b6102566103f2366004612377565b610e51565b606a546103cc906001600160a01b031681565b6033546001600160a01b03166103cc565b6069546103cc906001600160a01b031681565b6103cc61043c36600461252b565b61110c565b61022e61044f366004612377565b60666020526000908152604090205460ff1681565b61025661047236600461258a565b611186565b6102f861048536600461243e565b6112c0565b6102566104983660046125d4565b611380565b6103cc6104ab366004612377565b6115bf565b6102566104be36600461235a565b611614565b61022e6104d13660046125d4565b6116ac565b6102566104e4366004612410565b61191e565b6102f86104f736600461243e565b611ac8565b61025661050a366004612377565b611b3a565b6103cc61051d366004612410565b611bb1565b3360009081526065602052604090205460ff16610551576040516282b42960e81b815260040160405180910390fd5b600081815260666020908152604091829020805460ff191660019081179091558251848152918201527f77f1fcfcce67dc392d64f842056d2ec06c80986c47c910f7e79c5b23a2738d7491015b60405180910390a150565b600083815260676020908152604091829020825180840190935280546001600160a01b03908116845260019091015416908201526105e78183611bdb565b6105f2818484611c6d565b7f19511320b665885ef3c08fe86b05785c4aa981da411301a85730a092dc030955848461061e8461110c565b6040805193845260208401929092526001600160a01b039081168383015285166060830152519081900360800190a150505050565b6033546001600160a01b031633146106865760405162461bcd60e51b815260040161067d906125f6565b60405180910390fd5b6001600160a01b038216600081815260656020908152604091829020805460ff19168515159081179091558251938452908301527fd0b6b573d5442f7c29fd50d9735ae341581c25c6ed07748d50eda519f1ffa88a910160405180910390a15050565b604080518082019091526001600160a01b0380841682528216602082015260006107128261110c565b9050803b61073357604051632bab424160e01b815260040160405180910390fd5b61073d8233611bdb565b6040516370a0823160e01b81523360048201526107b19083906001600160a01b038416906370a0823190602401602060405180830381865afa158015610787573d6000803e3d6000fd5b505050506040513d601f19601f820116820180604052508101906107ab919061262b565b33611c6d565b50505050565b6000828152606760209081526040808320815180830190925280546001600160a01b0390811683526001909101541691810191909152816107f78261110c565b9050803b61081857604051632bab424160e01b815260040160405180910390fd5b6040516370a0823160e01b81526001600160a01b0385811660048301528216906370a08231906024015b602060405180830381865afa15801561085f573d6000803e3d6000fd5b505050506040513d601f19601f82011682018060405250810190610883919061262b565b925050505b92915050565b600081815260676020908152604091829020825180840190935280546001600160a01b0390811680855260019092015416918301919091526108e3576040516302721e1f60e61b815260040160405180910390fd5b60685460208201516040516387c13f4d60e01b81526001600160a01b03918216600482015260009291909116906387c13f4d90602401602060405180830381865afa158015610936573d6000803e3d6000fd5b505050506040513d601f19601f8201168201806040525081019061095a9190612644565b6040805180820182526001600160a01b038084168252602086810151821681840190815260008981526067909252938120835181549084166001600160a01b03199182161782559451600190910180549190931694169390931790559192506109c28261110c565b9050803b156109d2575050505050565b60006109dd83611d19565b604080518881526001600160a01b03831660208201529192507f3e66638b61edd20ef6b951155f42d5e53c3d1dba0bfffec1b438d1ca6dc02d56910160405180910390a1505050505050565b604080518082019091526001600160a01b038084168252821660208201526000610a528261110c565b9050803b61073d57604051632bab424160e01b815260040160405180910390fd5b600082815260676020908152604091829020825180840190935280546001600160a01b0390811684526001909101541690820152610ab18183611bdb565b505050565b62278d008110610ad957604051632e3f1a4f60e11b815260040160405180910390fd5b606a546040516306df336560e51b81523360048201526001600160a01b039091169063dbe66ca090602401602060405180830381865afa158015610b21573d6000803e3d6000fd5b505050506040513d601f19601f82011682018060405250810190610b459190612661565b610b625760405163185ab21560e01b815260040160405180910390fd5b610b6c600a610cfd565b610b758461088e565b600084815260676020908152604091829020825180840190935280546001600160a01b039081168085526001909201541691830191909152610bca576040516302721e1f60e61b815260040160405180910390fd5b8051610be1906001600160a01b0316333086611e78565b610bea8161110c565b60405163145e612f60e11b81526001600160a01b038681166004830152602482018690526044820185905291909116906328bcc25e90606401600060405180830381600087803b158015610c3d57600080fd5b505af1158015610c51573d6000803e3d6000fd5b505050505050505050565b6033546001600160a01b03163314610c865760405162461bcd60e51b815260040161067d906125f6565b610c906000611ee3565b565b8060005b818110156107b157610cc0848483818110610cb357610cb361267e565b9050602002013533610a73565b600101610c96565b8060005b818110156107b157610cf5848483818110610ce957610ce961267e565b9050602002013561088e565b600101610ccc565b60008181526066602052604090205460ff168015610d2657506033546001600160a01b03163314155b15610d44576040516313d0ff5960e31b815260040160405180910390fd5b50565b6033546001600160a01b03163314610d715760405162461bcd60e51b815260040161067d906125f6565b6001600160a01b038116610d985760405163d92e233d60e01b815260040160405180910390fd5b606854604080516001600160a01b03928316815291831660208301527f4ef475fbf37deec715d594b5cf58fdb74d55a638dbc2f03bb6b7e7f736da2e1d910160405180910390a1606880546001600160a01b0319166001600160a01b0392909216919091179055565b600081815260676020908152604091829020825180840190935280546001600160a01b0390811684526001909101541690820152610e3f8133611bdb565b610e4d816107ab84336107b7565b5050565b6033546001600160a01b03163314801590610ef45750606a60009054906101000a90046001600160a01b03166001600160a01b0316630d43e8ad6040518163ffffffff1660e01b8152600401602060405180830381865afa158015610eba573d6000803e3d6000fd5b505050506040513d601f19601f82011682018060405250810190610ede9190612644565b6001600160a01b0316336001600160a01b031614155b15610f11576040516282b42960e81b815260040160405180910390fd5b606a546001600160a01b0316610f3a5760405163047b368d60e01b815260040160405180910390fd5b6000818152606760205260409020546001600160a01b031615610f7057604051630188c99160e11b815260040160405180910390fd5b606a546040516340d1b7db60e11b8152600481018390526000916001600160a01b0316906381a36fb690602401602060405180830381865afa158015610fba573d6000803e3d6000fd5b505050506040513d601f19601f82011682018060405250810190610fde9190612644565b6068546040516387c13f4d60e01b81526001600160a01b038084166004830152929350600092909116906387c13f4d90602401602060405180830381865afa15801561102e573d6000803e3d6000fd5b505050506040513d601f19601f820116820180604052508101906110529190612644565b6040805180820182526001600160a01b038084168252858116602080840191825260008981526067909152938420835181549084166001600160a01b03199182161782559151600190910180549190931691161790559192506110b482611d19565b604080518781526001600160a01b0380841660208301528716918101919091529091507f056067fe6492bd58817601fe2c177ad41634f59fa61a75c560052894c84f8fce906060015b60405180910390a15050505050565b80516020808301516040516bffffffffffffffffffffffff19606094851b811693820193909352921b16603482015260026048820152600090819060680160408051601f19818403018152919052805160209091012060695490915060009061117e906001600160a01b031683611f35565b949350505050565b6033546001600160a01b031633146111b05760405162461bcd60e51b815260040161067d906125f6565b6000848152606760209081526040808320815180830190925280546001600160a01b0390811683526001909101541691810191909152906111f08261110c565b60405163079cc67960e41b81526001600160a01b03868116600483015260248201889052919250908216906379cc679090604401600060405180830381600087803b15801561123e57600080fd5b505af1158015611252573d6000803e3d6000fd5b50506040516340c10f1960e01b81526001600160a01b03868116600483015260248201899052841692506340c10f199150604401600060405180830381600087803b1580156112a057600080fd5b505af11580156112b4573d6000803e3d6000fd5b50505050505050505050565b6000828152606760209081526040808320815180830190925280546001600160a01b0390811683526001909101541691810191909152816113008261110c565b60405163c19ea05360e01b81526001600160a01b0386811660048301529192509082169063c19ea05390602401602060405180830381865afa15801561134a573d6000803e3d6000fd5b505050506040513d601f19601f8201168201806040525081019061136e919061262b565b42111561081857600092505050610888565b61138a600a610cfd565b6113938261088e565b600082815260676020908152604091829020825180840190935280546001600160a01b0390811680855260019092015416918301919091526113e8576040516302721e1f60e61b815260040160405180910390fd5b80516113ff906001600160a01b0316333085611e78565b600061140a8261110c565b60405163c19ea05360e01b81523360048201529091506000906001600160a01b0383169063c19ea05390602401602060405180830381865afa158015611454573d6000803e3d6000fd5b505050506040513d601f19601f82011682018060405250810190611478919061262b565b905042811115611508576001600160a01b0382166328bcc25e338661149d4286612694565b6040516001600160e01b031960e086901b1681526001600160a01b03909316600484015260248301919091526044820152606401600060405180830381600087803b1580156114eb57600080fd5b505af11580156114ff573d6000803e3d6000fd5b50505050611570565b60405163145e612f60e11b815233600482015260248101859052600260448201526001600160a01b038316906328bcc25e90606401600060405180830381600087803b15801561155757600080fd5b505af115801561156b573d6000803e3d6000fd5b505050505b60408051868152602081018690526001600160a01b038416918101919091523360608201527f80a3346f097d5600049b367aab55610897818195fa680c71ca496d1a5742d809906080016110fd565b6000818152606760209081526040808320815180830190925280546001600160a01b039081168084526001909201541692820192909252906116045750600092915050565b61160d8161110c565b9392505050565b6033546001600160a01b0316331461163e5760405162461bcd60e51b815260040161067d906125f6565b6001600160a01b0381166116a35760405162461bcd60e51b815260206004820152602660248201527f4f776e61626c653a206e6577206f776e657220697320746865207a65726f206160448201526564647265737360d01b606482015260840161067d565b610d4481611ee3565b60006116c06033546001600160a01b031690565b6001600160a01b0316336001600160a01b0316141580156117695750606a60009054906101000a90046001600160a01b03166001600160a01b0316630d43e8ad6040518163ffffffff1660e01b8152600401602060405180830381865afa15801561172f573d6000803e3d6000fd5b505050506040513d601f19601f820116820180604052508101906117539190612644565b6001600160a01b0316336001600160a01b031614155b15611786576040516282b42960e81b815260040160405180910390fd5b600083815260676020908152604091829020825180840190935280546001600160a01b0390811680855260019092015416918301919091526117cc576000915050610888565b60006117d78261110c565b9050803b15806118465750806001600160a01b03166318160ddd6040518163ffffffff1660e01b8152600401602060405180830381865afa158015611820573d6000803e3d6000fd5b505050506040513d601f19601f82011682018060405250810190611844919061262b565b155b1561185657600092505050610888565b6020820151611870906001600160a01b0316338387611e78565b604051630b32e9c760e31b8152600481018590526001600160a01b038216906359974e3890602401600060405180830381600087803b1580156118b257600080fd5b505af11580156118c6573d6000803e3d6000fd5b505060408051888152602081018890526001600160a01b0385168183015290517f7ab84b72efa4574988089c5a1831f7d56a254f969fbe7d2b6d7e6238272a4afc9350908190036060019150a1506001949350505050565b600061192a6001611f9b565b90508015611942576000805461ff0019166101001790555b61194a612023565b6001600160a01b0382166119715760405163d92e233d60e01b815260040160405180910390fd5b6069546001600160a01b03161561199b57604051635e9154fb60e01b815260040160405180910390fd5b606a80546001600160a01b038086166001600160a01b03199283161790925560688054928516929091169190911790556040516119d790612338565b604051809103906000f0801580156119f3573d6000803e3d6000fd5b50606980546001600160a01b0319166001600160a01b03929092169182179055604051631fdc71b560e11b81526000600482018190526060602483015260648201819052608060448301526084820152633fb8e36a9060a401600060405180830381600087803b158015611a6657600080fd5b505af1158015611a7a573d6000803e3d6000fd5b505050508015610ab1576000805461ff0019169055604051600181527f7f26b83ff96e1f2b6a682f133852f6798a09c465da95921460cefb38474024989060200160405180910390a1505050565b6000828152606760209081526040808320815180830190925280546001600160a01b039081168352600190910154169181019190915281611b088261110c565b60405163c19ea05360e01b81526001600160a01b0386811660048301529192509082169063c19ea05390602401610842565b6033546001600160a01b03163314611b645760405162461bcd60e51b815260040161067d906125f6565b6000818152606660209081526040808320805460ff191690558051848152918201929092527f77f1fcfcce67dc392d64f842056d2ec06c80986c47c910f7e79c5b23a2738d74910161059e565b604080518082019091526001600160a01b0380841682528216602082015260009061117e8161110c565b81516001600160a01b0316611c03576040516302721e1f60e61b815260040160405180910390fd5b611c0c8261110c565b604051632e1b8c8760e21b81526001600160a01b038381166004830152919091169063b86e321c90602401600060405180830381600087803b158015611c5157600080fd5b505af1158015611c65573d6000803e3d6000fd5b505050505050565b82516001600160a01b0316611c95576040516302721e1f60e61b815260040160405180910390fd5b611c9e8361110c565b60405163079cc67960e41b81526001600160a01b0383811660048301526024820185905291909116906379cc679090604401600060405180830381600087803b158015611cea57600080fd5b505af1158015611cfe573d6000803e3d6000fd5b50508451610ab192506001600160a01b031690508284612052565b80516020808301516040516bffffffffffffffffffffffff19606094851b811693820193909352921b16603482015260026048820152600090819060680160408051601f198184030181529190528051602090910120606954909150600090611d8b906001600160a01b031683612082565b60685460208601516040516396c5967160e01b81526001600160a01b0391821660048201529293506000929116906396c5967190602401600060405180830381865afa158015611ddf573d6000803e3d6000fd5b505050506040513d6000823e601f3d908101601f19168201604052611e0791908101906126e5565b6020860151604051631fdc71b560e11b81529192506001600160a01b03841691633fb8e36a91611e3d91859081906004016127b3565b600060405180830381600087803b158015611e5757600080fd5b505af1158015611e6b573d6000803e3d6000fd5b5093979650505050505050565b6040516001600160a01b03808516602483015283166044820152606481018290526107b19085906323b872dd60e01b906084015b60408051601f198184030181529190526020810180516001600160e01b03166001600160e01b031990931692909217909152612122565b603380546001600160a01b038381166001600160a01b0319831681179093556040519116919082907f8be0079c531659141344cd1fd0a4f28419497f9722a3daafe3b4186f6b6457e090600090a35050565b600061160d838330604051733d602d80600a3d3981f3363d3d373d3d3d363d7360601b8152606093841b60148201526f5af43d82803e903d91602b57fd5bf3ff60801b6028820152921b6038830152604c8201526037808220606c830152605591012090565b60008054610100900460ff1615611fe2578160ff166001148015611fbe5750303b155b611fda5760405162461bcd60e51b815260040161067d906127f3565b506000919050565b60005460ff8084169116106120095760405162461bcd60e51b815260040161067d906127f3565b506000805460ff191660ff92909216919091179055600190565b600054610100900460ff1661204a5760405162461bcd60e51b815260040161067d90612841565b610c906121f4565b6040516001600160a01b038316602482015260448101829052610ab190849063a9059cbb60e01b90606401611eac565b6000604051733d602d80600a3d3981f3363d3d373d3d3d363d7360601b81528360601b60148201526e5af43d82803e903d91602b57fd5bf360881b6028820152826037826000f59150506001600160a01b0381166108885760405162461bcd60e51b815260206004820152601760248201527f455243313136373a2063726561746532206661696c6564000000000000000000604482015260640161067d565b6000612177826040518060400160405280602081526020017f5361666545524332303a206c6f772d6c6576656c2063616c6c206661696c6564815250856001600160a01b03166122249092919063ffffffff16565b805190915015610ab157808060200190518101906121959190612661565b610ab15760405162461bcd60e51b815260206004820152602a60248201527f5361666545524332303a204552433230206f7065726174696f6e20646964206e6044820152691bdd081cdd58d8d9595960b21b606482015260840161067d565b600054610100900460ff1661221b5760405162461bcd60e51b815260040161067d90612841565b610c9033611ee3565b606061117e8484600085856001600160a01b0385163b6122865760405162461bcd60e51b815260206004820152601d60248201527f416464726573733a2063616c6c20746f206e6f6e2d636f6e7472616374000000604482015260640161067d565b600080866001600160a01b031685876040516122a2919061288c565b60006040518083038185875af1925050503d80600081146122df576040519150601f19603f3d011682016040523d82523d6000602084013e6122e4565b606091505b50915091506122f48282866122ff565b979650505050505050565b6060831561230e57508161160d565b82511561231e5782518084602001fd5b8160405162461bcd60e51b815260040161067d91906128a8565b611c21806128bc83390190565b6001600160a01b0381168114610d4457600080fd5b60006020828403121561236c57600080fd5b813561160d81612345565b60006020828403121561238957600080fd5b5035919050565b6000806000606084860312156123a557600080fd5b833592506020840135915060408401356123be81612345565b809150509250925092565b8015158114610d4457600080fd5b600080604083850312156123ea57600080fd5b82356123f581612345565b91506020830135612405816123c9565b809150509250929050565b6000806040838503121561242357600080fd5b823561242e81612345565b9150602083013561240581612345565b6000806040838503121561245157600080fd5b82359150602083013561240581612345565b6000806000806080858703121561247957600080fd5b84359350602085013561248b81612345565b93969395505050506040820135916060013590565b600080602083850312156124b357600080fd5b823567ffffffffffffffff808211156124cb57600080fd5b818501915085601f8301126124df57600080fd5b8135818111156124ee57600080fd5b8660208260051b850101111561250357600080fd5b60209290920196919550909350505050565b634e487b7160e01b600052604160045260246000fd5b60006040828403121561253d57600080fd5b6040516040810181811067ffffffffffffffff8211171561256057612560612515565b604052823561256e81612345565b8152602083013561257e81612345565b60208201529392505050565b600080600080608085870312156125a057600080fd5b843593506020850135925060408501356125b981612345565b915060608501356125c981612345565b939692955090935050565b600080604083850312156125e757600080fd5b50508035926020909101359150565b6020808252818101527f4f776e61626c653a2063616c6c6572206973206e6f7420746865206f776e6572604082015260600190565b60006020828403121561263d57600080fd5b5051919050565b60006020828403121561265657600080fd5b815161160d81612345565b60006020828403121561267357600080fd5b815161160d816123c9565b634e487b7160e01b600052603260045260246000fd5b6000828210156126b457634e487b7160e01b600052601160045260246000fd5b500390565b60005b838110156126d45781810151838201526020016126bc565b838111156107b15750506000910152565b6000602082840312156126f757600080fd5b815167ffffffffffffffff8082111561270f57600080fd5b818401915084601f83011261272357600080fd5b81518181111561273557612735612515565b604051601f8201601f19908116603f0116810190838211818310171561275d5761275d612515565b8160405282815287602084870101111561277657600080fd5b6122f48360208301602088016126b9565b6000815180845261279f8160208601602086016126b9565b601f01601f19169290920160200192915050565b6001600160a01b03841681526060602082018190526000906127d790830185612787565b82810360408401526127e98185612787565b9695505050505050565b6020808252602e908201527f496e697469616c697a61626c653a20636f6e747261637420697320616c72656160408201526d191e481a5b9a5d1a585b1a5e995960921b606082015260800190565b6020808252602b908201527f496e697469616c697a61626c653a20636f6e7472616374206973206e6f74206960408201526a6e697469616c697a696e6760a81b606082015260800190565b6000825161289e8184602087016126b9565b9190910192915050565b60208152600061160d602083018461278756fe608060405234801561001057600080fd5b50611c01806100206000396000f3fe608060405234801561001057600080fd5b50600436106101735760003560e01c8063715018a6116100de578063a9059cbb11610097578063c19ea05311610071578063c19ea05314610347578063d4b8399214610370578063dd62ed3e14610383578063f2fde38b146103bc57600080fd5b8063a9059cbb146102f8578063ad76d6861461030b578063b86e321c1461033457600080fd5b8063715018a61461028a57806379cc6790146102925780638da5cb5b146102a557806391b89fba146102ca57806395d89b41146102dd578063a457c2d7146102e557600080fd5b8063313ce56711610130578063313ce5671461020657806339509351146102155780633fb8e36a1461022857806340c10f191461023b57806359974e381461024e57806370a082311461026157600080fd5b806305b3ccb41461017857806306fdde031461019e578063095ea7b3146101b357806318160ddd146101d657806323b872dd146101de57806328bcc25e146101f1575b600080fd5b61018b6101863660046116f6565b6103cf565b6040519081526020015b60405180910390f35b6101a6610432565b604051610195919061173f565b6101c66101c1366004611772565b6104c4565b6040519015158152602001610195565b60675461018b565b6101c66101ec36600461179e565b6104dc565b6102046101ff3660046117df565b61050f565b005b60405160128152602001610195565b6101c6610223366004611772565b6105bc565b6102046102363660046118b7565b6105f6565b610204610249366004611772565b610692565b61020461025c36600461192d565b6106ca565b61018b61026f3660046116f6565b6001600160a01b031660009081526065602052604090205490565b61020461079b565b6102046102a0366004611772565b6107d1565b6033546001600160a01b03165b6040516001600160a01b039091168152602001610195565b61018b6102d83660046116f6565b610805565b6101a6610810565b6101c66102f3366004611772565b61081f565b6101c6610306366004611772565b6108bc565b61018b6103193660046116f6565b6001600160a01b03166000908152609a602052604090205490565b6102046103423660046116f6565b6108d2565b61018b6103553660046116f6565b6001600160a01b03166000908152609b602052604090205490565b6097546102b2906001600160a01b031681565b61018b610391366004611946565b6001600160a01b03918216600090815260666020908152604080832093909416825291909152205490565b6102046103ca3660046116f6565b6109a6565b6001600160a01b0381166000908152609960209081526040808320546065909252822054600160801b91610422916104139060985461040e9190611995565b610a41565b61041d91906119b4565b610aaf565b61042c91906119f5565b92915050565b60606068805461044190611a17565b80601f016020809104026020016040519081016040528092919081815260200182805461046d90611a17565b80156104ba5780601f1061048f576101008083540402835291602001916104ba565b820191906000526020600020905b81548152906001019060200180831161049d57829003601f168201915b5050505050905090565b6000336104d2818585610b01565b5060019392505050565b60006104e9848484610c25565b6104d28433846104f98833610391565b6105039190611a51565b610b01565b9392505050565b6033546001600160a01b031633146105425760405162461bcd60e51b815260040161053990611a68565b60405180910390fd5b600061054e8242611a9d565b6001600160a01b0385166000818152609b60209081526040918290208490558151928352820186905281018290529091507fe1d6ea7b60537f263509ee48f8e298cc60801e7bddbec613b343272d897dc5e79060600160405180910390a16105b68484610cf4565b50505050565b3360008181526066602090815260408083206001600160a01b03871684529091528120549091906104d29082908690610503908790611a9d565b60006106026001610d52565b9050801561061a576000805461ff0019166101001790555b610622610dda565b61062c8383610e09565b609780546001600160a01b0319166001600160a01b03861617905580156105b6576000805461ff0019169055604051600181527f7f26b83ff96e1f2b6a682f133852f6798a09c465da95921460cefb38474024989060200160405180910390a150505050565b6033546001600160a01b031633146106bc5760405162461bcd60e51b815260040161053990611a68565b6106c68282610cf4565b5050565b6033546001600160a01b031633146106f45760405162461bcd60e51b815260040161053990611a68565b6067546000036107175760405163c16f3a9360e01b815260040160405180910390fd5b8060000361073857604051631f2a200560e01b815260040160405180910390fd5b606754610749600160801b83611995565b61075391906119f5565b6098546107609190611a9d565b60985560405181815233907fdf29796aad820e4bb192f3a8d631b76519bcd2cbe77cc85af20e9df53cece0869060200160405180910390a250565b6033546001600160a01b031633146107c55760405162461bcd60e51b815260040161053990611a68565b6107cf6000610e3a565b565b6033546001600160a01b031633146107fb5760405162461bcd60e51b815260040161053990611a68565b6106c68282610e8c565b600061042c82610f02565b60606069805461044190611a17565b3360008181526066602090815260408083206001600160a01b0387168452909152812054909190838110156108a45760405162461bcd60e51b815260206004820152602560248201527f45524332303a2064656372656173656420616c6c6f77616e63652062656c6f77604482015264207a65726f60d81b6064820152608401610539565b6108b18286868403610b01565b506001949350505050565b60006108c9338484610c25565b50600192915050565b6033546001600160a01b031633146108fc5760405162461bcd60e51b815260040161053990611a68565b600061090782610f02565b905080156106c6576001600160a01b0382166000908152609a6020526040902054610933908290611a9d565b6001600160a01b038084166000908152609a602052604090209190915560975461095f91168383610f2e565b816001600160a01b03167f1d3eee4ca001cff39eec6ec7615aacf2f2bd61791273830728ba00ccbd6e13378260405161099a91815260200190565b60405180910390a25050565b6033546001600160a01b031633146109d05760405162461bcd60e51b815260040161053990611a68565b6001600160a01b038116610a355760405162461bcd60e51b815260206004820152602660248201527f4f776e61626c653a206e6577206f776e657220697320746865207a65726f206160448201526564647265737360d01b6064820152608401610539565b610a3e81610e3a565b50565b60006001600160ff1b03821115610aab5760405162461bcd60e51b815260206004820152602860248201527f53616665436173743a2076616c756520646f65736e27742066697420696e2061604482015267371034b73a191a9b60c11b6064820152608401610539565b5090565b600080821215610aab5760405162461bcd60e51b815260206004820181905260248201527f53616665436173743a2076616c7565206d75737420626520706f7369746976656044820152606401610539565b6001600160a01b038316610b635760405162461bcd60e51b8152602060048201526024808201527f45524332303a20617070726f76652066726f6d20746865207a65726f206164646044820152637265737360e01b6064820152608401610539565b6001600160a01b038216610bc45760405162461bcd60e51b815260206004820152602260248201527f45524332303a20617070726f766520746f20746865207a65726f206164647265604482015261737360f01b6064820152608401610539565b6001600160a01b0383811660008181526066602090815260408083209487168084529482529182902085905590518481527f8c5be1e5ebec7d5bd14f71427d1e84f3dd0314c0f7b2291e5b200ac8c7c3b925910160405180910390a3505050565b6001600160a01b0383166000908152609b60205260409020544211610c5d5760405163249bb0b560e21b815260040160405180910390fd5b610c68838383610f85565b6000610c7b8260985461040e9190611995565b6001600160a01b038516600090815260996020526040902054909150610ca29082906119b4565b6001600160a01b038086166000908152609960205260408082209390935590851681522054610cd2908290611ab5565b6001600160a01b03909316600090815260996020526040902092909255505050565b610cfe8282611153565b610d0f8160985461040e9190611995565b6001600160a01b038316600090815260996020526040902054610d329190611ab5565b6001600160a01b0390921660009081526099602052604090209190915550565b60008054610100900460ff1615610d99578160ff166001148015610d755750303b155b610d915760405162461bcd60e51b815260040161053990611af4565b506000919050565b60005460ff808416911610610dc05760405162461bcd60e51b815260040161053990611af4565b506000805460ff191660ff92909216919091179055600190565b600054610100900460ff16610e015760405162461bcd60e51b815260040161053990611b42565b6107cf611232565b600054610100900460ff16610e305760405162461bcd60e51b815260040161053990611b42565b6106c68282611262565b603380546001600160a01b038381166001600160a01b0319831681179093556040519116919082907f8be0079c531659141344cd1fd0a4f28419497f9722a3daafe3b4186f6b6457e090600090a35050565b6001600160a01b0382166000908152609b60205260409020544211610ec45760405163249bb0b560e21b815260040160405180910390fd5b610ece82826112b0565b610edf8160985461040e9190611995565b6001600160a01b038316600090815260996020526040902054610d3291906119b4565b6001600160a01b0381166000908152609a6020526040812054610f24836103cf565b61042c9190611a51565b604080516001600160a01b038416602482015260448082018490528251808303909101815260649091019091526020810180516001600160e01b031663a9059cbb60e01b179052610f809084906113fe565b505050565b6001600160a01b038316610fe95760405162461bcd60e51b815260206004820152602560248201527f45524332303a207472616e736665722066726f6d20746865207a65726f206164604482015264647265737360d81b6064820152608401610539565b6001600160a01b03821661104b5760405162461bcd60e51b815260206004820152602360248201527f45524332303a207472616e7366657220746f20746865207a65726f206164647260448201526265737360e81b6064820152608401610539565b6001600160a01b038316600090815260656020526040902054818110156110c35760405162461bcd60e51b815260206004820152602660248201527f45524332303a207472616e7366657220616d6f756e7420657863656564732062604482015265616c616e636560d01b6064820152608401610539565b6001600160a01b038085166000908152606560205260408082208585039055918516815290812080548492906110fa908490611a9d565b92505081905550826001600160a01b0316846001600160a01b03167fddf252ad1be2c89b69c2b068fc378daa952ba7f163c4a11628f55a4df523b3ef8460405161114691815260200190565b60405180910390a36105b6565b6001600160a01b0382166111a95760405162461bcd60e51b815260206004820152601f60248201527f45524332303a206d696e7420746f20746865207a65726f2061646472657373006044820152606401610539565b80606760008282546111bb9190611a9d565b90915550506001600160a01b038216600090815260656020526040812080548392906111e8908490611a9d565b90915550506040518181526001600160a01b038316906000907fddf252ad1be2c89b69c2b068fc378daa952ba7f163c4a11628f55a4df523b3ef9060200160405180910390a35050565b600054610100900460ff166112595760405162461bcd60e51b815260040161053990611b42565b6107cf33610e3a565b600054610100900460ff166112895760405162461bcd60e51b815260040161053990611b42565b815161129c906068906020850190611651565b508051610f80906069906020840190611651565b6001600160a01b0382166113105760405162461bcd60e51b815260206004820152602160248201527f45524332303a206275726e2066726f6d20746865207a65726f206164647265736044820152607360f81b6064820152608401610539565b6001600160a01b038216600090815260656020526040902054818110156113845760405162461bcd60e51b815260206004820152602260248201527f45524332303a206275726e20616d6f756e7420657863656564732062616c616e604482015261636560f01b6064820152608401610539565b6001600160a01b03831660009081526065602052604081208383039055606780548492906113b3908490611a51565b90915550506040518281526000906001600160a01b038516907fddf252ad1be2c89b69c2b068fc378daa952ba7f163c4a11628f55a4df523b3ef9060200160405180910390a3505050565b6000611453826040518060400160405280602081526020017f5361666545524332303a206c6f772d6c6576656c2063616c6c206661696c6564815250856001600160a01b03166114d09092919063ffffffff16565b805190915015610f8057808060200190518101906114719190611b8d565b610f805760405162461bcd60e51b815260206004820152602a60248201527f5361666545524332303a204552433230206f7065726174696f6e20646964206e6044820152691bdd081cdd58d8d9595960b21b6064820152608401610539565b60606114df84846000856114e7565b949350505050565b6060824710156115485760405162461bcd60e51b815260206004820152602660248201527f416464726573733a20696e73756666696369656e742062616c616e636520666f6044820152651c8818d85b1b60d21b6064820152608401610539565b6001600160a01b0385163b61159f5760405162461bcd60e51b815260206004820152601d60248201527f416464726573733a2063616c6c20746f206e6f6e2d636f6e74726163740000006044820152606401610539565b600080866001600160a01b031685876040516115bb9190611baf565b60006040518083038185875af1925050503d80600081146115f8576040519150601f19603f3d011682016040523d82523d6000602084013e6115fd565b606091505b509150915061160d828286611618565b979650505050505050565b60608315611627575081610508565b8251156116375782518084602001fd5b8160405162461bcd60e51b8152600401610539919061173f565b82805461165d90611a17565b90600052602060002090601f01602090048101928261167f57600085556116c5565b82601f1061169857805160ff19168380011785556116c5565b828001600101855582156116c5579182015b828111156116c55782518255916020019190600101906116aa565b50610aab9291505b80821115610aab57600081556001016116cd565b6001600160a01b0381168114610a3e57600080fd5b60006020828403121561170857600080fd5b8135610508816116e1565b60005b8381101561172e578181015183820152602001611716565b838111156105b65750506000910152565b602081526000825180602084015261175e816040850160208701611713565b601f01601f19169190910160400192915050565b6000806040838503121561178557600080fd5b8235611790816116e1565b946020939093013593505050565b6000806000606084860312156117b357600080fd5b83356117be816116e1565b925060208401356117ce816116e1565b929592945050506040919091013590565b6000806000606084860312156117f457600080fd5b83356117ff816116e1565b95602085013595506040909401359392505050565b634e487b7160e01b600052604160045260246000fd5b600082601f83011261183b57600080fd5b813567ffffffffffffffff8082111561185657611856611814565b604051601f8301601f19908116603f0116810190828211818310171561187e5761187e611814565b8160405283815286602085880101111561189757600080fd5b836020870160208301376000602085830101528094505050505092915050565b6000806000606084860312156118cc57600080fd5b83356118d7816116e1565b9250602084013567ffffffffffffffff808211156118f457600080fd5b6119008783880161182a565b9350604086013591508082111561191657600080fd5b506119238682870161182a565b9150509250925092565b60006020828403121561193f57600080fd5b5035919050565b6000806040838503121561195957600080fd5b8235611964816116e1565b91506020830135611974816116e1565b809150509250929050565b634e487b7160e01b600052601160045260246000fd5b60008160001904831182151516156119af576119af61197f565b500290565b600080821280156001600160ff1b03849003851316156119d6576119d661197f565b600160ff1b83900384128116156119ef576119ef61197f565b50500190565b600082611a1257634e487b7160e01b600052601260045260246000fd5b500490565b600181811c90821680611a2b57607f821691505b602082108103611a4b57634e487b7160e01b600052602260045260246000fd5b50919050565b600082821015611a6357611a6361197f565b500390565b6020808252818101527f4f776e61626c653a2063616c6c6572206973206e6f7420746865206f776e6572604082015260600190565b60008219821115611ab057611ab061197f565b500190565b60008083128015600160ff1b850184121615611ad357611ad361197f565b6001600160ff1b0384018313811615611aee57611aee61197f565b50500390565b6020808252602e908201527f496e697469616c697a61626c653a20636f6e747261637420697320616c72656160408201526d191e481a5b9a5d1a585b1a5e995960921b606082015260800190565b6020808252602b908201527f496e697469616c697a61626c653a20636f6e7472616374206973206e6f74206960408201526a6e697469616c697a696e6760a81b606082015260800190565b600060208284031215611b9f57600080fd5b8151801515811461050857600080fd5b60008251611bc1818460208701611713565b919091019291505056fea2646970667358221220eb86b6ea5d57ce2281b560dd07e2f06667f1e1f3bc89d23c51a01e29a284991264736f6c634300080d0033a2646970667358221220aea7ee0efe9fe4abd816e080ac25a99a6066bcf1412d87cd2fe9c2ce902eadd364736f6c634300080d0033",
  "devdoc": {
    "kind": "dev",
    "methods": {
      "owner()": {
        "details": "Returns the address of the current owner."
      },
      "renounceOwnership()": {
        "details": "Leaves the contract without owner. It will not be possible to call `onlyOwner` functions anymore. Can only be called by the current owner. NOTE: Renouncing ownership will leave the contract without an owner, thereby removing any functionality that is only available to the owner."
      },
      "transferOwnership(address)": {
        "details": "Transfers ownership of the contract to a new account (`newOwner`). Can only be called by the current owner."
      }
    },
    "version": 1
  },
  "userdoc": {
    "kind": "user",
    "methods": {},
    "version": 1
  },
  "storageLayout": {
    "storage": [
      {
        "astId": 274,
        "contract": "src/contracts/LPStaking.sol:LPStaking",
        "label": "_initialized",
        "offset": 0,
        "slot": "0",
        "type": "t_uint8"
      },
      {
        "astId": 277,
        "contract": "src/contracts/LPStaking.sol:LPStaking",
        "label": "_initializing",
        "offset": 1,
        "slot": "0",
        "type": "t_bool"
      },
      {
        "astId": 2270,
        "contract": "src/contracts/LPStaking.sol:LPStaking",
        "label": "__gap",
        "offset": 0,
        "slot": "1",
        "type": "t_array(t_uint256)50_storage"
      },
      {
        "astId": 10,
        "contract": "src/contracts/LPStaking.sol:LPStaking",
        "label": "_owner",
        "offset": 0,
        "slot": "51",
        "type": "t_address"
      },
      {
        "astId": 122,
        "contract": "src/contracts/LPStaking.sol:LPStaking",
        "label": "__gap",
        "offset": 0,
        "slot": "52",
        "type": "t_array(t_uint256)49_storage"
      },
      {
        "astId": 21677,
        "contract": "src/contracts/LPStaking.sol:LPStaking",
        "label": "isGuardian",
        "offset": 0,
        "slot": "101",
        "type": "t_mapping(t_address,t_bool)"
      },
      {
        "astId": 21681,
        "contract": "src/contracts/LPStaking.sol:LPStaking",
        "label": "isPaused",
        "offset": 0,
        "slot": "102",
        "type": "t_mapping(t_uint256,t_bool)"
      },
      {
        "astId": 12175,
        "contract": "src/contracts/LPStaking.sol:LPStaking",
        "label": "vaultStakingInfo",
        "offset": 0,
        "slot": "103",
        "type": "t_mapping(t_uint256,t_struct(StakingPool)16272_storage)"
      },
      {
        "astId": 12179,
        "contract": "src/contracts/LPStaking.sol:LPStaking",
        "label": "stakingTokenProvider",
        "offset": 0,
        "slot": "104",
        "type": "t_contract(IStakingTokenProvider)16799"
      },
      {
        "astId": 12183,
        "contract": "src/contracts/LPStaking.sol:LPStaking",
        "label": "lpStakingXToken",
        "offset": 0,
        "slot": "105",
        "type": "t_contract(LPStakingXTokenUpgradeable)21647"
      },
      {
        "astId": 12187,
        "contract": "src/contracts/LPStaking.sol:LPStaking",
        "label": "vaultManager",
        "offset": 0,
        "slot": "106",
        "type": "t_contract(IVaultManager)17110"
      }
    ],
    "types": {
      "t_address": {
        "encoding": "inplace",
        "label": "address",
        "numberOfBytes": "20"
      },
      "t_array(t_uint256)49_storage": {
        "base": "t_uint256",
        "encoding": "inplace",
        "label": "uint256[49]",
        "numberOfBytes": "1568"
      },
      "t_array(t_uint256)50_storage": {
        "base": "t_uint256",
        "encoding": "inplace",
        "label": "uint256[50]",
        "numberOfBytes": "1600"
      },
      "t_bool": {
        "encoding": "inplace",
        "label": "bool",
        "numberOfBytes": "1"
      },
      "t_contract(IStakingTokenProvider)16799": {
        "encoding": "inplace",
        "label": "contract IStakingTokenProvider",
        "numberOfBytes": "20"
      },
      "t_contract(IVaultManager)17110": {
        "encoding": "inplace",
        "label": "contract IVaultManager",
        "numberOfBytes": "20"
      },
      "t_contract(LPStakingXTokenUpgradeable)21647": {
        "encoding": "inplace",
        "label": "contract LPStakingXTokenUpgradeable",
        "numberOfBytes": "20"
      },
      "t_mapping(t_address,t_bool)": {
        "encoding": "mapping",
        "key": "t_address",
        "label": "mapping(address => bool)",
        "numberOfBytes": "32",
        "value": "t_bool"
      },
      "t_mapping(t_uint256,t_bool)": {
        "encoding": "mapping",
        "key": "t_uint256",
        "label": "mapping(uint256 => bool)",
        "numberOfBytes": "32",
        "value": "t_bool"
      },
      "t_mapping(t_uint256,t_struct(StakingPool)16272_storage)": {
        "encoding": "mapping",
        "key": "t_uint256",
        "label": "mapping(uint256 => struct ILPStaking.StakingPool)",
        "numberOfBytes": "32",
        "value": "t_struct(StakingPool)16272_storage"
      },
      "t_struct(StakingPool)16272_storage": {
        "encoding": "inplace",
        "label": "struct ILPStaking.StakingPool",
        "members": [
          {
            "astId": 16269,
            "contract": "src/contracts/LPStaking.sol:LPStaking",
            "label": "stakingToken",
            "offset": 0,
            "slot": "0",
            "type": "t_address"
          },
          {
            "astId": 16271,
            "contract": "src/contracts/LPStaking.sol:LPStaking",
            "label": "baseToken",
            "offset": 0,
            "slot": "1",
            "type": "t_address"
          }
        ],
        "numberOfBytes": "64"
      },
      "t_uint256": {
        "encoding": "inplace",
        "label": "uint256",
        "numberOfBytes": "32"
      },
      "t_uint8": {
        "encoding": "inplace",
        "label": "uint8",
        "numberOfBytes": "1"
      }
    }
  }
}