{
  "address": "0x5809d81E8cFA568F6a48F1F9C7dA2c808664D8bA",
  "abi": [
    {
      "inputs": [],
      "name": "IdenticalAddress",
      "type": "error"
    },
    {
      "inputs": [],
      "name": "ZeroAddress",
      "type": "error"
    },
    {
      "anonymous": false,
      "inputs": [
        {
          "indexed": false,
          "internalType": "address",
          "name": "oldDefaultPairedToken",
          "type": "address"
        },
        {
          "indexed": false,
          "internalType": "address",
          "name": "newDefaultPairedToken",
          "type": "address"
        }
      ],
      "name": "DefaultPairedTokenUpdated",
      "type": "event"
    },
    {
      "anonymous": false,
      "inputs": [
        {
          "indexed": false,
          "internalType": "uint8",
          "name": "version",
          "type": "uint8"
        }
      ],
      "name": "Initialized",
      "type": "event"
    },
    {
      "anonymous": false,
      "inputs": [
        {
          "indexed": true,
          "internalType": "address",
          "name": "previousOwner",
          "type": "address"
        },
        {
          "indexed": true,
          "internalType": "address",
          "name": "newOwner",
          "type": "address"
        }
      ],
      "name": "OwnershipTransferred",
      "type": "event"
    },
    {
      "anonymous": false,
      "inputs": [
        {
          "indexed": false,
          "internalType": "address",
          "name": "vaultToken",
          "type": "address"
        },
        {
          "indexed": false,
          "internalType": "address",
          "name": "oldPairedtoken",
          "type": "address"
        },
        {
          "indexed": false,
          "internalType": "address",
          "name": "newPairedToken",
          "type": "address"
        }
      ],
      "name": "PairedTokenForVaultUpdated",
      "type": "event"
    },
    {
      "inputs": [
        {
          "internalType": "address",
          "name": "_uniLikeExchange",
          "type": "address"
        },
        {
          "internalType": "address",
          "name": "_defaultPairedtoken",
          "type": "address"
        },
        {
          "internalType": "string",
          "name": "_defaultPrefix",
          "type": "string"
        }
      ],
      "name": "__StakingTokenProvider_init",
      "outputs": [],
      "stateMutability": "nonpayable",
      "type": "function"
    },
    {
      "inputs": [],
      "name": "defaultPairedToken",
      "outputs": [
        {
          "internalType": "address",
          "name": "",
          "type": "address"
        }
      ],
      "stateMutability": "view",
      "type": "function"
    },
    {
      "inputs": [],
      "name": "defaultPrefix",
      "outputs": [
        {
          "internalType": "string",
          "name": "",
          "type": "string"
        }
      ],
      "stateMutability": "view",
      "type": "function"
    },
    {
      "inputs": [
        {
          "internalType": "address",
          "name": "_vaultToken",
          "type": "address"
        }
      ],
      "name": "nameForStakingToken",
      "outputs": [
        {
          "internalType": "string",
          "name": "",
          "type": "string"
        }
      ],
      "stateMutability": "view",
      "type": "function"
    },
    {
      "inputs": [],
      "name": "owner",
      "outputs": [
        {
          "internalType": "address",
          "name": "",
          "type": "address"
        }
      ],
      "stateMutability": "view",
      "type": "function"
    },
    {
      "inputs": [
        {
          "internalType": "address",
          "name": "_vaultToken",
          "type": "address"
        },
        {
          "internalType": "address",
          "name": "_pairedToken",
          "type": "address"
        }
      ],
      "name": "pairForVaultToken",
      "outputs": [
        {
          "internalType": "address",
          "name": "",
          "type": "address"
        }
      ],
      "stateMutability": "view",
      "type": "function"
    },
    {
      "inputs": [
        {
          "internalType": "address",
          "name": "",
          "type": "address"
        }
      ],
      "name": "pairedPrefix",
      "outputs": [
        {
          "internalType": "string",
          "name": "",
          "type": "string"
        }
      ],
      "stateMutability": "view",
      "type": "function"
    },
    {
      "inputs": [
        {
          "internalType": "address",
          "name": "",
          "type": "address"
        }
      ],
      "name": "pairedToken",
      "outputs": [
        {
          "internalType": "address",
          "name": "",
          "type": "address"
        }
      ],
      "stateMutability": "view",
      "type": "function"
    },
    {
      "inputs": [],
      "name": "renounceOwnership",
      "outputs": [],
      "stateMutability": "nonpayable",
      "type": "function"
    },
    {
      "inputs": [
        {
          "internalType": "address",
          "name": "_defaultPairedToken",
          "type": "address"
        },
        {
          "internalType": "string",
          "name": "_defaultPrefix",
          "type": "string"
        }
      ],
      "name": "setDefaultPairedToken",
      "outputs": [],
      "stateMutability": "nonpayable",
      "type": "function"
    },
    {
      "inputs": [
        {
          "internalType": "address",
          "name": "_vaultToken",
          "type": "address"
        },
        {
          "internalType": "address",
          "name": "_newPairedToken",
          "type": "address"
        },
        {
          "internalType": "string",
          "name": "_newPrefix",
          "type": "string"
        }
      ],
      "name": "setPairedTokenForVaultToken",
      "outputs": [],
      "stateMutability": "nonpayable",
      "type": "function"
    },
    {
      "inputs": [
        {
          "internalType": "address",
          "name": "_vaultToken",
          "type": "address"
        }
      ],
      "name": "stakingTokenForVaultToken",
      "outputs": [
        {
          "internalType": "address",
          "name": "",
          "type": "address"
        }
      ],
      "stateMutability": "view",
      "type": "function"
    },
    {
      "inputs": [
        {
          "internalType": "address",
          "name": "newOwner",
          "type": "address"
        }
      ],
      "name": "transferOwnership",
      "outputs": [],
      "stateMutability": "nonpayable",
      "type": "function"
    },
    {
      "inputs": [],
      "name": "uniLikeExchange",
      "outputs": [
        {
          "internalType": "address",
          "name": "",
          "type": "address"
        }
      ],
      "stateMutability": "view",
      "type": "function"
    }
  ],
  "transactionHash": "0x22d53a12be8d5980367d918fd477a42afa169ee44449d43ce1dc7e3870ff0a45",
  "args": [],
  "numDeployments": 1,
  "solcInputHash": "bf0ff9e6b7fc2e915dfac7a0da096a36",
  "bytecode": "0x608060405234801561001057600080fd5b5061118a806100206000396000f3fe608060405234801561001057600080fd5b50600436106100ea5760003560e01c8063814073071161008c5780638da5cb5b116100665780638da5cb5b146101e457806396c59671146101f5578063be9773c614610208578063f2fde38b1461021057600080fd5b806381407307146101ab57806387c13f4d146101be5780638a2a1e2f146101d157600080fd5b80634d985ea0116100c85780634d985ea01461015d5780635b9490f314610170578063715018a614610183578063718806f51461018b57600080fd5b806307f0317c146100ef57806308bd3ce01461011f5780634c9ae92f14610134575b600080fd5b606854610102906001600160a01b031681565b6040516001600160a01b0390911681526020015b60405180910390f35b61013261012d366004610d21565b610223565b005b610102610142366004610d82565b6066602052600090815260409020546001600160a01b031681565b61013261016b366004610d9d565b610322565b61010261017e366004610df0565b6103c0565b6101326103e1565b61019e610199366004610d82565b610417565b6040516101169190610e4f565b606754610102906001600160a01b031681565b6101026101cc366004610d82565b6104b1565b6101326101df366004610ef1565b6104f8565b6033546001600160a01b0316610102565b61019e610203366004610d82565b610601565b61019e610871565b61013261021e366004610d82565b61087e565b6033546001600160a01b031633146102565760405162461bcd60e51b815260040161024d90610f92565b60405180910390fd5b6001600160a01b03831661027d5760405163d92e233d60e01b815260040160405180910390fd5b6001600160a01b038481166000818152606660209081526040918290205482519384528416908301529185168183015290517f72a8c169d222f5ea656ac551c4639b3aa16b617c52afe2dc4a84120405c06f189181900360600190a16001600160a01b03848116600090815260666020908152604080832080546001600160a01b03191694881694909417909355606590522061031b908383610bbb565b5050505050565b6033546001600160a01b0316331461034c5760405162461bcd60e51b815260040161024d90610f92565b606754604080516001600160a01b03928316815291851660208301527f9a74dff70e93a31e61137cd2a31a7b934b4ec164a4d12b9eb8ec58a932120c79910160405180910390a1606780546001600160a01b0319166001600160a01b0385161790556103ba60698383610bbb565b50505050565b6068546000906103da906001600160a01b03168484610919565b9392505050565b6033546001600160a01b0316331461040b5760405162461bcd60e51b815260040161024d90610f92565b61041560006109f2565b565b6065602052600090815260409020805461043090610fc7565b80601f016020809104026020016040519081016040528092919081815260200182805461045c90610fc7565b80156104a95780601f1061047e576101008083540402835291602001916104a9565b820191906000526020600020905b81548152906001019060200180831161048c57829003601f168201915b505050505081565b6001600160a01b03808216600090815260666020526040812054909116806104e157506067546001600160a01b03165b6068546103da906001600160a01b03168483610919565b60006105046001610a44565b9050801561051c576000805461ff0019166101001790555b610524610ad1565b6001600160a01b03841661054b5760405163d92e233d60e01b815260040160405180910390fd5b6001600160a01b0383166105725760405163d92e233d60e01b815260040160405180910390fd5b606880546001600160a01b038087166001600160a01b031992831617909255606780549286169290911691909117905581516105b5906069906020850190610c3f565b5080156103ba576000805461ff0019169055604051600181527f7f26b83ff96e1f2b6a682f133852f6798a09c465da95921460cefb38474024989060200160405180910390a150505050565b6001600160a01b03811660009081526065602052604081208054606092919061062990610fc7565b80601f016020809104026020016040519081016040528092919081815260200182805461065590610fc7565b80156106a25780601f10610677576101008083540402835291602001916106a2565b820191906000526020600020905b81548152906001019060200180831161068557829003601f168201915b50505050509050805160000361074057606980546106bf90610fc7565b80601f01602080910402602001604051908101604052809291908181526020018280546106eb90610fc7565b80156107385780601f1061070d57610100808354040283529160200191610738565b820191906000526020600020905b81548152906001019060200180831161071b57829003601f168201915b505050505090505b6001600160a01b03808416600090815260666020526040902054168061076e57506067546001600160a01b03165b6000846001600160a01b03166395d89b416040518163ffffffff1660e01b8152600401600060405180830381865afa1580156107ae573d6000803e3d6000fd5b505050506040513d6000823e601f3d908101601f191682016040526107d69190810190611001565b90506000826001600160a01b03166395d89b416040518163ffffffff1660e01b8152600401600060405180830381865afa158015610818573d6000803e3d6000fd5b505050506040513d6000823e601f3d908101601f191682016040526108409190810190611001565b905083828260405160200161085793929190611078565b604051602081830303815290604052945050505050919050565b6069805461043090610fc7565b6033546001600160a01b031633146108a85760405162461bcd60e51b815260040161024d90610f92565b6001600160a01b03811661090d5760405162461bcd60e51b815260206004820152602660248201527f4f776e61626c653a206e6577206f776e657220697320746865207a65726f206160448201526564647265737360d01b606482015260840161024d565b610916816109f2565b50565b60008060006109288585610b00565b6040516bffffffffffffffffffffffff19606084811b8216602084015283901b16603482015291935091508690604801604051602081830303815290604052805190602001206040516020016109d09291906001600160f81b0319815260609290921b6bffffffffffffffffffffffff1916600183015260158201527f754e1d90e536e4c1df81b7f030f47b4ca80c87120e145c294f098c83a6cb5ace603582015260550190565b60408051601f1981840301815291905280516020909101209695505050505050565b603380546001600160a01b038381166001600160a01b0319831681179093556040519116919082907f8be0079c531659141344cd1fd0a4f28419497f9722a3daafe3b4186f6b6457e090600090a35050565b60008054610100900460ff1615610a8b578160ff166001148015610a675750303b155b610a835760405162461bcd60e51b815260040161024d906110bb565b506000919050565b60005460ff808416911610610ab25760405162461bcd60e51b815260040161024d906110bb565b506000805460ff191660ff92909216919091179055600190565b919050565b600054610100900460ff16610af85760405162461bcd60e51b815260040161024d90611109565b610415610b8b565b600080826001600160a01b0316846001600160a01b031603610b355760405163065af08d60e01b815260040160405180910390fd5b826001600160a01b0316846001600160a01b031610610b55578284610b58565b83835b90925090506001600160a01b038216610b845760405163d92e233d60e01b815260040160405180910390fd5b9250929050565b600054610100900460ff16610bb25760405162461bcd60e51b815260040161024d90611109565b610415336109f2565b828054610bc790610fc7565b90600052602060002090601f016020900481019282610be95760008555610c2f565b82601f10610c025782800160ff19823516178555610c2f565b82800160010185558215610c2f579182015b82811115610c2f578235825591602001919060010190610c14565b50610c3b929150610cb3565b5090565b828054610c4b90610fc7565b90600052602060002090601f016020900481019282610c6d5760008555610c2f565b82601f10610c8657805160ff1916838001178555610c2f565b82800160010185558215610c2f579182015b82811115610c2f578251825591602001919060010190610c98565b5b80821115610c3b5760008155600101610cb4565b80356001600160a01b0381168114610acc57600080fd5b60008083601f840112610cf157600080fd5b50813567ffffffffffffffff811115610d0957600080fd5b602083019150836020828501011115610b8457600080fd5b60008060008060608587031215610d3757600080fd5b610d4085610cc8565b9350610d4e60208601610cc8565b9250604085013567ffffffffffffffff811115610d6a57600080fd5b610d7687828801610cdf565b95989497509550505050565b600060208284031215610d9457600080fd5b6103da82610cc8565b600080600060408486031215610db257600080fd5b610dbb84610cc8565b9250602084013567ffffffffffffffff811115610dd757600080fd5b610de386828701610cdf565b9497909650939450505050565b60008060408385031215610e0357600080fd5b610e0c83610cc8565b9150610e1a60208401610cc8565b90509250929050565b60005b83811015610e3e578181015183820152602001610e26565b838111156103ba5750506000910152565b6020815260008251806020840152610e6e816040850160208701610e23565b601f01601f19169190910160400192915050565b634e487b7160e01b600052604160045260246000fd5b604051601f8201601f1916810167ffffffffffffffff81118282101715610ec157610ec1610e82565b604052919050565b600067ffffffffffffffff821115610ee357610ee3610e82565b50601f01601f191660200190565b600080600060608486031215610f0657600080fd5b610f0f84610cc8565b9250610f1d60208501610cc8565b9150604084013567ffffffffffffffff811115610f3957600080fd5b8401601f81018613610f4a57600080fd5b8035610f5d610f5882610ec9565b610e98565b818152876020838501011115610f7257600080fd5b816020840160208301376000602083830101528093505050509250925092565b6020808252818101527f4f776e61626c653a2063616c6c6572206973206e6f7420746865206f776e6572604082015260600190565b600181811c90821680610fdb57607f821691505b602082108103610ffb57634e487b7160e01b600052602260045260246000fd5b50919050565b60006020828403121561101357600080fd5b815167ffffffffffffffff81111561102a57600080fd5b8201601f8101841361103b57600080fd5b8051611049610f5882610ec9565b81815285602083850101111561105e57600080fd5b61106f826020830160208601610e23565b95945050505050565b6000845161108a818460208901610e23565b84519083019061109e818360208901610e23565b84519101906110b1818360208801610e23565b0195945050505050565b6020808252602e908201527f496e697469616c697a61626c653a20636f6e747261637420697320616c72656160408201526d191e481a5b9a5d1a585b1a5e995960921b606082015260800190565b6020808252602b908201527f496e697469616c697a61626c653a20636f6e7472616374206973206e6f74206960408201526a6e697469616c697a696e6760a81b60608201526080019056fea2646970667358221220fb60d0c12fcfe43ecc1060116a7d7603949e3b48d969eb8073a879bd1b80735064736f6c634300080d0033",
  "devdoc": {
    "kind": "dev",
    "methods": {
      "owner()": {
        "details": "Returns the address of the current owner."
      },
      "renounceOwnership()": {
        "details": "Leaves the contract without owner. It will not be possible to call `onlyOwner` functions anymore. Can only be called by the current owner. NOTE: Renouncing ownership will leave the contract without an owner, thereby removing any functionality that is only available to the owner."
      },
      "transferOwnership(address)": {
        "details": "Transfers ownership of the contract to a new account (`newOwner`). Can only be called by the current owner."
      }
    },
    "version": 1
  },
  "userdoc": {
    "kind": "user",
    "methods": {},
    "version": 1
  },
  "storageLayout": {
    "storage": [
      {
        "astId": 274,
        "contract": "src/contracts/StakingTokenProvider.sol:StakingTokenProvider",
        "label": "_initialized",
        "offset": 0,
        "slot": "0",
        "type": "t_uint8"
      },
      {
        "astId": 277,
        "contract": "src/contracts/StakingTokenProvider.sol:StakingTokenProvider",
        "label": "_initializing",
        "offset": 1,
        "slot": "0",
        "type": "t_bool"
      },
      {
        "astId": 2270,
        "contract": "src/contracts/StakingTokenProvider.sol:StakingTokenProvider",
        "label": "__gap",
        "offset": 0,
        "slot": "1",
        "type": "t_array(t_uint256)50_storage"
      },
      {
        "astId": 10,
        "contract": "src/contracts/StakingTokenProvider.sol:StakingTokenProvider",
        "label": "_owner",
        "offset": 0,
        "slot": "51",
        "type": "t_address"
      },
      {
        "astId": 122,
        "contract": "src/contracts/StakingTokenProvider.sol:StakingTokenProvider",
        "label": "__gap",
        "offset": 0,
        "slot": "52",
        "type": "t_array(t_uint256)49_storage"
      },
      {
        "astId": 14189,
        "contract": "src/contracts/StakingTokenProvider.sol:StakingTokenProvider",
        "label": "pairedPrefix",
        "offset": 0,
        "slot": "101",
        "type": "t_mapping(t_address,t_string_storage)"
      },
      {
        "astId": 14194,
        "contract": "src/contracts/StakingTokenProvider.sol:StakingTokenProvider",
        "label": "pairedToken",
        "offset": 0,
        "slot": "102",
        "type": "t_mapping(t_address,t_address)"
      },
      {
        "astId": 14197,
        "contract": "src/contracts/StakingTokenProvider.sol:StakingTokenProvider",
        "label": "defaultPairedToken",
        "offset": 0,
        "slot": "103",
        "type": "t_address"
      },
      {
        "astId": 14200,
        "contract": "src/contracts/StakingTokenProvider.sol:StakingTokenProvider",
        "label": "uniLikeExchange",
        "offset": 0,
        "slot": "104",
        "type": "t_address"
      },
      {
        "astId": 14203,
        "contract": "src/contracts/StakingTokenProvider.sol:StakingTokenProvider",
        "label": "defaultPrefix",
        "offset": 0,
        "slot": "105",
        "type": "t_string_storage"
      }
    ],
    "types": {
      "t_address": {
        "encoding": "inplace",
        "label": "address",
        "numberOfBytes": "20"
      },
      "t_array(t_uint256)49_storage": {
        "base": "t_uint256",
        "encoding": "inplace",
        "label": "uint256[49]",
        "numberOfBytes": "1568"
      },
      "t_array(t_uint256)50_storage": {
        "base": "t_uint256",
        "encoding": "inplace",
        "label": "uint256[50]",
        "numberOfBytes": "1600"
      },
      "t_bool": {
        "encoding": "inplace",
        "label": "bool",
        "numberOfBytes": "1"
      },
      "t_mapping(t_address,t_address)": {
        "encoding": "mapping",
        "key": "t_address",
        "label": "mapping(address => address)",
        "numberOfBytes": "32",
        "value": "t_address"
      },
      "t_mapping(t_address,t_string_storage)": {
        "encoding": "mapping",
        "key": "t_address",
        "label": "mapping(address => string)",
        "numberOfBytes": "32",
        "value": "t_string_storage"
      },
      "t_string_storage": {
        "encoding": "bytes",
        "label": "string",
        "numberOfBytes": "32"
      },
      "t_uint256": {
        "encoding": "inplace",
        "label": "uint256",
        "numberOfBytes": "32"
      },
      "t_uint8": {
        "encoding": "inplace",
        "label": "uint8",
        "numberOfBytes": "1"
      }
    }
  }
}