{
  "address": "0x22b93D3CFd03C1259F991179cf30C523D54Da2bB",
  "abi": [
    {
      "inputs": [],
      "name": "FeeTooHigh",
      "type": "error"
    },
    {
      "inputs": [],
      "name": "MaxAuctionLengthOutOfBounds",
      "type": "error"
    },
    {
      "inputs": [],
      "name": "MaxReserveFactorTooLow",
      "type": "error"
    },
    {
      "inputs": [],
      "name": "MinAuctionLengthOutOfBounds",
      "type": "error"
    },
    {
      "inputs": [],
      "name": "MinBidIncreaseOutOfBounds",
      "type": "error"
    },
    {
      "inputs": [],
      "name": "MinReserveFactorTooHigh",
      "type": "error"
    },
    {
      "inputs": [],
      "name": "MinVotePercentageTooHigh",
      "type": "error"
    },
    {
      "inputs": [],
      "name": "MultiplierTooLow",
      "type": "error"
    },
    {
      "inputs": [],
      "name": "OnlyFactory",
      "type": "error"
    },
    {
      "inputs": [],
      "name": "ZeroAddress",
      "type": "error"
    },
    {
      "anonymous": false,
      "inputs": [
        {
          "indexed": false,
          "internalType": "address",
          "name": "oldFNFTCollectionFactory",
          "type": "address"
        },
        {
          "indexed": false,
          "internalType": "address",
          "name": "newFNFTCollectionFactory",
          "type": "address"
        }
      ],
      "name": "FNFTCollectionFactoryUpdated",
      "type": "event"
    },
    {
      "anonymous": false,
      "inputs": [
        {
          "indexed": false,
          "internalType": "address",
          "name": "oldFNFTSingleFactory",
          "type": "address"
        },
        {
          "indexed": false,
          "internalType": "address",
          "name": "newFNFTSingleFactory",
          "type": "address"
        }
      ],
      "name": "FNFTSingleFactoryUpdated",
      "type": "event"
    },
    {
      "anonymous": false,
      "inputs": [
        {
          "indexed": false,
          "internalType": "address",
          "name": "oldFeeDistributor",
          "type": "address"
        },
        {
          "indexed": false,
          "internalType": "address",
          "name": "newFeeDistributor",
          "type": "address"
        }
      ],
      "name": "FeeDistributorUpdated",
      "type": "event"
    },
    {
      "anonymous": false,
      "inputs": [
        {
          "indexed": false,
          "internalType": "address",
          "name": "target",
          "type": "address"
        },
        {
          "indexed": false,
          "internalType": "bool",
          "name": "excluded",
          "type": "bool"
        }
      ],
      "name": "FeeExclusionUpdated",
      "type": "event"
    },
    {
      "anonymous": false,
      "inputs": [
        {
          "indexed": false,
          "internalType": "address",
          "name": "oldFeeReceiver",
          "type": "address"
        },
        {
          "indexed": false,
          "internalType": "address",
          "name": "newFeeReceiver",
          "type": "address"
        }
      ],
      "name": "FeeReceiverUpdated",
      "type": "event"
    },
    {
      "anonymous": false,
      "inputs": [
        {
          "indexed": false,
          "internalType": "address",
          "name": "oldIFOFactory",
          "type": "address"
        },
        {
          "indexed": false,
          "internalType": "address",
          "name": "newIFOFactory",
          "type": "address"
        }
      ],
      "name": "IFOFactoryUpdated",
      "type": "event"
    },
    {
      "anonymous": false,
      "inputs": [
        {
          "indexed": false,
          "internalType": "uint8",
          "name": "version",
          "type": "uint8"
        }
      ],
      "name": "Initialized",
      "type": "event"
    },
    {
      "anonymous": false,
      "inputs": [
        {
          "indexed": true,
          "internalType": "address",
          "name": "previousOwner",
          "type": "address"
        },
        {
          "indexed": true,
          "internalType": "address",
          "name": "newOwner",
          "type": "address"
        }
      ],
      "name": "OwnershipTransferred",
      "type": "event"
    },
    {
      "anonymous": false,
      "inputs": [
        {
          "indexed": false,
          "internalType": "address",
          "name": "account",
          "type": "address"
        }
      ],
      "name": "Paused",
      "type": "event"
    },
    {
      "anonymous": false,
      "inputs": [
        {
          "indexed": false,
          "internalType": "address",
          "name": "oldPriceOracle",
          "type": "address"
        },
        {
          "indexed": false,
          "internalType": "address",
          "name": "newPriceOracle",
          "type": "address"
        }
      ],
      "name": "PriceOracleUpdated",
      "type": "event"
    },
    {
      "anonymous": false,
      "inputs": [
        {
          "indexed": false,
          "internalType": "address",
          "name": "account",
          "type": "address"
        }
      ],
      "name": "Unpaused",
      "type": "event"
    },
    {
      "anonymous": false,
      "inputs": [
        {
          "indexed": false,
          "internalType": "uint256",
          "name": "vaultId",
          "type": "uint256"
        },
        {
          "indexed": false,
          "internalType": "address",
          "name": "vault",
          "type": "address"
        }
      ],
      "name": "VaultAdded",
      "type": "event"
    },
    {
      "anonymous": false,
      "inputs": [
        {
          "indexed": false,
          "internalType": "address",
          "name": "oldZapContract",
          "type": "address"
        },
        {
          "indexed": false,
          "internalType": "address",
          "name": "newZapContract",
          "type": "address"
        }
      ],
      "name": "ZapContractUpdated",
      "type": "event"
    },
    {
      "inputs": [],
      "name": "WETH",
      "outputs": [
        {
          "internalType": "address",
          "name": "",
          "type": "address"
        }
      ],
      "stateMutability": "view",
      "type": "function"
    },
    {
      "inputs": [
        {
          "internalType": "address",
          "name": "_weth",
          "type": "address"
        }
      ],
      "name": "__VaultManager_init",
      "outputs": [],
      "stateMutability": "nonpayable",
      "type": "function"
    },
    {
      "inputs": [
        {
          "internalType": "address",
          "name": "_fnft",
          "type": "address"
        }
      ],
      "name": "addVault",
      "outputs": [
        {
          "internalType": "uint256",
          "name": "vaultId",
          "type": "uint256"
        }
      ],
      "stateMutability": "nonpayable",
      "type": "function"
    },
    {
      "inputs": [
        {
          "internalType": "address",
          "name": "",
          "type": "address"
        }
      ],
      "name": "excludedFromFees",
      "outputs": [
        {
          "internalType": "bool",
          "name": "",
          "type": "bool"
        }
      ],
      "stateMutability": "view",
      "type": "function"
    },
    {
      "inputs": [],
      "name": "feeDistributor",
      "outputs": [
        {
          "internalType": "address",
          "name": "",
          "type": "address"
        }
      ],
      "stateMutability": "view",
      "type": "function"
    },
    {
      "inputs": [],
      "name": "feeReceiver",
      "outputs": [
        {
          "internalType": "address payable",
          "name": "",
          "type": "address"
        }
      ],
      "stateMutability": "view",
      "type": "function"
    },
    {
      "inputs": [],
      "name": "fnftCollectionFactory",
      "outputs": [
        {
          "internalType": "address",
          "name": "",
          "type": "address"
        }
      ],
      "stateMutability": "view",
      "type": "function"
    },
    {
      "inputs": [],
      "name": "fnftSingleFactory",
      "outputs": [
        {
          "internalType": "address",
          "name": "",
          "type": "address"
        }
      ],
      "stateMutability": "view",
      "type": "function"
    },
    {
      "inputs": [],
      "name": "ifoFactory",
      "outputs": [
        {
          "internalType": "address",
          "name": "",
          "type": "address"
        }
      ],
      "stateMutability": "view",
      "type": "function"
    },
    {
      "inputs": [],
      "name": "numVaults",
      "outputs": [
        {
          "internalType": "uint256",
          "name": "",
          "type": "uint256"
        }
      ],
      "stateMutability": "view",
      "type": "function"
    },
    {
      "inputs": [],
      "name": "owner",
      "outputs": [
        {
          "internalType": "address",
          "name": "",
          "type": "address"
        }
      ],
      "stateMutability": "view",
      "type": "function"
    },
    {
      "inputs": [],
      "name": "paused",
      "outputs": [
        {
          "internalType": "bool",
          "name": "",
          "type": "bool"
        }
      ],
      "stateMutability": "view",
      "type": "function"
    },
    {
      "inputs": [],
      "name": "priceOracle",
      "outputs": [
        {
          "internalType": "address",
          "name": "",
          "type": "address"
        }
      ],
      "stateMutability": "view",
      "type": "function"
    },
    {
      "inputs": [],
      "name": "renounceOwnership",
      "outputs": [],
      "stateMutability": "nonpayable",
      "type": "function"
    },
    {
      "inputs": [
        {
          "internalType": "address",
          "name": "_fnftCollectionFactory",
          "type": "address"
        }
      ],
      "name": "setFNFTCollectionFactory",
      "outputs": [],
      "stateMutability": "nonpayable",
      "type": "function"
    },
    {
      "inputs": [
        {
          "internalType": "address",
          "name": "_fnftSingleFactory",
          "type": "address"
        }
      ],
      "name": "setFNFTSingleFactory",
      "outputs": [],
      "stateMutability": "nonpayable",
      "type": "function"
    },
    {
      "inputs": [
        {
          "internalType": "address",
          "name": "_feeDistributor",
          "type": "address"
        }
      ],
      "name": "setFeeDistributor",
      "outputs": [],
      "stateMutability": "nonpayable",
      "type": "function"
    },
    {
      "inputs": [
        {
          "internalType": "address",
          "name": "_address",
          "type": "address"
        },
        {
          "internalType": "bool",
          "name": "_excluded",
          "type": "bool"
        }
      ],
      "name": "setFeeExclusion",
      "outputs": [],
      "stateMutability": "nonpayable",
      "type": "function"
    },
    {
      "inputs": [
        {
          "internalType": "address payable",
          "name": "_feeReceiver",
          "type": "address"
        }
      ],
      "name": "setFeeReceiver",
      "outputs": [],
      "stateMutability": "nonpayable",
      "type": "function"
    },
    {
      "inputs": [
        {
          "internalType": "address",
          "name": "_ifoFactory",
          "type": "address"
        }
      ],
      "name": "setIFOFactory",
      "outputs": [],
      "stateMutability": "nonpayable",
      "type": "function"
    },
    {
      "inputs": [
        {
          "internalType": "address",
          "name": "_priceOracle",
          "type": "address"
        }
      ],
      "name": "setPriceOracle",
      "outputs": [],
      "stateMutability": "nonpayable",
      "type": "function"
    },
    {
      "inputs": [
        {
          "internalType": "address",
          "name": "_zapContract",
          "type": "address"
        }
      ],
      "name": "setZapContract",
      "outputs": [],
      "stateMutability": "nonpayable",
      "type": "function"
    },
    {
      "inputs": [],
      "name": "togglePaused",
      "outputs": [],
      "stateMutability": "nonpayable",
      "type": "function"
    },
    {
      "inputs": [
        {
          "internalType": "address",
          "name": "newOwner",
          "type": "address"
        }
      ],
      "name": "transferOwnership",
      "outputs": [],
      "stateMutability": "nonpayable",
      "type": "function"
    },
    {
      "inputs": [
        {
          "internalType": "uint256",
          "name": "vaultId",
          "type": "uint256"
        }
      ],
      "name": "vault",
      "outputs": [
        {
          "internalType": "address",
          "name": "",
          "type": "address"
        }
      ],
      "stateMutability": "view",
      "type": "function"
    },
    {
      "inputs": [
        {
          "internalType": "uint256",
          "name": "",
          "type": "uint256"
        }
      ],
      "name": "vaults",
      "outputs": [
        {
          "internalType": "address",
          "name": "",
          "type": "address"
        }
      ],
      "stateMutability": "view",
      "type": "function"
    },
    {
      "inputs": [],
      "name": "zapContract",
      "outputs": [
        {
          "internalType": "address",
          "name": "",
          "type": "address"
        }
      ],
      "stateMutability": "view",
      "type": "function"
    }
  ],
  "transactionHash": "0x9a1c8a4b7d25f4762efa1e55de0fa5e1b98e6f96324a39c08572cbc4f5a02815",
  "args": [],
  "numDeployments": 1,
  "solcInputHash": "bf0ff9e6b7fc2e915dfac7a0da096a36",
  "bytecode": "0x608060405234801561001057600080fd5b50611128806100206000396000f3fe608060405234801561001057600080fd5b50600436106101a95760003560e01c8063715018a6116100f9578063ad5c464811610097578063dbe66ca011610071578063dbe66ca014610371578063efdcd97414610394578063f2fde38b146103a7578063fcaa8737146103ba57600080fd5b8063ad5c464814610338578063b3f006741461034b578063ccfc2e8d1461035e57600080fd5b806381a36fb6116100d357806381a36fb6146102ee5780638c64ea4a146103015780638da5cb5b146103145780639877500d1461032557600080fd5b8063715018a6146102c0578063733966a6146102c85780637567ef41146102db57600080fd5b8063264a62081161016657806336566f061161014057806336566f061461027b578063530e784f146102835780635c975abb14610296578063623fce62146102ad57600080fd5b8063264a62081461024d5780632d7a557b1461025557806330b94cd51461026857600080fd5b80630d43e8ad146101ae57806310509011146101de5780631ca683a4146101f35780632549dad914610206578063256b5a02146102195780632630c12f1461023a575b600080fd5b6099546101c1906001600160a01b031681565b6040516001600160a01b0390911681526020015b60405180910390f35b6101f16101ec366004610f93565b6103cd565b005b609d546101c1906001600160a01b031681565b609f546101c1906001600160a01b031681565b61022c610227366004610f93565b610490565b6040519081526020016101d5565b609e546101c1906001600160a01b031681565b60985461022c565b6101f1610263366004610f93565b610615565b6101f1610276366004610fb7565b6106a8565b6101f1610740565b6101f1610291366004610f93565b610786565b60655460ff165b60405190151581526020016101d5565b609b546101c1906001600160a01b031681565b6101f1610819565b6101f16102d6366004610f93565b61084d565b609c546101c1906001600160a01b031681565b6101c16102fc366004610ff5565b6108f4565b6101c161030f366004610ff5565b610924565b6033546001600160a01b03166101c1565b6101f1610333366004610f93565b61094e565b60a0546101c1906001600160a01b031681565b609a546101c1906001600160a01b031681565b6101f161036c366004610f93565b610a08565b61029d61037f366004610f93565b60976020526000908152604090205460ff1681565b6101f16103a2366004610f93565b610ac2565b6101f16103b5366004610f93565b610b7c565b6101f16103c8366004610f93565b610c17565b6033546001600160a01b031633146104005760405162461bcd60e51b81526004016103f79061100e565b60405180910390fd5b6001600160a01b0381166104275760405163d92e233d60e01b815260040160405180910390fd5b609b54604080516001600160a01b03928316815291831660208301527fb4b99aab70881c676726865bf1e8c945670d8cab111a97c2fb16ee6658623260910160405180910390a1609b80546001600160a01b0319166001600160a01b0392909216919091179055565b60006001600160a01b0382166104b95760405163d92e233d60e01b815260040160405180910390fd5b6099546001600160a01b0316806104e35760405163d92e233d60e01b815260040160405180910390fd5b609c546001600160a01b031633148015906105095750609b546001600160a01b03163314155b1561052757604051630636a15760e11b815260040160405180910390fd5b609880546001810182556000919091527f2237a976fa961f5921fd19f2b03c925c725d77b20ce8f790c19709c03de4d814810180546001600160a01b0319166001600160a01b0386811691909117909155604051630674f4a960e21b8152600481018390529193508216906319d3d2a490602401600060405180830381600087803b1580156105b557600080fd5b505af11580156105c9573d6000803e3d6000fd5b5050604080518581526001600160a01b03871660208201527fa3ccd9b56d18a571b67b97905e5ef425788000d31a490513f7cad937175beeeb935001905060405180910390a150919050565b6033546001600160a01b0316331461063f5760405162461bcd60e51b81526004016103f79061100e565b609d54604080516001600160a01b03928316815291831660208301527faa040a71574770d72c11662e4bc38d8c51ef2c0d4ad86916545ba6f7bcf959be910160405180910390a1609d80546001600160a01b0319166001600160a01b0392909216919091179055565b6033546001600160a01b031633146106d25760405162461bcd60e51b81526004016103f79061100e565b604080516001600160a01b038416815282151560208201527f567d369e9bbbf0ca3aabb9976ba5d311e9e83e4c63bbab2a4771335bb167f86f910160405180910390a16001600160a01b03919091166000908152609760205260409020805460ff1916911515919091179055565b6033546001600160a01b0316331461076a5760405162461bcd60e51b81526004016103f79061100e565b60655460ff1661077e5761077c610cd1565b565b61077c610d69565b6033546001600160a01b031633146107b05760405162461bcd60e51b81526004016103f79061100e565b609e54604080516001600160a01b03928316815291831660208301527f56b5f80d8cac1479698aa7d01605fd6111e90b15fc4d2b377417f46034876cbd910160405180910390a1609e80546001600160a01b0319166001600160a01b0392909216919091179055565b6033546001600160a01b031633146108435760405162461bcd60e51b81526004016103f79061100e565b61077c6000610de3565b60006108596001610e35565b90508015610871576000805461ff0019166101001790555b610879610ebd565b610881610eec565b60a080546001600160a01b0384166001600160a01b031991821617909155609a80549091163317905580156108f0576000805461ff0019169055604051600181527f7f26b83ff96e1f2b6a682f133852f6798a09c465da95921460cefb38474024989060200160405180910390a15b5050565b60006098828154811061090957610909611043565b6000918252602090912001546001600160a01b031692915050565b6098818154811061093457600080fd5b6000918252602090912001546001600160a01b0316905081565b6033546001600160a01b031633146109785760405162461bcd60e51b81526004016103f79061100e565b6001600160a01b03811661099f5760405163d92e233d60e01b815260040160405180910390fd5b609c54604080516001600160a01b03928316815291831660208301527f74b85f48a31cdc53dd15460d76a5ae21068d74fa10e38330649e5cb7c0c819c6910160405180910390a1609c80546001600160a01b0319166001600160a01b0392909216919091179055565b6033546001600160a01b03163314610a325760405162461bcd60e51b81526004016103f79061100e565b6001600160a01b038116610a595760405163d92e233d60e01b815260040160405180910390fd5b609954604080516001600160a01b03928316815291831660208301527fbb470d12faa974cbae56bc3c345446451b4d504aa13806836f3df6d032fa9a91910160405180910390a1609980546001600160a01b0319166001600160a01b0392909216919091179055565b6033546001600160a01b03163314610aec5760405162461bcd60e51b81526004016103f79061100e565b6001600160a01b038116610b135760405163d92e233d60e01b815260040160405180910390fd5b609a54604080516001600160a01b03928316815291831660208301527fa92ff4390fe6943f0b30e8fe715dde86f85ab79b2b2c640a10fc094cc4036cc8910160405180910390a1609a80546001600160a01b0319166001600160a01b0392909216919091179055565b6033546001600160a01b03163314610ba65760405162461bcd60e51b81526004016103f79061100e565b6001600160a01b038116610c0b5760405162461bcd60e51b815260206004820152602660248201527f4f776e61626c653a206e6577206f776e657220697320746865207a65726f206160448201526564647265737360d01b60648201526084016103f7565b610c1481610de3565b50565b6033546001600160a01b03163314610c415760405162461bcd60e51b81526004016103f79061100e565b6001600160a01b038116610c685760405163d92e233d60e01b815260040160405180910390fd5b609f54604080516001600160a01b03928316815291831660208301527f0697f841c7f51da539c44a0bc312a4cc22ebf4310c4620cb3affde2dba55338e910160405180910390a1609f80546001600160a01b0319166001600160a01b0392909216919091179055565b60655460ff1615610d175760405162461bcd60e51b815260206004820152601060248201526f14185d5cd8589b194e881c185d5cd95960821b60448201526064016103f7565b6065805460ff191660011790557f62e78cea01bee320cd4e420270b5ea74000d11b0c9f74754ebdbfc544b05a258610d4c3390565b6040516001600160a01b03909116815260200160405180910390a1565b60655460ff16610db25760405162461bcd60e51b815260206004820152601460248201527314185d5cd8589b194e881b9bdd081c185d5cd95960621b60448201526064016103f7565b6065805460ff191690557f5db9ee0a495bf2e6ff9c91a7834c1ba4fdd244a5e8aa4e537bd38aeae4b073aa33610d4c565b603380546001600160a01b038381166001600160a01b0319831681179093556040519116919082907f8be0079c531659141344cd1fd0a4f28419497f9722a3daafe3b4186f6b6457e090600090a35050565b60008054610100900460ff1615610e7c578160ff166001148015610e585750303b155b610e745760405162461bcd60e51b81526004016103f790611059565b506000919050565b60005460ff808416911610610ea35760405162461bcd60e51b81526004016103f790611059565b506000805460ff191660ff92909216919091179055600190565b600054610100900460ff16610ee45760405162461bcd60e51b81526004016103f7906110a7565b61077c610f1b565b600054610100900460ff16610f135760405162461bcd60e51b81526004016103f7906110a7565b61077c610f4b565b600054610100900460ff16610f425760405162461bcd60e51b81526004016103f7906110a7565b61077c33610de3565b600054610100900460ff16610f725760405162461bcd60e51b81526004016103f7906110a7565b6065805460ff19169055565b6001600160a01b0381168114610c1457600080fd5b600060208284031215610fa557600080fd5b8135610fb081610f7e565b9392505050565b60008060408385031215610fca57600080fd5b8235610fd581610f7e565b915060208301358015158114610fea57600080fd5b809150509250929050565b60006020828403121561100757600080fd5b5035919050565b6020808252818101527f4f776e61626c653a2063616c6c6572206973206e6f7420746865206f776e6572604082015260600190565b634e487b7160e01b600052603260045260246000fd5b6020808252602e908201527f496e697469616c697a61626c653a20636f6e747261637420697320616c72656160408201526d191e481a5b9a5d1a585b1a5e995960921b606082015260800190565b6020808252602b908201527f496e697469616c697a61626c653a20636f6e7472616374206973206e6f74206960408201526a6e697469616c697a696e6760a81b60608201526080019056fea26469706673582212200385b6d2ed337228405f62d5eaa4d6c732a09257a2a8e268fd9671e19b005a5a64736f6c634300080d0033",
  "devdoc": {
    "kind": "dev",
    "methods": {
      "owner()": {
        "details": "Returns the address of the current owner."
      },
      "paused()": {
        "details": "Returns true if the contract is paused, and false otherwise."
      },
      "renounceOwnership()": {
        "details": "Leaves the contract without owner. It will not be possible to call `onlyOwner` functions anymore. Can only be called by the current owner. NOTE: Renouncing ownership will leave the contract without an owner, thereby removing any functionality that is only available to the owner."
      },
      "transferOwnership(address)": {
        "details": "Transfers ownership of the contract to a new account (`newOwner`). Can only be called by the current owner."
      }
    },
    "version": 1
  },
  "userdoc": {
    "kind": "user",
    "methods": {
      "feeReceiver()": {
        "notice": "the address who receives auction fees"
      }
    },
    "version": 1
  },
  "storageLayout": {
    "storage": [
      {
        "astId": 274,
        "contract": "src/contracts/VaultManager.sol:VaultManager",
        "label": "_initialized",
        "offset": 0,
        "slot": "0",
        "type": "t_uint8"
      },
      {
        "astId": 277,
        "contract": "src/contracts/VaultManager.sol:VaultManager",
        "label": "_initializing",
        "offset": 1,
        "slot": "0",
        "type": "t_bool"
      },
      {
        "astId": 2270,
        "contract": "src/contracts/VaultManager.sol:VaultManager",
        "label": "__gap",
        "offset": 0,
        "slot": "1",
        "type": "t_array(t_uint256)50_storage"
      },
      {
        "astId": 10,
        "contract": "src/contracts/VaultManager.sol:VaultManager",
        "label": "_owner",
        "offset": 0,
        "slot": "51",
        "type": "t_address"
      },
      {
        "astId": 122,
        "contract": "src/contracts/VaultManager.sol:VaultManager",
        "label": "__gap",
        "offset": 0,
        "slot": "52",
        "type": "t_array(t_uint256)49_storage"
      },
      {
        "astId": 430,
        "contract": "src/contracts/VaultManager.sol:VaultManager",
        "label": "_paused",
        "offset": 0,
        "slot": "101",
        "type": "t_bool"
      },
      {
        "astId": 519,
        "contract": "src/contracts/VaultManager.sol:VaultManager",
        "label": "__gap",
        "offset": 0,
        "slot": "102",
        "type": "t_array(t_uint256)49_storage"
      },
      {
        "astId": 14550,
        "contract": "src/contracts/VaultManager.sol:VaultManager",
        "label": "excludedFromFees",
        "offset": 0,
        "slot": "151",
        "type": "t_mapping(t_address,t_bool)"
      },
      {
        "astId": 14554,
        "contract": "src/contracts/VaultManager.sol:VaultManager",
        "label": "vaults",
        "offset": 0,
        "slot": "152",
        "type": "t_array(t_address)dyn_storage"
      },
      {
        "astId": 14557,
        "contract": "src/contracts/VaultManager.sol:VaultManager",
        "label": "feeDistributor",
        "offset": 0,
        "slot": "153",
        "type": "t_address"
      },
      {
        "astId": 14561,
        "contract": "src/contracts/VaultManager.sol:VaultManager",
        "label": "feeReceiver",
        "offset": 0,
        "slot": "154",
        "type": "t_address_payable"
      },
      {
        "astId": 14564,
        "contract": "src/contracts/VaultManager.sol:VaultManager",
        "label": "fnftSingleFactory",
        "offset": 0,
        "slot": "155",
        "type": "t_address"
      },
      {
        "astId": 14567,
        "contract": "src/contracts/VaultManager.sol:VaultManager",
        "label": "fnftCollectionFactory",
        "offset": 0,
        "slot": "156",
        "type": "t_address"
      },
      {
        "astId": 14570,
        "contract": "src/contracts/VaultManager.sol:VaultManager",
        "label": "ifoFactory",
        "offset": 0,
        "slot": "157",
        "type": "t_address"
      },
      {
        "astId": 14573,
        "contract": "src/contracts/VaultManager.sol:VaultManager",
        "label": "priceOracle",
        "offset": 0,
        "slot": "158",
        "type": "t_address"
      },
      {
        "astId": 14576,
        "contract": "src/contracts/VaultManager.sol:VaultManager",
        "label": "zapContract",
        "offset": 0,
        "slot": "159",
        "type": "t_address"
      },
      {
        "astId": 14579,
        "contract": "src/contracts/VaultManager.sol:VaultManager",
        "label": "WETH",
        "offset": 0,
        "slot": "160",
        "type": "t_address"
      }
    ],
    "types": {
      "t_address": {
        "encoding": "inplace",
        "label": "address",
        "numberOfBytes": "20"
      },
      "t_address_payable": {
        "encoding": "inplace",
        "label": "address payable",
        "numberOfBytes": "20"
      },
      "t_array(t_address)dyn_storage": {
        "base": "t_address",
        "encoding": "dynamic_array",
        "label": "address[]",
        "numberOfBytes": "32"
      },
      "t_array(t_uint256)49_storage": {
        "base": "t_uint256",
        "encoding": "inplace",
        "label": "uint256[49]",
        "numberOfBytes": "1568"
      },
      "t_array(t_uint256)50_storage": {
        "base": "t_uint256",
        "encoding": "inplace",
        "label": "uint256[50]",
        "numberOfBytes": "1600"
      },
      "t_bool": {
        "encoding": "inplace",
        "label": "bool",
        "numberOfBytes": "1"
      },
      "t_mapping(t_address,t_bool)": {
        "encoding": "mapping",
        "key": "t_address",
        "label": "mapping(address => bool)",
        "numberOfBytes": "32",
        "value": "t_bool"
      },
      "t_uint256": {
        "encoding": "inplace",
        "label": "uint256",
        "numberOfBytes": "32"
      },
      "t_uint8": {
        "encoding": "inplace",
        "label": "uint8",
        "numberOfBytes": "1"
      }
    }
  }
}